{
	"contracts/BuyingBoxNFT.sol": {
		"EventBuyBox": {
			"abi": [
				{
					"inputs": [
						{
							"internalType": "address",
							"name": "_token",
							"type": "address"
						},
						{
							"internalType": "address",
							"name": "_contractBox",
							"type": "address"
						}
					],
					"stateMutability": "nonpayable",
					"type": "constructor"
				},
				{
					"anonymous": false,
					"inputs": [
						{
							"indexed": true,
							"internalType": "address",
							"name": "user",
							"type": "address"
						}
					],
					"name": "BuyingBox",
					"type": "event"
				},
				{
					"anonymous": false,
					"inputs": [
						{
							"indexed": true,
							"internalType": "address",
							"name": "previousOwner",
							"type": "address"
						},
						{
							"indexed": true,
							"internalType": "address",
							"name": "newOwner",
							"type": "address"
						}
					],
					"name": "OwnershipTransferred",
					"type": "event"
				},
				{
					"anonymous": false,
					"inputs": [
						{
							"indexed": false,
							"internalType": "address",
							"name": "account",
							"type": "address"
						}
					],
					"name": "Paused",
					"type": "event"
				},
				{
					"anonymous": false,
					"inputs": [
						{
							"indexed": false,
							"internalType": "address",
							"name": "",
							"type": "address"
						},
						{
							"indexed": false,
							"internalType": "uint256",
							"name": "",
							"type": "uint256"
						}
					],
					"name": "Received",
					"type": "event"
				},
				{
					"anonymous": false,
					"inputs": [
						{
							"indexed": false,
							"internalType": "address",
							"name": "account",
							"type": "address"
						}
					],
					"name": "Unpaused",
					"type": "event"
				},
				{
					"inputs": [],
					"name": "BoxNFT",
					"outputs": [
						{
							"internalType": "address",
							"name": "",
							"type": "address"
						}
					],
					"stateMutability": "view",
					"type": "function"
				},
				{
					"inputs": [
						{
							"internalType": "uint256",
							"name": "_amountBox",
							"type": "uint256"
						}
					],
					"name": "BuyBox",
					"outputs": [],
					"stateMutability": "nonpayable",
					"type": "function"
				},
				{
					"inputs": [],
					"name": "amountBoxSold",
					"outputs": [
						{
							"internalType": "uint256",
							"name": "",
							"type": "uint256"
						}
					],
					"stateMutability": "view",
					"type": "function"
				},
				{
					"inputs": [
						{
							"internalType": "uint256",
							"name": "_amountBox",
							"type": "uint256"
						}
					],
					"name": "editAmountBoxSold",
					"outputs": [],
					"stateMutability": "nonpayable",
					"type": "function"
				},
				{
					"inputs": [],
					"name": "owner",
					"outputs": [
						{
							"internalType": "address",
							"name": "",
							"type": "address"
						}
					],
					"stateMutability": "view",
					"type": "function"
				},
				{
					"inputs": [],
					"name": "pause",
					"outputs": [],
					"stateMutability": "nonpayable",
					"type": "function"
				},
				{
					"inputs": [],
					"name": "paused",
					"outputs": [
						{
							"internalType": "bool",
							"name": "",
							"type": "bool"
						}
					],
					"stateMutability": "view",
					"type": "function"
				},
				{
					"inputs": [],
					"name": "renounceOwnership",
					"outputs": [],
					"stateMutability": "nonpayable",
					"type": "function"
				},
				{
					"inputs": [],
					"name": "startTime",
					"outputs": [
						{
							"internalType": "uint256",
							"name": "",
							"type": "uint256"
						}
					],
					"stateMutability": "view",
					"type": "function"
				},
				{
					"inputs": [],
					"name": "token",
					"outputs": [
						{
							"internalType": "address",
							"name": "",
							"type": "address"
						}
					],
					"stateMutability": "view",
					"type": "function"
				},
				{
					"inputs": [],
					"name": "totalSellBox",
					"outputs": [
						{
							"internalType": "uint256",
							"name": "",
							"type": "uint256"
						}
					],
					"stateMutability": "view",
					"type": "function"
				},
				{
					"inputs": [
						{
							"internalType": "address",
							"name": "newOwner",
							"type": "address"
						}
					],
					"name": "transferOwnership",
					"outputs": [],
					"stateMutability": "nonpayable",
					"type": "function"
				},
				{
					"inputs": [],
					"name": "unpause",
					"outputs": [],
					"stateMutability": "nonpayable",
					"type": "function"
				},
				{
					"inputs": [
						{
							"internalType": "uint256",
							"name": "_amount",
							"type": "uint256"
						}
					],
					"name": "withdrawNative",
					"outputs": [],
					"stateMutability": "nonpayable",
					"type": "function"
				},
				{
					"inputs": [],
					"name": "withdrawNativeAll",
					"outputs": [],
					"stateMutability": "nonpayable",
					"type": "function"
				},
				{
					"inputs": [
						{
							"internalType": "contract IERC20",
							"name": "_token",
							"type": "address"
						},
						{
							"internalType": "uint256",
							"name": "_amount",
							"type": "uint256"
						}
					],
					"name": "withdrawToken",
					"outputs": [],
					"stateMutability": "nonpayable",
					"type": "function"
				},
				{
					"inputs": [
						{
							"internalType": "contract IERC20",
							"name": "_token",
							"type": "address"
						}
					],
					"name": "withdrawTokenAll",
					"outputs": [],
					"stateMutability": "nonpayable",
					"type": "function"
				},
				{
					"stateMutability": "payable",
					"type": "receive"
				}
			],
			"devdoc": {
				"kind": "dev",
				"methods": {
					"owner()": {
						"details": "Returns the address of the current owner."
					},
					"paused()": {
						"details": "Returns true if the contract is paused, and false otherwise."
					},
					"renounceOwnership()": {
						"details": "Leaves the contract without owner. It will not be possible to call `onlyOwner` functions anymore. Can only be called by the current owner. NOTE: Renouncing ownership will leave the contract without an owner, thereby removing any functionality that is only available to the owner."
					},
					"transferOwnership(address)": {
						"details": "Transfers ownership of the contract to a new account (`newOwner`). Can only be called by the current owner."
					}
				},
				"version": 1
			},
			"evm": {
				"assembly": "    /* \"contracts/BuyingBoxNFT.sol\":495:3319  contract EventBuyBox is Pausable, Ownable, ReentrancyGuard, Withdrawable {... */\n  mstore(0x40, 0x80)\n    /* \"contracts/BuyingBoxNFT.sol\":735:777  0x10ED43C718714eb63d5aA57B78B54704E256024E */\n  0x10ed43c718714eb63d5aa57b78b54704e256024e\n    /* \"contracts/BuyingBoxNFT.sol\":693:777  address private pancakeRouterV2Contract = 0x10ED43C718714eb63d5aA57B78B54704E256024E */\n  0x06\n  exp(0x0100, 0x00)\n  dup2\n  sload\n  dup2\n  0xffffffffffffffffffffffffffffffffffffffff\n  mul\n  not\n  and\n  swap1\n  dup4\n  0xffffffffffffffffffffffffffffffffffffffff\n  and\n  mul\n  or\n  swap1\n  sstore\n  pop\n    /* \"contracts/BuyingBoxNFT.sol\":813:855  0xbb4CdB9CBd36B01bD1cBaEBF2De08d9173bc095c */\n  0xbb4cdb9cbd36b01bd1cbaebf2de08d9173bc095c\n    /* \"contracts/BuyingBoxNFT.sol\":783:855  address private bnbContract = 0xbb4CdB9CBd36B01bD1cBaEBF2De08d9173bc095c */\n  0x07\n  exp(0x0100, 0x00)\n  dup2\n  sload\n  dup2\n  0xffffffffffffffffffffffffffffffffffffffff\n  mul\n  not\n  and\n  swap1\n  dup4\n  0xffffffffffffffffffffffffffffffffffffffff\n  and\n  mul\n  or\n  swap1\n  sstore\n  pop\n    /* \"contracts/BuyingBoxNFT.sol\":892:934  0xe9e7CEA3DedcA5984780Bafc599bD69ADd087D56 */\n  0xe9e7cea3dedca5984780bafc599bd69add087d56\n    /* \"contracts/BuyingBoxNFT.sol\":861:934  address private busdContract = 0xe9e7CEA3DedcA5984780Bafc599bD69ADd087D56 */\n  0x08\n  exp(0x0100, 0x00)\n  dup2\n  sload\n  dup2\n  0xffffffffffffffffffffffffffffffffffffffff\n  mul\n  not\n  and\n  swap1\n  dup4\n  0xffffffffffffffffffffffffffffffffffffffff\n  and\n  mul\n  or\n  swap1\n  sstore\n  pop\n    /* \"contracts/BuyingBoxNFT.sol\":1015:1016  0 */\n  0x00\n    /* \"contracts/BuyingBoxNFT.sol\":985:1016  uint256 public totalSellBox = 0 */\n  0x09\n  sstore\n    /* \"contracts/BuyingBoxNFT.sol\":1023:1195  constructor(address _token, address _contractBox) {... */\n  callvalue\n  dup1\n  iszero\n  tag_1\n  jumpi\n  0x00\n  dup1\n  revert\ntag_1:\n  pop\n  mload(0x40)\n  sub(codesize, bytecodeSize)\n  dup1\n  bytecodeSize\n  dup4\n  codecopy\n  dup2\n  dup2\n  add\n  0x40\n  mstore\n  dup2\n  add\n  swap1\n  tag_2\n  swap2\n  swap1\n  tag_3\n  jump\t// in\ntag_2:\n    /* \"@openzeppelin/contracts/security/Pausable.sol\":991:996  false */\n  0x00\n    /* \"@openzeppelin/contracts/security/Pausable.sol\":981:988  _paused */\n  dup1\n  0x00\n    /* \"@openzeppelin/contracts/security/Pausable.sol\":981:996  _paused = false */\n  0x0100\n  exp\n  dup2\n  sload\n  dup2\n  0xff\n  mul\n  not\n  and\n  swap1\n  dup4\n  iszero\n  iszero\n  mul\n  or\n  swap1\n  sstore\n  pop\n    /* \"@openzeppelin/contracts/access/Ownable.sol\":921:953  _transferOwnership(_msgSender()) */\n  tag_10\n    /* \"@openzeppelin/contracts/access/Ownable.sol\":940:952  _msgSender() */\n  tag_11\n    /* \"@openzeppelin/contracts/access/Ownable.sol\":940:950  _msgSender */\n  shl(0x20, tag_12)\n    /* \"@openzeppelin/contracts/access/Ownable.sol\":940:952  _msgSender() */\n  0x20\n  shr\n  jump\t// in\ntag_11:\n    /* \"@openzeppelin/contracts/access/Ownable.sol\":921:939  _transferOwnership */\n  shl(0x20, tag_13)\n    /* \"@openzeppelin/contracts/access/Ownable.sol\":921:953  _transferOwnership(_msgSender()) */\n  0x20\n  shr\n  jump\t// in\ntag_10:\n    /* \"@openzeppelin/contracts/security/ReentrancyGuard.sol\":1701:1702  1 */\n  0x01\n    /* \"@openzeppelin/contracts/security/ReentrancyGuard.sol\":1806:1813  _status */\n  dup1\n    /* \"@openzeppelin/contracts/security/ReentrancyGuard.sol\":1806:1828  _status = _NOT_ENTERED */\n  dup2\n  swap1\n  sstore\n  pop\n    /* \"contracts/BuyingBoxNFT.sol\":1091:1097  _token */\n  dup2\n    /* \"contracts/BuyingBoxNFT.sol\":1083:1088  token */\n  0x02\n  0x00\n    /* \"contracts/BuyingBoxNFT.sol\":1083:1097  token = _token */\n  0x0100\n  exp\n  dup2\n  sload\n  dup2\n  0xffffffffffffffffffffffffffffffffffffffff\n  mul\n  not\n  and\n  swap1\n  dup4\n  0xffffffffffffffffffffffffffffffffffffffff\n  and\n  mul\n  or\n  swap1\n  sstore\n  pop\n    /* \"contracts/BuyingBoxNFT.sol\":1116:1128  _contractBox */\n  dup1\n    /* \"contracts/BuyingBoxNFT.sol\":1107:1113  BoxNFT */\n  0x03\n  0x00\n    /* \"contracts/BuyingBoxNFT.sol\":1107:1128  BoxNFT = _contractBox */\n  0x0100\n  exp\n  dup2\n  sload\n  dup2\n  0xffffffffffffffffffffffffffffffffffffffff\n  mul\n  not\n  and\n  swap1\n  dup4\n  0xffffffffffffffffffffffffffffffffffffffff\n  and\n  mul\n  or\n  swap1\n  sstore\n  pop\n    /* \"contracts/BuyingBoxNFT.sol\":1150:1160  1652249488 */\n  0x627b5390\n    /* \"contracts/BuyingBoxNFT.sol\":1138:1147  startTime */\n  0x04\n    /* \"contracts/BuyingBoxNFT.sol\":1138:1160  startTime = 1652249488 */\n  dup2\n  swap1\n  sstore\n  pop\n    /* \"contracts/BuyingBoxNFT.sol\":1186:1188  10 */\n  0x0a\n    /* \"contracts/BuyingBoxNFT.sol\":1170:1183  amountBoxSold */\n  0x05\n    /* \"contracts/BuyingBoxNFT.sol\":1170:1188  amountBoxSold = 10 */\n  dup2\n  swap1\n  sstore\n  pop\n    /* \"contracts/BuyingBoxNFT.sol\":1023:1195  constructor(address _token, address _contractBox) {... */\n  pop\n  pop\n    /* \"contracts/BuyingBoxNFT.sol\":495:3319  contract EventBuyBox is Pausable, Ownable, ReentrancyGuard, Withdrawable {... */\n  jump(tag_16)\n    /* \"@openzeppelin/contracts/utils/Context.sol\":640:736  function _msgSender() internal view virtual returns (address) {... */\ntag_12:\n    /* \"@openzeppelin/contracts/utils/Context.sol\":693:700  address */\n  0x00\n    /* \"@openzeppelin/contracts/utils/Context.sol\":719:729  msg.sender */\n  caller\n    /* \"@openzeppelin/contracts/utils/Context.sol\":712:729  return msg.sender */\n  swap1\n  pop\n    /* \"@openzeppelin/contracts/utils/Context.sol\":640:736  function _msgSender() internal view virtual returns (address) {... */\n  swap1\n  jump\t// out\n    /* \"@openzeppelin/contracts/access/Ownable.sol\":2270:2457  function _transferOwnership(address newOwner) internal virtual {... */\ntag_13:\n    /* \"@openzeppelin/contracts/access/Ownable.sol\":2343:2359  address oldOwner */\n  0x00\n    /* \"@openzeppelin/contracts/access/Ownable.sol\":2362:2368  _owner */\n  dup1\n  0x01\n  swap1\n  sload\n  swap1\n  0x0100\n  exp\n  swap1\n  div\n  0xffffffffffffffffffffffffffffffffffffffff\n  and\n    /* \"@openzeppelin/contracts/access/Ownable.sol\":2343:2368  address oldOwner = _owner */\n  swap1\n  pop\n    /* \"@openzeppelin/contracts/access/Ownable.sol\":2387:2395  newOwner */\n  dup2\n    /* \"@openzeppelin/contracts/access/Ownable.sol\":2378:2384  _owner */\n  0x00\n  0x01\n    /* \"@openzeppelin/contracts/access/Ownable.sol\":2378:2395  _owner = newOwner */\n  0x0100\n  exp\n  dup2\n  sload\n  dup2\n  0xffffffffffffffffffffffffffffffffffffffff\n  mul\n  not\n  and\n  swap1\n  dup4\n  0xffffffffffffffffffffffffffffffffffffffff\n  and\n  mul\n  or\n  swap1\n  sstore\n  pop\n    /* \"@openzeppelin/contracts/access/Ownable.sol\":2441:2449  newOwner */\n  dup2\n    /* \"@openzeppelin/contracts/access/Ownable.sol\":2410:2450  OwnershipTransferred(oldOwner, newOwner) */\n  0xffffffffffffffffffffffffffffffffffffffff\n  and\n    /* \"@openzeppelin/contracts/access/Ownable.sol\":2431:2439  oldOwner */\n  dup2\n    /* \"@openzeppelin/contracts/access/Ownable.sol\":2410:2450  OwnershipTransferred(oldOwner, newOwner) */\n  0xffffffffffffffffffffffffffffffffffffffff\n  and\n  0x8be0079c531659141344cd1fd0a4f28419497f9722a3daafe3b4186f6b6457e0\n  mload(0x40)\n  mload(0x40)\n  dup1\n  swap2\n  sub\n  swap1\n  log3\n    /* \"@openzeppelin/contracts/access/Ownable.sol\":2333:2457  {... */\n  pop\n    /* \"@openzeppelin/contracts/access/Ownable.sol\":2270:2457  function _transferOwnership(address newOwner) internal virtual {... */\n  pop\n  jump\t// out\n    /* \"#utility.yul\":7:150   */\ntag_20:\n    /* \"#utility.yul\":64:69   */\n  0x00\n    /* \"#utility.yul\":95:101   */\n  dup2\n    /* \"#utility.yul\":89:102   */\n  mload\n    /* \"#utility.yul\":80:102   */\n  swap1\n  pop\n    /* \"#utility.yul\":111:144   */\n  tag_22\n    /* \"#utility.yul\":138:143   */\n  dup2\n    /* \"#utility.yul\":111:144   */\n  tag_23\n  jump\t// in\ntag_22:\n    /* \"#utility.yul\":7:150   */\n  swap3\n  swap2\n  pop\n  pop\n  jump\t// out\n    /* \"#utility.yul\":156:663   */\ntag_3:\n    /* \"#utility.yul\":235:241   */\n  0x00\n    /* \"#utility.yul\":243:249   */\n  dup1\n    /* \"#utility.yul\":292:294   */\n  0x40\n    /* \"#utility.yul\":280:289   */\n  dup4\n    /* \"#utility.yul\":271:278   */\n  dup6\n    /* \"#utility.yul\":267:290   */\n  sub\n    /* \"#utility.yul\":263:295   */\n  slt\n    /* \"#utility.yul\":260:379   */\n  iszero\n  tag_25\n  jumpi\n    /* \"#utility.yul\":298:377   */\n  tag_26\n  tag_27\n  jump\t// in\ntag_26:\n    /* \"#utility.yul\":260:379   */\ntag_25:\n    /* \"#utility.yul\":418:419   */\n  0x00\n    /* \"#utility.yul\":443:507   */\n  tag_28\n    /* \"#utility.yul\":499:506   */\n  dup6\n    /* \"#utility.yul\":490:496   */\n  dup3\n    /* \"#utility.yul\":479:488   */\n  dup7\n    /* \"#utility.yul\":475:497   */\n  add\n    /* \"#utility.yul\":443:507   */\n  tag_20\n  jump\t// in\ntag_28:\n    /* \"#utility.yul\":433:507   */\n  swap3\n  pop\n    /* \"#utility.yul\":389:517   */\n  pop\n    /* \"#utility.yul\":556:558   */\n  0x20\n    /* \"#utility.yul\":582:646   */\n  tag_29\n    /* \"#utility.yul\":638:645   */\n  dup6\n    /* \"#utility.yul\":629:635   */\n  dup3\n    /* \"#utility.yul\":618:627   */\n  dup7\n    /* \"#utility.yul\":614:636   */\n  add\n    /* \"#utility.yul\":582:646   */\n  tag_20\n  jump\t// in\ntag_29:\n    /* \"#utility.yul\":572:646   */\n  swap2\n  pop\n    /* \"#utility.yul\":527:656   */\n  pop\n    /* \"#utility.yul\":156:663   */\n  swap3\n  pop\n  swap3\n  swap1\n  pop\n  jump\t// out\n    /* \"#utility.yul\":750:846   */\ntag_32:\n    /* \"#utility.yul\":787:794   */\n  0x00\n    /* \"#utility.yul\":816:840   */\n  tag_34\n    /* \"#utility.yul\":834:839   */\n  dup3\n    /* \"#utility.yul\":816:840   */\n  tag_35\n  jump\t// in\ntag_34:\n    /* \"#utility.yul\":805:840   */\n  swap1\n  pop\n    /* \"#utility.yul\":750:846   */\n  swap2\n  swap1\n  pop\n  jump\t// out\n    /* \"#utility.yul\":852:978   */\ntag_35:\n    /* \"#utility.yul\":889:896   */\n  0x00\n    /* \"#utility.yul\":929:971   */\n  0xffffffffffffffffffffffffffffffffffffffff\n    /* \"#utility.yul\":922:927   */\n  dup3\n    /* \"#utility.yul\":918:972   */\n  and\n    /* \"#utility.yul\":907:972   */\n  swap1\n  pop\n    /* \"#utility.yul\":852:978   */\n  swap2\n  swap1\n  pop\n  jump\t// out\n    /* \"#utility.yul\":1107:1224   */\ntag_27:\n    /* \"#utility.yul\":1216:1217   */\n  0x00\n    /* \"#utility.yul\":1213:1214   */\n  dup1\n    /* \"#utility.yul\":1206:1218   */\n  revert\n    /* \"#utility.yul\":1230:1352   */\ntag_23:\n    /* \"#utility.yul\":1303:1327   */\n  tag_41\n    /* \"#utility.yul\":1321:1326   */\n  dup2\n    /* \"#utility.yul\":1303:1327   */\n  tag_32\n  jump\t// in\ntag_41:\n    /* \"#utility.yul\":1296:1301   */\n  dup2\n    /* \"#utility.yul\":1293:1328   */\n  eq\n    /* \"#utility.yul\":1283:1346   */\n  tag_42\n  jumpi\n    /* \"#utility.yul\":1342:1343   */\n  0x00\n    /* \"#utility.yul\":1339:1340   */\n  dup1\n    /* \"#utility.yul\":1332:1344   */\n  revert\n    /* \"#utility.yul\":1283:1346   */\ntag_42:\n    /* \"#utility.yul\":1230:1352   */\n  pop\n  jump\t// out\n    /* \"contracts/BuyingBoxNFT.sol\":495:3319  contract EventBuyBox is Pausable, Ownable, ReentrancyGuard, Withdrawable {... */\ntag_16:\n  dataSize(sub_0)\n  dup1\n  dataOffset(sub_0)\n  0x00\n  codecopy\n  0x00\n  return\nstop\n\nsub_0: assembly {\n        /* \"contracts/BuyingBoxNFT.sol\":495:3319  contract EventBuyBox is Pausable, Ownable, ReentrancyGuard, Withdrawable {... */\n      mstore(0x40, 0x80)\n      jumpi(tag_1, lt(calldatasize, 0x04))\n      shr(0xe0, calldataload(0x00))\n      dup1\n      0x715018a6\n      gt\n      tag_20\n      jumpi\n      dup1\n      0x8da5cb5b\n      gt\n      tag_21\n      jumpi\n      dup1\n      0x8da5cb5b\n      eq\n      tag_15\n      jumpi\n      dup1\n      0x9e281a98\n      eq\n      tag_16\n      jumpi\n      dup1\n      0xf2fde38b\n      eq\n      tag_17\n      jumpi\n      dup1\n      0xfc0c546a\n      eq\n      tag_18\n      jumpi\n      dup1\n      0xfc9443d9\n      eq\n      tag_19\n      jumpi\n      jump(tag_2)\n    tag_21:\n      dup1\n      0x715018a6\n      eq\n      tag_11\n      jumpi\n      dup1\n      0x78e97925\n      eq\n      tag_12\n      jumpi\n      dup1\n      0x84276d81\n      eq\n      tag_13\n      jumpi\n      dup1\n      0x8456cb59\n      eq\n      tag_14\n      jumpi\n      jump(tag_2)\n    tag_20:\n      dup1\n      0x51a30b30\n      gt\n      tag_22\n      jumpi\n      dup1\n      0x51a30b30\n      eq\n      tag_7\n      jumpi\n      dup1\n      0x5629d258\n      eq\n      tag_8\n      jumpi\n      dup1\n      0x5c975abb\n      eq\n      tag_9\n      jumpi\n      dup1\n      0x5d3a7c5d\n      eq\n      tag_10\n      jumpi\n      jump(tag_2)\n    tag_22:\n      dup1\n      0x015ed3c3\n      eq\n      tag_3\n      jumpi\n      dup1\n      0x06a3fbc2\n      eq\n      tag_4\n      jumpi\n      dup1\n      0x0d551b63\n      eq\n      tag_5\n      jumpi\n      dup1\n      0x3f4ba83a\n      eq\n      tag_6\n      jumpi\n      jump(tag_2)\n    tag_1:\n      jumpi(tag_2, calldatasize)\n        /* \"contracts/BuyingBoxNFT.sol\":3279:3310  Received(msg.sender, msg.value) */\n      0x88a5966d370b9919b20f3e2c13ff65706f196a4e32cc2c12bf57088f88525874\n        /* \"contracts/BuyingBoxNFT.sol\":3288:3298  msg.sender */\n      caller\n        /* \"contracts/BuyingBoxNFT.sol\":3300:3309  msg.value */\n      callvalue\n        /* \"contracts/BuyingBoxNFT.sol\":3279:3310  Received(msg.sender, msg.value) */\n      mload(0x40)\n      tag_25\n      swap3\n      swap2\n      swap1\n      tag_26\n      jump\t// in\n    tag_25:\n      mload(0x40)\n      dup1\n      swap2\n      sub\n      swap1\n      log1\n        /* \"contracts/BuyingBoxNFT.sol\":495:3319  contract EventBuyBox is Pausable, Ownable, ReentrancyGuard, Withdrawable {... */\n      stop\n    tag_2:\n      0x00\n      dup1\n      revert\n        /* \"contracts/lib/Withdrawable.sol\":771:961  function withdrawNativeAll() public onlyOwner {... */\n    tag_3:\n      callvalue\n      dup1\n      iszero\n      tag_27\n      jumpi\n      0x00\n      dup1\n      revert\n    tag_27:\n      pop\n      tag_28\n      tag_29\n      jump\t// in\n    tag_28:\n      stop\n        /* \"contracts/BuyingBoxNFT.sol\":658:686  uint256 public amountBoxSold */\n    tag_4:\n      callvalue\n      dup1\n      iszero\n      tag_30\n      jumpi\n      0x00\n      dup1\n      revert\n    tag_30:\n      pop\n      tag_31\n      tag_32\n      jump\t// in\n    tag_31:\n      mload(0x40)\n      tag_33\n      swap2\n      swap1\n      tag_34\n      jump\t// in\n    tag_33:\n      mload(0x40)\n      dup1\n      swap2\n      sub\n      swap1\n      return\n        /* \"contracts/BuyingBoxNFT.sol\":985:1016  uint256 public totalSellBox = 0 */\n    tag_5:\n      callvalue\n      dup1\n      iszero\n      tag_35\n      jumpi\n      0x00\n      dup1\n      revert\n    tag_35:\n      pop\n      tag_36\n      tag_37\n      jump\t// in\n    tag_36:\n      mload(0x40)\n      tag_38\n      swap2\n      swap1\n      tag_34\n      jump\t// in\n    tag_38:\n      mload(0x40)\n      dup1\n      swap2\n      sub\n      swap1\n      return\n        /* \"contracts/BuyingBoxNFT.sol\":1391:1454  function unpause() public onlyOwner {... */\n    tag_6:\n      callvalue\n      dup1\n      iszero\n      tag_39\n      jumpi\n      0x00\n      dup1\n      revert\n    tag_39:\n      pop\n      tag_40\n      tag_41\n      jump\t// in\n    tag_40:\n      stop\n        /* \"contracts/BuyingBoxNFT.sol\":1460:2320  function BuyBox(uint256 _amountBox) public whenNotPaused nonReentrant {... */\n    tag_7:\n      callvalue\n      dup1\n      iszero\n      tag_42\n      jumpi\n      0x00\n      dup1\n      revert\n    tag_42:\n      pop\n      tag_43\n      0x04\n      dup1\n      calldatasize\n      sub\n      dup2\n      add\n      swap1\n      tag_44\n      swap2\n      swap1\n      tag_45\n      jump\t// in\n    tag_44:\n      tag_46\n      jump\t// in\n    tag_43:\n      stop\n        /* \"contracts/lib/Withdrawable.sol\":967:1188  function withdrawTokenAll(IERC20 _token) public onlyOwner {... */\n    tag_8:\n      callvalue\n      dup1\n      iszero\n      tag_47\n      jumpi\n      0x00\n      dup1\n      revert\n    tag_47:\n      pop\n      tag_48\n      0x04\n      dup1\n      calldatasize\n      sub\n      dup2\n      add\n      swap1\n      tag_49\n      swap2\n      swap1\n      tag_50\n      jump\t// in\n    tag_49:\n      tag_51\n      jump\t// in\n    tag_48:\n      stop\n        /* \"@openzeppelin/contracts/security/Pausable.sol\":1098:1182  function paused() public view virtual returns (bool) {... */\n    tag_9:\n      callvalue\n      dup1\n      iszero\n      tag_52\n      jumpi\n      0x00\n      dup1\n      revert\n    tag_52:\n      pop\n      tag_53\n      tag_54\n      jump\t// in\n    tag_53:\n      mload(0x40)\n      tag_55\n      swap2\n      swap1\n      tag_56\n      jump\t// in\n    tag_55:\n      mload(0x40)\n      dup1\n      swap2\n      sub\n      swap1\n      return\n        /* \"contracts/BuyingBoxNFT.sol\":1201:1320  function editAmountBoxSold(uint256 _amountBox) public onlyOwner nonReentrant{... */\n    tag_10:\n      callvalue\n      dup1\n      iszero\n      tag_57\n      jumpi\n      0x00\n      dup1\n      revert\n    tag_57:\n      pop\n      tag_58\n      0x04\n      dup1\n      calldatasize\n      sub\n      dup2\n      add\n      swap1\n      tag_59\n      swap2\n      swap1\n      tag_45\n      jump\t// in\n    tag_59:\n      tag_60\n      jump\t// in\n    tag_58:\n      stop\n        /* \"@openzeppelin/contracts/access/Ownable.sol\":1668:1769  function renounceOwnership() public virtual onlyOwner {... */\n    tag_11:\n      callvalue\n      dup1\n      iszero\n      tag_61\n      jumpi\n      0x00\n      dup1\n      revert\n    tag_61:\n      pop\n      tag_62\n      tag_63\n      jump\t// in\n    tag_62:\n      stop\n        /* \"contracts/BuyingBoxNFT.sol\":628:652  uint256 public startTime */\n    tag_12:\n      callvalue\n      dup1\n      iszero\n      tag_64\n      jumpi\n      0x00\n      dup1\n      revert\n    tag_64:\n      pop\n      tag_65\n      tag_66\n      jump\t// in\n    tag_65:\n      mload(0x40)\n      tag_67\n      swap2\n      swap1\n      tag_34\n      jump\t// in\n    tag_67:\n      mload(0x40)\n      dup1\n      swap2\n      sub\n      swap1\n      return\n        /* \"contracts/lib/Withdrawable.sol\":194:458  function withdrawNative(uint256 _amount) public onlyOwner {... */\n    tag_13:\n      callvalue\n      dup1\n      iszero\n      tag_68\n      jumpi\n      0x00\n      dup1\n      revert\n    tag_68:\n      pop\n      tag_69\n      0x04\n      dup1\n      calldatasize\n      sub\n      dup2\n      add\n      swap1\n      tag_70\n      swap2\n      swap1\n      tag_45\n      jump\t// in\n    tag_70:\n      tag_71\n      jump\t// in\n    tag_69:\n      stop\n        /* \"contracts/BuyingBoxNFT.sol\":1326:1385  function pause() public onlyOwner {... */\n    tag_14:\n      callvalue\n      dup1\n      iszero\n      tag_72\n      jumpi\n      0x00\n      dup1\n      revert\n    tag_72:\n      pop\n      tag_73\n      tag_74\n      jump\t// in\n    tag_73:\n      stop\n        /* \"@openzeppelin/contracts/access/Ownable.sol\":1036:1121  function owner() public view virtual returns (address) {... */\n    tag_15:\n      callvalue\n      dup1\n      iszero\n      tag_75\n      jumpi\n      0x00\n      dup1\n      revert\n    tag_75:\n      pop\n      tag_76\n      tag_77\n      jump\t// in\n    tag_76:\n      mload(0x40)\n      tag_78\n      swap2\n      swap1\n      tag_79\n      jump\t// in\n    tag_78:\n      mload(0x40)\n      dup1\n      swap2\n      sub\n      swap1\n      return\n        /* \"contracts/lib/Withdrawable.sol\":464:750  function withdrawToken(IERC20 _token, uint256 _amount) public onlyOwner {... */\n    tag_16:\n      callvalue\n      dup1\n      iszero\n      tag_80\n      jumpi\n      0x00\n      dup1\n      revert\n    tag_80:\n      pop\n      tag_81\n      0x04\n      dup1\n      calldatasize\n      sub\n      dup2\n      add\n      swap1\n      tag_82\n      swap2\n      swap1\n      tag_83\n      jump\t// in\n    tag_82:\n      tag_84\n      jump\t// in\n    tag_81:\n      stop\n        /* \"@openzeppelin/contracts/access/Ownable.sol\":1918:2116  function transferOwnership(address newOwner) public virtual onlyOwner {... */\n    tag_17:\n      callvalue\n      dup1\n      iszero\n      tag_85\n      jumpi\n      0x00\n      dup1\n      revert\n    tag_85:\n      pop\n      tag_86\n      0x04\n      dup1\n      calldatasize\n      sub\n      dup2\n      add\n      swap1\n      tag_87\n      swap2\n      swap1\n      tag_88\n      jump\t// in\n    tag_87:\n      tag_89\n      jump\t// in\n    tag_86:\n      stop\n        /* \"contracts/BuyingBoxNFT.sol\":575:595  address public token */\n    tag_18:\n      callvalue\n      dup1\n      iszero\n      tag_90\n      jumpi\n      0x00\n      dup1\n      revert\n    tag_90:\n      pop\n      tag_91\n      tag_92\n      jump\t// in\n    tag_91:\n      mload(0x40)\n      tag_93\n      swap2\n      swap1\n      tag_79\n      jump\t// in\n    tag_93:\n      mload(0x40)\n      dup1\n      swap2\n      sub\n      swap1\n      return\n        /* \"contracts/BuyingBoxNFT.sol\":601:622  address public BoxNFT */\n    tag_19:\n      callvalue\n      dup1\n      iszero\n      tag_94\n      jumpi\n      0x00\n      dup1\n      revert\n    tag_94:\n      pop\n      tag_95\n      tag_96\n      jump\t// in\n    tag_95:\n      mload(0x40)\n      tag_97\n      swap2\n      swap1\n      tag_79\n      jump\t// in\n    tag_97:\n      mload(0x40)\n      dup1\n      swap2\n      sub\n      swap1\n      return\n        /* \"contracts/lib/Withdrawable.sol\":771:961  function withdrawNativeAll() public onlyOwner {... */\n    tag_29:\n        /* \"@openzeppelin/contracts/access/Ownable.sol\":1259:1271  _msgSender() */\n      tag_99\n        /* \"@openzeppelin/contracts/access/Ownable.sol\":1259:1269  _msgSender */\n      tag_100\n        /* \"@openzeppelin/contracts/access/Ownable.sol\":1259:1271  _msgSender() */\n      jump\t// in\n    tag_99:\n        /* \"@openzeppelin/contracts/access/Ownable.sol\":1248:1271  owner() == _msgSender() */\n      0xffffffffffffffffffffffffffffffffffffffff\n      and\n        /* \"@openzeppelin/contracts/access/Ownable.sol\":1248:1255  owner() */\n      tag_101\n        /* \"@openzeppelin/contracts/access/Ownable.sol\":1248:1253  owner */\n      tag_77\n        /* \"@openzeppelin/contracts/access/Ownable.sol\":1248:1255  owner() */\n      jump\t// in\n    tag_101:\n        /* \"@openzeppelin/contracts/access/Ownable.sol\":1248:1271  owner() == _msgSender() */\n      0xffffffffffffffffffffffffffffffffffffffff\n      and\n      eq\n        /* \"@openzeppelin/contracts/access/Ownable.sol\":1240:1308  require(owner() == _msgSender(), \"Ownable: caller is not the owner\") */\n      tag_102\n      jumpi\n      mload(0x40)\n      0x08c379a000000000000000000000000000000000000000000000000000000000\n      dup2\n      mstore\n      0x04\n      add\n      tag_103\n      swap1\n      tag_104\n      jump\t// in\n    tag_103:\n      mload(0x40)\n      dup1\n      swap2\n      sub\n      swap1\n      revert\n    tag_102:\n        /* \"contracts/lib/Withdrawable.sol\":859:860  0 */\n      0x00\n        /* \"contracts/lib/Withdrawable.sol\":835:856  address(this).balance */\n      selfbalance\n        /* \"contracts/lib/Withdrawable.sol\":835:860  address(this).balance > 0 */\n      gt\n        /* \"contracts/lib/Withdrawable.sol\":827:893  require(address(this).balance > 0 ,\"balanceOfNative:  is equal 0\") */\n      tag_106\n      jumpi\n      mload(0x40)\n      0x08c379a000000000000000000000000000000000000000000000000000000000\n      dup2\n      mstore\n      0x04\n      add\n      tag_107\n      swap1\n      tag_108\n      jump\t// in\n    tag_107:\n      mload(0x40)\n      dup1\n      swap2\n      sub\n      swap1\n      revert\n    tag_106:\n        /* \"contracts/lib/Withdrawable.sol\":911:921  msg.sender */\n      caller\n        /* \"contracts/lib/Withdrawable.sol\":903:931  payable(msg.sender).transfer */\n      0xffffffffffffffffffffffffffffffffffffffff\n      and\n        /* \"contracts/lib/Withdrawable.sol\":903:954  payable(msg.sender).transfer(address(this).balance) */\n      0x08fc\n        /* \"contracts/lib/Withdrawable.sol\":932:953  address(this).balance */\n      selfbalance\n        /* \"contracts/lib/Withdrawable.sol\":903:954  payable(msg.sender).transfer(address(this).balance) */\n      swap1\n      dup2\n      iszero\n      mul\n      swap1\n      mload(0x40)\n      0x00\n      mload(0x40)\n      dup1\n      dup4\n      sub\n      dup2\n      dup6\n      dup9\n      dup9\n      call\n      swap4\n      pop\n      pop\n      pop\n      pop\n      iszero\n      dup1\n      iszero\n      tag_110\n      jumpi\n      returndatasize\n      0x00\n      dup1\n      returndatacopy\n      revert(0x00, returndatasize)\n    tag_110:\n      pop\n        /* \"contracts/lib/Withdrawable.sol\":771:961  function withdrawNativeAll() public onlyOwner {... */\n      jump\t// out\n        /* \"contracts/BuyingBoxNFT.sol\":658:686  uint256 public amountBoxSold */\n    tag_32:\n      sload(0x05)\n      dup2\n      jump\t// out\n        /* \"contracts/BuyingBoxNFT.sol\":985:1016  uint256 public totalSellBox = 0 */\n    tag_37:\n      sload(0x09)\n      dup2\n      jump\t// out\n        /* \"contracts/BuyingBoxNFT.sol\":1391:1454  function unpause() public onlyOwner {... */\n    tag_41:\n        /* \"@openzeppelin/contracts/access/Ownable.sol\":1259:1271  _msgSender() */\n      tag_112\n        /* \"@openzeppelin/contracts/access/Ownable.sol\":1259:1269  _msgSender */\n      tag_100\n        /* \"@openzeppelin/contracts/access/Ownable.sol\":1259:1271  _msgSender() */\n      jump\t// in\n    tag_112:\n        /* \"@openzeppelin/contracts/access/Ownable.sol\":1248:1271  owner() == _msgSender() */\n      0xffffffffffffffffffffffffffffffffffffffff\n      and\n        /* \"@openzeppelin/contracts/access/Ownable.sol\":1248:1255  owner() */\n      tag_113\n        /* \"@openzeppelin/contracts/access/Ownable.sol\":1248:1253  owner */\n      tag_77\n        /* \"@openzeppelin/contracts/access/Ownable.sol\":1248:1255  owner() */\n      jump\t// in\n    tag_113:\n        /* \"@openzeppelin/contracts/access/Ownable.sol\":1248:1271  owner() == _msgSender() */\n      0xffffffffffffffffffffffffffffffffffffffff\n      and\n      eq\n        /* \"@openzeppelin/contracts/access/Ownable.sol\":1240:1308  require(owner() == _msgSender(), \"Ownable: caller is not the owner\") */\n      tag_114\n      jumpi\n      mload(0x40)\n      0x08c379a000000000000000000000000000000000000000000000000000000000\n      dup2\n      mstore\n      0x04\n      add\n      tag_115\n      swap1\n      tag_104\n      jump\t// in\n    tag_115:\n      mload(0x40)\n      dup1\n      swap2\n      sub\n      swap1\n      revert\n    tag_114:\n        /* \"contracts/BuyingBoxNFT.sol\":1437:1447  _unpause() */\n      tag_117\n        /* \"contracts/BuyingBoxNFT.sol\":1437:1445  _unpause */\n      tag_118\n        /* \"contracts/BuyingBoxNFT.sol\":1437:1447  _unpause() */\n      jump\t// in\n    tag_117:\n        /* \"contracts/BuyingBoxNFT.sol\":1391:1454  function unpause() public onlyOwner {... */\n      jump\t// out\n        /* \"contracts/BuyingBoxNFT.sol\":1460:2320  function BuyBox(uint256 _amountBox) public whenNotPaused nonReentrant {... */\n    tag_46:\n        /* \"@openzeppelin/contracts/security/Pausable.sol\":1412:1420  paused() */\n      tag_120\n        /* \"@openzeppelin/contracts/security/Pausable.sol\":1412:1418  paused */\n      tag_54\n        /* \"@openzeppelin/contracts/security/Pausable.sol\":1412:1420  paused() */\n      jump\t// in\n    tag_120:\n        /* \"@openzeppelin/contracts/security/Pausable.sol\":1411:1420  !paused() */\n      iszero\n        /* \"@openzeppelin/contracts/security/Pausable.sol\":1403:1441  require(!paused(), \"Pausable: paused\") */\n      tag_121\n      jumpi\n      mload(0x40)\n      0x08c379a000000000000000000000000000000000000000000000000000000000\n      dup2\n      mstore\n      0x04\n      add\n      tag_122\n      swap1\n      tag_123\n      jump\t// in\n    tag_122:\n      mload(0x40)\n      dup1\n      swap2\n      sub\n      swap1\n      revert\n    tag_121:\n        /* \"@openzeppelin/contracts/security/ReentrancyGuard.sol\":1744:1745  2 */\n      0x02\n        /* \"@openzeppelin/contracts/security/ReentrancyGuard.sol\":2325:2332  _status */\n      sload(0x01)\n        /* \"@openzeppelin/contracts/security/ReentrancyGuard.sol\":2325:2344  _status != _ENTERED */\n      eq\n      iszero\n        /* \"@openzeppelin/contracts/security/ReentrancyGuard.sol\":2317:2380  require(_status != _ENTERED, \"ReentrancyGuard: reentrant call\") */\n      tag_125\n      jumpi\n      mload(0x40)\n      0x08c379a000000000000000000000000000000000000000000000000000000000\n      dup2\n      mstore\n      0x04\n      add\n      tag_126\n      swap1\n      tag_127\n      jump\t// in\n    tag_126:\n      mload(0x40)\n      dup1\n      swap2\n      sub\n      swap1\n      revert\n    tag_125:\n        /* \"@openzeppelin/contracts/security/ReentrancyGuard.sol\":1744:1745  2 */\n      0x02\n        /* \"@openzeppelin/contracts/security/ReentrancyGuard.sol\":2455:2462  _status */\n      0x01\n        /* \"@openzeppelin/contracts/security/ReentrancyGuard.sol\":2455:2473  _status = _ENTERED */\n      dup2\n      swap1\n      sstore\n      pop\n        /* \"contracts/BuyingBoxNFT.sol\":1561:1576  block.timestamp */\n      timestamp\n        /* \"contracts/BuyingBoxNFT.sol\":1548:1557  startTime */\n      sload(0x04)\n        /* \"contracts/BuyingBoxNFT.sol\":1548:1576  startTime <= block.timestamp */\n      gt\n      iszero\n        /* \"contracts/BuyingBoxNFT.sol\":1540:1610  require(startTime <= block.timestamp,\"This Event Not Yet Start Time\" ) */\n      tag_129\n      jumpi\n      mload(0x40)\n      0x08c379a000000000000000000000000000000000000000000000000000000000\n      dup2\n      mstore\n      0x04\n      add\n      tag_130\n      swap1\n      tag_131\n      jump\t// in\n    tag_130:\n      mload(0x40)\n      dup1\n      swap2\n      sub\n      swap1\n      revert\n    tag_129:\n        /* \"contracts/BuyingBoxNFT.sol\":1642:1655  amountBoxSold */\n      sload(0x05)\n        /* \"contracts/BuyingBoxNFT.sol\":1628:1638  _amountBox */\n      dup2\n        /* \"contracts/BuyingBoxNFT.sol\":1628:1655  _amountBox <= amountBoxSold */\n      gt\n      iszero\n        /* \"contracts/BuyingBoxNFT.sol\":1620:1701  require(_amountBox <= amountBoxSold, \"Exceeded the limit on the number of boxes\") */\n      tag_132\n      jumpi\n      mload(0x40)\n      0x08c379a000000000000000000000000000000000000000000000000000000000\n      dup2\n      mstore\n      0x04\n      add\n      tag_133\n      swap1\n      tag_134\n      jump\t// in\n    tag_133:\n      mload(0x40)\n      dup1\n      swap2\n      sub\n      swap1\n      revert\n    tag_132:\n        /* \"contracts/BuyingBoxNFT.sol\":1732:1733  0 */\n      0x00\n        /* \"contracts/BuyingBoxNFT.sol\":1719:1729  _amountBox */\n      dup2\n        /* \"contracts/BuyingBoxNFT.sol\":1719:1733  _amountBox > 0 */\n      gt\n        /* \"contracts/BuyingBoxNFT.sol\":1711:1777  require(_amountBox > 0, \"Number of box have to be greater than 0\") */\n      tag_135\n      jumpi\n      mload(0x40)\n      0x08c379a000000000000000000000000000000000000000000000000000000000\n      dup2\n      mstore\n      0x04\n      add\n      tag_136\n      swap1\n      tag_137\n      jump\t// in\n    tag_136:\n      mload(0x40)\n      dup1\n      swap2\n      sub\n      swap1\n      revert\n    tag_135:\n        /* \"contracts/BuyingBoxNFT.sol\":1787:1815  uint256 _amountTokenToBuyBox */\n      0x00\n        /* \"contracts/BuyingBoxNFT.sol\":1818:1838  _calcCurPriceToken() */\n      tag_138\n        /* \"contracts/BuyingBoxNFT.sol\":1818:1836  _calcCurPriceToken */\n      tag_139\n        /* \"contracts/BuyingBoxNFT.sol\":1818:1838  _calcCurPriceToken() */\n      jump\t// in\n    tag_138:\n        /* \"contracts/BuyingBoxNFT.sol\":1787:1838  uint256 _amountTokenToBuyBox = _calcCurPriceToken() */\n      swap1\n      pop\n        /* \"contracts/BuyingBoxNFT.sol\":1895:1905  _amountBox */\n      dup2\n        /* \"contracts/BuyingBoxNFT.sol\":1872:1892  _amountTokenToBuyBox */\n      dup2\n        /* \"contracts/BuyingBoxNFT.sol\":1872:1905  _amountTokenToBuyBox * _amountBox */\n      tag_140\n      swap2\n      swap1\n      tag_141\n      jump\t// in\n    tag_140:\n        /* \"contracts/BuyingBoxNFT.sol\":1849:1905  _amountTokenToBuyBox = _amountTokenToBuyBox * _amountBox */\n      swap1\n      pop\n        /* \"contracts/BuyingBoxNFT.sol\":1931:1936  token */\n      0x02\n      0x00\n      swap1\n      sload\n      swap1\n      0x0100\n      exp\n      swap1\n      div\n      0xffffffffffffffffffffffffffffffffffffffff\n      and\n        /* \"contracts/BuyingBoxNFT.sol\":1924:1950  IERC20(token).transferFrom */\n      0xffffffffffffffffffffffffffffffffffffffff\n      and\n      0x23b872dd\n        /* \"contracts/BuyingBoxNFT.sol\":1951:1961  msg.sender */\n      caller\n        /* \"contracts/BuyingBoxNFT.sol\":1971:1975  this */\n      address\n        /* \"contracts/BuyingBoxNFT.sol\":1978:1998  _amountTokenToBuyBox */\n      dup5\n        /* \"contracts/BuyingBoxNFT.sol\":1924:1999  IERC20(token).transferFrom(msg.sender, address(this), _amountTokenToBuyBox) */\n      mload(0x40)\n      dup5\n      0xffffffff\n      and\n      0xe0\n      shl\n      dup2\n      mstore\n      0x04\n      add\n      tag_142\n      swap4\n      swap3\n      swap2\n      swap1\n      tag_143\n      jump\t// in\n    tag_142:\n      0x20\n      mload(0x40)\n      dup1\n      dup4\n      sub\n      dup2\n      0x00\n      dup8\n      dup1\n      extcodesize\n      iszero\n      dup1\n      iszero\n      tag_144\n      jumpi\n      0x00\n      dup1\n      revert\n    tag_144:\n      pop\n      gas\n      call\n      iszero\n      dup1\n      iszero\n      tag_146\n      jumpi\n      returndatasize\n      0x00\n      dup1\n      returndatacopy\n      revert(0x00, returndatasize)\n    tag_146:\n      pop\n      pop\n      pop\n      pop\n      mload(0x40)\n      returndatasize\n      not(0x1f)\n      0x1f\n      dup3\n      add\n      and\n      dup3\n      add\n      dup1\n      0x40\n      mstore\n      pop\n      dup2\n      add\n      swap1\n      tag_147\n      swap2\n      swap1\n      tag_148\n      jump\t// in\n    tag_147:\n      pop\n        /* \"contracts/BuyingBoxNFT.sol\":2015:2024  uint256 i */\n      0x00\n        /* \"contracts/BuyingBoxNFT.sol\":2010:2278  for (uint256 i = 0; i < _amountBox; i++) ... */\n    tag_149:\n        /* \"contracts/BuyingBoxNFT.sol\":2034:2044  _amountBox */\n      dup3\n        /* \"contracts/BuyingBoxNFT.sol\":2030:2031  i */\n      dup2\n        /* \"contracts/BuyingBoxNFT.sol\":2030:2044  i < _amountBox */\n      lt\n        /* \"contracts/BuyingBoxNFT.sol\":2010:2278  for (uint256 i = 0; i < _amountBox; i++) ... */\n      iszero\n      tag_150\n      jumpi\n        /* \"contracts/BuyingBoxNFT.sol\":2074:2090  uint256 _tokenId */\n      0x00\n        /* \"contracts/BuyingBoxNFT.sol\":2111:2117  BoxNFT */\n      0x03\n      0x00\n      swap1\n      sload\n      swap1\n      0x0100\n      exp\n      swap1\n      div\n      0xffffffffffffffffffffffffffffffffffffffff\n      and\n        /* \"contracts/BuyingBoxNFT.sol\":2093:2138  IERC721Enumerable(BoxNFT).tokenOfOwnerByIndex */\n      0xffffffffffffffffffffffffffffffffffffffff\n      and\n      0x2f745c59\n        /* \"contracts/BuyingBoxNFT.sol\":2147:2151  this */\n      address\n        /* \"contracts/BuyingBoxNFT.sol\":2154:2155  0 */\n      0x00\n        /* \"contracts/BuyingBoxNFT.sol\":2093:2156  IERC721Enumerable(BoxNFT).tokenOfOwnerByIndex(address(this), 0) */\n      mload(0x40)\n      dup4\n      0xffffffff\n      and\n      0xe0\n      shl\n      dup2\n      mstore\n      0x04\n      add\n      tag_152\n      swap3\n      swap2\n      swap1\n      tag_153\n      jump\t// in\n    tag_152:\n      0x20\n      mload(0x40)\n      dup1\n      dup4\n      sub\n      dup2\n      dup7\n      dup1\n      extcodesize\n      iszero\n      dup1\n      iszero\n      tag_154\n      jumpi\n      0x00\n      dup1\n      revert\n    tag_154:\n      pop\n      gas\n      staticcall\n      iszero\n      dup1\n      iszero\n      tag_156\n      jumpi\n      returndatasize\n      0x00\n      dup1\n      returndatacopy\n      revert(0x00, returndatasize)\n    tag_156:\n      pop\n      pop\n      pop\n      pop\n      mload(0x40)\n      returndatasize\n      not(0x1f)\n      0x1f\n      dup3\n      add\n      and\n      dup3\n      add\n      dup1\n      0x40\n      mstore\n      pop\n      dup2\n      add\n      swap1\n      tag_157\n      swap2\n      swap1\n      tag_158\n      jump\t// in\n    tag_157:\n        /* \"contracts/BuyingBoxNFT.sol\":2074:2156  uint256 _tokenId = IERC721Enumerable(BoxNFT).tokenOfOwnerByIndex(address(this), 0) */\n      swap1\n      pop\n        /* \"contracts/BuyingBoxNFT.sol\":2178:2184  BoxNFT */\n      0x03\n      0x00\n      swap1\n      sload\n      swap1\n      0x0100\n      exp\n      swap1\n      div\n      0xffffffffffffffffffffffffffffffffffffffff\n      and\n        /* \"contracts/BuyingBoxNFT.sol\":2170:2202  IERC721(BoxNFT).safeTransferFrom */\n      0xffffffffffffffffffffffffffffffffffffffff\n      and\n      0x42842e0e\n        /* \"contracts/BuyingBoxNFT.sol\":2211:2215  this */\n      address\n        /* \"contracts/BuyingBoxNFT.sol\":2218:2228  msg.sender */\n      caller\n        /* \"contracts/BuyingBoxNFT.sol\":2230:2238  _tokenId */\n      dup5\n        /* \"contracts/BuyingBoxNFT.sol\":2170:2239  IERC721(BoxNFT).safeTransferFrom(address(this), msg.sender, _tokenId) */\n      mload(0x40)\n      dup5\n      0xffffffff\n      and\n      0xe0\n      shl\n      dup2\n      mstore\n      0x04\n      add\n      tag_159\n      swap4\n      swap3\n      swap2\n      swap1\n      tag_143\n      jump\t// in\n    tag_159:\n      0x00\n      mload(0x40)\n      dup1\n      dup4\n      sub\n      dup2\n      0x00\n      dup8\n      dup1\n      extcodesize\n      iszero\n      dup1\n      iszero\n      tag_160\n      jumpi\n      0x00\n      dup1\n      revert\n    tag_160:\n      pop\n      gas\n      call\n      iszero\n      dup1\n      iszero\n      tag_162\n      jumpi\n      returndatasize\n      0x00\n      dup1\n      returndatacopy\n      revert(0x00, returndatasize)\n    tag_162:\n      pop\n      pop\n      pop\n      pop\n        /* \"contracts/BuyingBoxNFT.sol\":2253:2265  totalSellBox */\n      0x09\n      0x00\n        /* \"contracts/BuyingBoxNFT.sol\":2253:2267  totalSellBox++ */\n      dup2\n      sload\n      dup1\n      swap3\n      swap2\n      swap1\n      tag_163\n      swap1\n      tag_164\n      jump\t// in\n    tag_163:\n      swap2\n      swap1\n      pop\n      sstore\n      pop\n        /* \"contracts/BuyingBoxNFT.sol\":2060:2278  {... */\n      pop\n        /* \"contracts/BuyingBoxNFT.sol\":2046:2049  i++ */\n      dup1\n      dup1\n      tag_165\n      swap1\n      tag_164\n      jump\t// in\n    tag_165:\n      swap2\n      pop\n      pop\n        /* \"contracts/BuyingBoxNFT.sol\":2010:2278  for (uint256 i = 0; i < _amountBox; i++) ... */\n      jump(tag_149)\n    tag_150:\n      pop\n        /* \"contracts/BuyingBoxNFT.sol\":2302:2312  msg.sender */\n      caller\n        /* \"contracts/BuyingBoxNFT.sol\":2292:2313  BuyingBox(msg.sender) */\n      0xffffffffffffffffffffffffffffffffffffffff\n      and\n      0xe808d608ada169de9a8c0d30db14f08fb8a79dac772d4ccca3e31ec966935599\n      mload(0x40)\n      mload(0x40)\n      dup1\n      swap2\n      sub\n      swap1\n      log2\n        /* \"contracts/BuyingBoxNFT.sol\":1530:2320  {... */\n      pop\n        /* \"@openzeppelin/contracts/security/ReentrancyGuard.sol\":1701:1702  1 */\n      0x01\n        /* \"@openzeppelin/contracts/security/ReentrancyGuard.sol\":2628:2635  _status */\n      dup1\n        /* \"@openzeppelin/contracts/security/ReentrancyGuard.sol\":2628:2650  _status = _NOT_ENTERED */\n      dup2\n      swap1\n      sstore\n      pop\n        /* \"contracts/BuyingBoxNFT.sol\":1460:2320  function BuyBox(uint256 _amountBox) public whenNotPaused nonReentrant {... */\n      pop\n      jump\t// out\n        /* \"contracts/lib/Withdrawable.sol\":967:1188  function withdrawTokenAll(IERC20 _token) public onlyOwner {... */\n    tag_51:\n        /* \"@openzeppelin/contracts/access/Ownable.sol\":1259:1271  _msgSender() */\n      tag_167\n        /* \"@openzeppelin/contracts/access/Ownable.sol\":1259:1269  _msgSender */\n      tag_100\n        /* \"@openzeppelin/contracts/access/Ownable.sol\":1259:1271  _msgSender() */\n      jump\t// in\n    tag_167:\n        /* \"@openzeppelin/contracts/access/Ownable.sol\":1248:1271  owner() == _msgSender() */\n      0xffffffffffffffffffffffffffffffffffffffff\n      and\n        /* \"@openzeppelin/contracts/access/Ownable.sol\":1248:1255  owner() */\n      tag_168\n        /* \"@openzeppelin/contracts/access/Ownable.sol\":1248:1253  owner */\n      tag_77\n        /* \"@openzeppelin/contracts/access/Ownable.sol\":1248:1255  owner() */\n      jump\t// in\n    tag_168:\n        /* \"@openzeppelin/contracts/access/Ownable.sol\":1248:1271  owner() == _msgSender() */\n      0xffffffffffffffffffffffffffffffffffffffff\n      and\n      eq\n        /* \"@openzeppelin/contracts/access/Ownable.sol\":1240:1308  require(owner() == _msgSender(), \"Ownable: caller is not the owner\") */\n      tag_169\n      jumpi\n      mload(0x40)\n      0x08c379a000000000000000000000000000000000000000000000000000000000\n      dup2\n      mstore\n      0x04\n      add\n      tag_170\n      swap1\n      tag_104\n      jump\t// in\n    tag_170:\n      mload(0x40)\n      dup1\n      swap2\n      sub\n      swap1\n      revert\n    tag_169:\n        /* \"contracts/lib/Withdrawable.sol\":1077:1078  0 */\n      0x00\n        /* \"contracts/lib/Withdrawable.sol\":1043:1049  _token */\n      dup2\n        /* \"contracts/lib/Withdrawable.sol\":1043:1059  _token.balanceOf */\n      0xffffffffffffffffffffffffffffffffffffffff\n      and\n      0x70a08231\n        /* \"contracts/lib/Withdrawable.sol\":1068:1072  this */\n      address\n        /* \"contracts/lib/Withdrawable.sol\":1043:1074  _token.balanceOf(address(this)) */\n      mload(0x40)\n      dup3\n      0xffffffff\n      and\n      0xe0\n      shl\n      dup2\n      mstore\n      0x04\n      add\n      tag_172\n      swap2\n      swap1\n      tag_79\n      jump\t// in\n    tag_172:\n      0x20\n      mload(0x40)\n      dup1\n      dup4\n      sub\n      dup2\n      dup7\n      dup1\n      extcodesize\n      iszero\n      dup1\n      iszero\n      tag_173\n      jumpi\n      0x00\n      dup1\n      revert\n    tag_173:\n      pop\n      gas\n      staticcall\n      iszero\n      dup1\n      iszero\n      tag_175\n      jumpi\n      returndatasize\n      0x00\n      dup1\n      returndatacopy\n      revert(0x00, returndatasize)\n    tag_175:\n      pop\n      pop\n      pop\n      pop\n      mload(0x40)\n      returndatasize\n      not(0x1f)\n      0x1f\n      dup3\n      add\n      and\n      dup3\n      add\n      dup1\n      0x40\n      mstore\n      pop\n      dup2\n      add\n      swap1\n      tag_176\n      swap2\n      swap1\n      tag_158\n      jump\t// in\n    tag_176:\n        /* \"contracts/lib/Withdrawable.sol\":1043:1078  _token.balanceOf(address(this)) > 0 */\n      gt\n        /* \"contracts/lib/Withdrawable.sol\":1035:1111  require(_token.balanceOf(address(this)) > 0 , \"balanceOfToken:  is equal 0\") */\n      tag_177\n      jumpi\n      mload(0x40)\n      0x08c379a000000000000000000000000000000000000000000000000000000000\n      dup2\n      mstore\n      0x04\n      add\n      tag_178\n      swap1\n      tag_179\n      jump\t// in\n    tag_178:\n      mload(0x40)\n      dup1\n      swap2\n      sub\n      swap1\n      revert\n    tag_177:\n        /* \"contracts/lib/Withdrawable.sol\":1121:1127  _token */\n      dup1\n        /* \"contracts/lib/Withdrawable.sol\":1121:1136  _token.transfer */\n      0xffffffffffffffffffffffffffffffffffffffff\n      and\n      0xa9059cbb\n        /* \"contracts/lib/Withdrawable.sol\":1137:1147  msg.sender */\n      caller\n        /* \"contracts/lib/Withdrawable.sol\":1149:1155  _token */\n      dup4\n        /* \"contracts/lib/Withdrawable.sol\":1149:1165  _token.balanceOf */\n      0xffffffffffffffffffffffffffffffffffffffff\n      and\n      0x70a08231\n        /* \"contracts/lib/Withdrawable.sol\":1174:1178  this */\n      address\n        /* \"contracts/lib/Withdrawable.sol\":1149:1180  _token.balanceOf(address(this)) */\n      mload(0x40)\n      dup3\n      0xffffffff\n      and\n      0xe0\n      shl\n      dup2\n      mstore\n      0x04\n      add\n      tag_180\n      swap2\n      swap1\n      tag_79\n      jump\t// in\n    tag_180:\n      0x20\n      mload(0x40)\n      dup1\n      dup4\n      sub\n      dup2\n      dup7\n      dup1\n      extcodesize\n      iszero\n      dup1\n      iszero\n      tag_181\n      jumpi\n      0x00\n      dup1\n      revert\n    tag_181:\n      pop\n      gas\n      staticcall\n      iszero\n      dup1\n      iszero\n      tag_183\n      jumpi\n      returndatasize\n      0x00\n      dup1\n      returndatacopy\n      revert(0x00, returndatasize)\n    tag_183:\n      pop\n      pop\n      pop\n      pop\n      mload(0x40)\n      returndatasize\n      not(0x1f)\n      0x1f\n      dup3\n      add\n      and\n      dup3\n      add\n      dup1\n      0x40\n      mstore\n      pop\n      dup2\n      add\n      swap1\n      tag_184\n      swap2\n      swap1\n      tag_158\n      jump\t// in\n    tag_184:\n        /* \"contracts/lib/Withdrawable.sol\":1121:1181  _token.transfer(msg.sender, _token.balanceOf(address(this))) */\n      mload(0x40)\n      dup4\n      0xffffffff\n      and\n      0xe0\n      shl\n      dup2\n      mstore\n      0x04\n      add\n      tag_185\n      swap3\n      swap2\n      swap1\n      tag_26\n      jump\t// in\n    tag_185:\n      0x20\n      mload(0x40)\n      dup1\n      dup4\n      sub\n      dup2\n      0x00\n      dup8\n      dup1\n      extcodesize\n      iszero\n      dup1\n      iszero\n      tag_186\n      jumpi\n      0x00\n      dup1\n      revert\n    tag_186:\n      pop\n      gas\n      call\n      iszero\n      dup1\n      iszero\n      tag_188\n      jumpi\n      returndatasize\n      0x00\n      dup1\n      returndatacopy\n      revert(0x00, returndatasize)\n    tag_188:\n      pop\n      pop\n      pop\n      pop\n      mload(0x40)\n      returndatasize\n      not(0x1f)\n      0x1f\n      dup3\n      add\n      and\n      dup3\n      add\n      dup1\n      0x40\n      mstore\n      pop\n      dup2\n      add\n      swap1\n      tag_189\n      swap2\n      swap1\n      tag_148\n      jump\t// in\n    tag_189:\n      pop\n        /* \"contracts/lib/Withdrawable.sol\":967:1188  function withdrawTokenAll(IERC20 _token) public onlyOwner {... */\n      pop\n      jump\t// out\n        /* \"@openzeppelin/contracts/security/Pausable.sol\":1098:1182  function paused() public view virtual returns (bool) {... */\n    tag_54:\n        /* \"@openzeppelin/contracts/security/Pausable.sol\":1145:1149  bool */\n      0x00\n        /* \"@openzeppelin/contracts/security/Pausable.sol\":1168:1175  _paused */\n      dup1\n      0x00\n      swap1\n      sload\n      swap1\n      0x0100\n      exp\n      swap1\n      div\n      0xff\n      and\n        /* \"@openzeppelin/contracts/security/Pausable.sol\":1161:1175  return _paused */\n      swap1\n      pop\n        /* \"@openzeppelin/contracts/security/Pausable.sol\":1098:1182  function paused() public view virtual returns (bool) {... */\n      swap1\n      jump\t// out\n        /* \"contracts/BuyingBoxNFT.sol\":1201:1320  function editAmountBoxSold(uint256 _amountBox) public onlyOwner nonReentrant{... */\n    tag_60:\n        /* \"@openzeppelin/contracts/access/Ownable.sol\":1259:1271  _msgSender() */\n      tag_192\n        /* \"@openzeppelin/contracts/access/Ownable.sol\":1259:1269  _msgSender */\n      tag_100\n        /* \"@openzeppelin/contracts/access/Ownable.sol\":1259:1271  _msgSender() */\n      jump\t// in\n    tag_192:\n        /* \"@openzeppelin/contracts/access/Ownable.sol\":1248:1271  owner() == _msgSender() */\n      0xffffffffffffffffffffffffffffffffffffffff\n      and\n        /* \"@openzeppelin/contracts/access/Ownable.sol\":1248:1255  owner() */\n      tag_193\n        /* \"@openzeppelin/contracts/access/Ownable.sol\":1248:1253  owner */\n      tag_77\n        /* \"@openzeppelin/contracts/access/Ownable.sol\":1248:1255  owner() */\n      jump\t// in\n    tag_193:\n        /* \"@openzeppelin/contracts/access/Ownable.sol\":1248:1271  owner() == _msgSender() */\n      0xffffffffffffffffffffffffffffffffffffffff\n      and\n      eq\n        /* \"@openzeppelin/contracts/access/Ownable.sol\":1240:1308  require(owner() == _msgSender(), \"Ownable: caller is not the owner\") */\n      tag_194\n      jumpi\n      mload(0x40)\n      0x08c379a000000000000000000000000000000000000000000000000000000000\n      dup2\n      mstore\n      0x04\n      add\n      tag_195\n      swap1\n      tag_104\n      jump\t// in\n    tag_195:\n      mload(0x40)\n      dup1\n      swap2\n      sub\n      swap1\n      revert\n    tag_194:\n        /* \"@openzeppelin/contracts/security/ReentrancyGuard.sol\":1744:1745  2 */\n      0x02\n        /* \"@openzeppelin/contracts/security/ReentrancyGuard.sol\":2325:2332  _status */\n      sload(0x01)\n        /* \"@openzeppelin/contracts/security/ReentrancyGuard.sol\":2325:2344  _status != _ENTERED */\n      eq\n      iszero\n        /* \"@openzeppelin/contracts/security/ReentrancyGuard.sol\":2317:2380  require(_status != _ENTERED, \"ReentrancyGuard: reentrant call\") */\n      tag_197\n      jumpi\n      mload(0x40)\n      0x08c379a000000000000000000000000000000000000000000000000000000000\n      dup2\n      mstore\n      0x04\n      add\n      tag_198\n      swap1\n      tag_127\n      jump\t// in\n    tag_198:\n      mload(0x40)\n      dup1\n      swap2\n      sub\n      swap1\n      revert\n    tag_197:\n        /* \"@openzeppelin/contracts/security/ReentrancyGuard.sol\":1744:1745  2 */\n      0x02\n        /* \"@openzeppelin/contracts/security/ReentrancyGuard.sol\":2455:2462  _status */\n      0x01\n        /* \"@openzeppelin/contracts/security/ReentrancyGuard.sol\":2455:2473  _status = _ENTERED */\n      dup2\n      swap1\n      sstore\n      pop\n        /* \"contracts/BuyingBoxNFT.sol\":1303:1313  _amountBox */\n      dup1\n        /* \"contracts/BuyingBoxNFT.sol\":1287:1300  amountBoxSold */\n      0x05\n        /* \"contracts/BuyingBoxNFT.sol\":1287:1313  amountBoxSold = _amountBox */\n      dup2\n      swap1\n      sstore\n      pop\n        /* \"@openzeppelin/contracts/security/ReentrancyGuard.sol\":1701:1702  1 */\n      0x01\n        /* \"@openzeppelin/contracts/security/ReentrancyGuard.sol\":2628:2635  _status */\n      dup1\n        /* \"@openzeppelin/contracts/security/ReentrancyGuard.sol\":2628:2650  _status = _NOT_ENTERED */\n      dup2\n      swap1\n      sstore\n      pop\n        /* \"contracts/BuyingBoxNFT.sol\":1201:1320  function editAmountBoxSold(uint256 _amountBox) public onlyOwner nonReentrant{... */\n      pop\n      jump\t// out\n        /* \"@openzeppelin/contracts/access/Ownable.sol\":1668:1769  function renounceOwnership() public virtual onlyOwner {... */\n    tag_63:\n        /* \"@openzeppelin/contracts/access/Ownable.sol\":1259:1271  _msgSender() */\n      tag_201\n        /* \"@openzeppelin/contracts/access/Ownable.sol\":1259:1269  _msgSender */\n      tag_100\n        /* \"@openzeppelin/contracts/access/Ownable.sol\":1259:1271  _msgSender() */\n      jump\t// in\n    tag_201:\n        /* \"@openzeppelin/contracts/access/Ownable.sol\":1248:1271  owner() == _msgSender() */\n      0xffffffffffffffffffffffffffffffffffffffff\n      and\n        /* \"@openzeppelin/contracts/access/Ownable.sol\":1248:1255  owner() */\n      tag_202\n        /* \"@openzeppelin/contracts/access/Ownable.sol\":1248:1253  owner */\n      tag_77\n        /* \"@openzeppelin/contracts/access/Ownable.sol\":1248:1255  owner() */\n      jump\t// in\n    tag_202:\n        /* \"@openzeppelin/contracts/access/Ownable.sol\":1248:1271  owner() == _msgSender() */\n      0xffffffffffffffffffffffffffffffffffffffff\n      and\n      eq\n        /* \"@openzeppelin/contracts/access/Ownable.sol\":1240:1308  require(owner() == _msgSender(), \"Ownable: caller is not the owner\") */\n      tag_203\n      jumpi\n      mload(0x40)\n      0x08c379a000000000000000000000000000000000000000000000000000000000\n      dup2\n      mstore\n      0x04\n      add\n      tag_204\n      swap1\n      tag_104\n      jump\t// in\n    tag_204:\n      mload(0x40)\n      dup1\n      swap2\n      sub\n      swap1\n      revert\n    tag_203:\n        /* \"@openzeppelin/contracts/access/Ownable.sol\":1732:1762  _transferOwnership(address(0)) */\n      tag_206\n        /* \"@openzeppelin/contracts/access/Ownable.sol\":1759:1760  0 */\n      0x00\n        /* \"@openzeppelin/contracts/access/Ownable.sol\":1732:1750  _transferOwnership */\n      tag_207\n        /* \"@openzeppelin/contracts/access/Ownable.sol\":1732:1762  _transferOwnership(address(0)) */\n      jump\t// in\n    tag_206:\n        /* \"@openzeppelin/contracts/access/Ownable.sol\":1668:1769  function renounceOwnership() public virtual onlyOwner {... */\n      jump\t// out\n        /* \"contracts/BuyingBoxNFT.sol\":628:652  uint256 public startTime */\n    tag_66:\n      sload(0x04)\n      dup2\n      jump\t// out\n        /* \"contracts/lib/Withdrawable.sol\":194:458  function withdrawNative(uint256 _amount) public onlyOwner {... */\n    tag_71:\n        /* \"@openzeppelin/contracts/access/Ownable.sol\":1259:1271  _msgSender() */\n      tag_209\n        /* \"@openzeppelin/contracts/access/Ownable.sol\":1259:1269  _msgSender */\n      tag_100\n        /* \"@openzeppelin/contracts/access/Ownable.sol\":1259:1271  _msgSender() */\n      jump\t// in\n    tag_209:\n        /* \"@openzeppelin/contracts/access/Ownable.sol\":1248:1271  owner() == _msgSender() */\n      0xffffffffffffffffffffffffffffffffffffffff\n      and\n        /* \"@openzeppelin/contracts/access/Ownable.sol\":1248:1255  owner() */\n      tag_210\n        /* \"@openzeppelin/contracts/access/Ownable.sol\":1248:1253  owner */\n      tag_77\n        /* \"@openzeppelin/contracts/access/Ownable.sol\":1248:1255  owner() */\n      jump\t// in\n    tag_210:\n        /* \"@openzeppelin/contracts/access/Ownable.sol\":1248:1271  owner() == _msgSender() */\n      0xffffffffffffffffffffffffffffffffffffffff\n      and\n      eq\n        /* \"@openzeppelin/contracts/access/Ownable.sol\":1240:1308  require(owner() == _msgSender(), \"Ownable: caller is not the owner\") */\n      tag_211\n      jumpi\n      mload(0x40)\n      0x08c379a000000000000000000000000000000000000000000000000000000000\n      dup2\n      mstore\n      0x04\n      add\n      tag_212\n      swap1\n      tag_104\n      jump\t// in\n    tag_212:\n      mload(0x40)\n      dup1\n      swap2\n      sub\n      swap1\n      revert\n    tag_211:\n        /* \"contracts/lib/Withdrawable.sol\":280:281  0 */\n      0x00\n        /* \"contracts/lib/Withdrawable.sol\":270:277  _amount */\n      dup2\n        /* \"contracts/lib/Withdrawable.sol\":270:281  _amount > 0 */\n      gt\n        /* \"contracts/lib/Withdrawable.sol\":262:317  require(_amount > 0 , \"_amount must be greater than 0\") */\n      tag_214\n      jumpi\n      mload(0x40)\n      0x08c379a000000000000000000000000000000000000000000000000000000000\n      dup2\n      mstore\n      0x04\n      add\n      tag_215\n      swap1\n      tag_216\n      jump\t// in\n    tag_215:\n      mload(0x40)\n      dup1\n      swap2\n      sub\n      swap1\n      revert\n    tag_214:\n        /* \"contracts/lib/Withdrawable.sol\":361:368  _amount */\n      dup1\n        /* \"contracts/lib/Withdrawable.sol\":336:357  address(this).balance */\n      selfbalance\n        /* \"contracts/lib/Withdrawable.sol\":336:368  address(this).balance >= _amount */\n      lt\n      iszero\n        /* \"contracts/lib/Withdrawable.sol\":327:404  require( address(this).balance >= _amount ,\"balanceOfNative:  is not enough\") */\n      tag_217\n      jumpi\n      mload(0x40)\n      0x08c379a000000000000000000000000000000000000000000000000000000000\n      dup2\n      mstore\n      0x04\n      add\n      tag_218\n      swap1\n      tag_219\n      jump\t// in\n    tag_218:\n      mload(0x40)\n      dup1\n      swap2\n      sub\n      swap1\n      revert\n    tag_217:\n        /* \"contracts/lib/Withdrawable.sol\":422:432  msg.sender */\n      caller\n        /* \"contracts/lib/Withdrawable.sol\":414:442  payable(msg.sender).transfer */\n      0xffffffffffffffffffffffffffffffffffffffff\n      and\n        /* \"contracts/lib/Withdrawable.sol\":414:451  payable(msg.sender).transfer(_amount) */\n      0x08fc\n        /* \"contracts/lib/Withdrawable.sol\":443:450  _amount */\n      dup3\n        /* \"contracts/lib/Withdrawable.sol\":414:451  payable(msg.sender).transfer(_amount) */\n      swap1\n      dup2\n      iszero\n      mul\n      swap1\n      mload(0x40)\n      0x00\n      mload(0x40)\n      dup1\n      dup4\n      sub\n      dup2\n      dup6\n      dup9\n      dup9\n      call\n      swap4\n      pop\n      pop\n      pop\n      pop\n      iszero\n      dup1\n      iszero\n      tag_221\n      jumpi\n      returndatasize\n      0x00\n      dup1\n      returndatacopy\n      revert(0x00, returndatasize)\n    tag_221:\n      pop\n        /* \"contracts/lib/Withdrawable.sol\":194:458  function withdrawNative(uint256 _amount) public onlyOwner {... */\n      pop\n      jump\t// out\n        /* \"contracts/BuyingBoxNFT.sol\":1326:1385  function pause() public onlyOwner {... */\n    tag_74:\n        /* \"@openzeppelin/contracts/access/Ownable.sol\":1259:1271  _msgSender() */\n      tag_223\n        /* \"@openzeppelin/contracts/access/Ownable.sol\":1259:1269  _msgSender */\n      tag_100\n        /* \"@openzeppelin/contracts/access/Ownable.sol\":1259:1271  _msgSender() */\n      jump\t// in\n    tag_223:\n        /* \"@openzeppelin/contracts/access/Ownable.sol\":1248:1271  owner() == _msgSender() */\n      0xffffffffffffffffffffffffffffffffffffffff\n      and\n        /* \"@openzeppelin/contracts/access/Ownable.sol\":1248:1255  owner() */\n      tag_224\n        /* \"@openzeppelin/contracts/access/Ownable.sol\":1248:1253  owner */\n      tag_77\n        /* \"@openzeppelin/contracts/access/Ownable.sol\":1248:1255  owner() */\n      jump\t// in\n    tag_224:\n        /* \"@openzeppelin/contracts/access/Ownable.sol\":1248:1271  owner() == _msgSender() */\n      0xffffffffffffffffffffffffffffffffffffffff\n      and\n      eq\n        /* \"@openzeppelin/contracts/access/Ownable.sol\":1240:1308  require(owner() == _msgSender(), \"Ownable: caller is not the owner\") */\n      tag_225\n      jumpi\n      mload(0x40)\n      0x08c379a000000000000000000000000000000000000000000000000000000000\n      dup2\n      mstore\n      0x04\n      add\n      tag_226\n      swap1\n      tag_104\n      jump\t// in\n    tag_226:\n      mload(0x40)\n      dup1\n      swap2\n      sub\n      swap1\n      revert\n    tag_225:\n        /* \"contracts/BuyingBoxNFT.sol\":1370:1378  _pause() */\n      tag_228\n        /* \"contracts/BuyingBoxNFT.sol\":1370:1376  _pause */\n      tag_229\n        /* \"contracts/BuyingBoxNFT.sol\":1370:1378  _pause() */\n      jump\t// in\n    tag_228:\n        /* \"contracts/BuyingBoxNFT.sol\":1326:1385  function pause() public onlyOwner {... */\n      jump\t// out\n        /* \"@openzeppelin/contracts/access/Ownable.sol\":1036:1121  function owner() public view virtual returns (address) {... */\n    tag_77:\n        /* \"@openzeppelin/contracts/access/Ownable.sol\":1082:1089  address */\n      0x00\n        /* \"@openzeppelin/contracts/access/Ownable.sol\":1108:1114  _owner */\n      dup1\n      0x01\n      swap1\n      sload\n      swap1\n      0x0100\n      exp\n      swap1\n      div\n      0xffffffffffffffffffffffffffffffffffffffff\n      and\n        /* \"@openzeppelin/contracts/access/Ownable.sol\":1101:1114  return _owner */\n      swap1\n      pop\n        /* \"@openzeppelin/contracts/access/Ownable.sol\":1036:1121  function owner() public view virtual returns (address) {... */\n      swap1\n      jump\t// out\n        /* \"contracts/lib/Withdrawable.sol\":464:750  function withdrawToken(IERC20 _token, uint256 _amount) public onlyOwner {... */\n    tag_84:\n        /* \"@openzeppelin/contracts/access/Ownable.sol\":1259:1271  _msgSender() */\n      tag_232\n        /* \"@openzeppelin/contracts/access/Ownable.sol\":1259:1269  _msgSender */\n      tag_100\n        /* \"@openzeppelin/contracts/access/Ownable.sol\":1259:1271  _msgSender() */\n      jump\t// in\n    tag_232:\n        /* \"@openzeppelin/contracts/access/Ownable.sol\":1248:1271  owner() == _msgSender() */\n      0xffffffffffffffffffffffffffffffffffffffff\n      and\n        /* \"@openzeppelin/contracts/access/Ownable.sol\":1248:1255  owner() */\n      tag_233\n        /* \"@openzeppelin/contracts/access/Ownable.sol\":1248:1253  owner */\n      tag_77\n        /* \"@openzeppelin/contracts/access/Ownable.sol\":1248:1255  owner() */\n      jump\t// in\n    tag_233:\n        /* \"@openzeppelin/contracts/access/Ownable.sol\":1248:1271  owner() == _msgSender() */\n      0xffffffffffffffffffffffffffffffffffffffff\n      and\n      eq\n        /* \"@openzeppelin/contracts/access/Ownable.sol\":1240:1308  require(owner() == _msgSender(), \"Ownable: caller is not the owner\") */\n      tag_234\n      jumpi\n      mload(0x40)\n      0x08c379a000000000000000000000000000000000000000000000000000000000\n      dup2\n      mstore\n      0x04\n      add\n      tag_235\n      swap1\n      tag_104\n      jump\t// in\n    tag_235:\n      mload(0x40)\n      dup1\n      swap2\n      sub\n      swap1\n      revert\n    tag_234:\n        /* \"contracts/lib/Withdrawable.sol\":564:565  0 */\n      0x00\n        /* \"contracts/lib/Withdrawable.sol\":554:561  _amount */\n      dup2\n        /* \"contracts/lib/Withdrawable.sol\":554:565  _amount > 0 */\n      gt\n        /* \"contracts/lib/Withdrawable.sol\":546:601  require(_amount > 0 , \"_amount must be greater than 0\") */\n      tag_237\n      jumpi\n      mload(0x40)\n      0x08c379a000000000000000000000000000000000000000000000000000000000\n      dup2\n      mstore\n      0x04\n      add\n      tag_238\n      swap1\n      tag_216\n      jump\t// in\n    tag_238:\n      mload(0x40)\n      dup1\n      swap2\n      sub\n      swap1\n      revert\n    tag_237:\n        /* \"contracts/lib/Withdrawable.sol\":654:661  _amount */\n      dup1\n        /* \"contracts/lib/Withdrawable.sol\":619:625  _token */\n      dup3\n        /* \"contracts/lib/Withdrawable.sol\":619:635  _token.balanceOf */\n      0xffffffffffffffffffffffffffffffffffffffff\n      and\n      0x70a08231\n        /* \"contracts/lib/Withdrawable.sol\":644:648  this */\n      address\n        /* \"contracts/lib/Withdrawable.sol\":619:650  _token.balanceOf(address(this)) */\n      mload(0x40)\n      dup3\n      0xffffffff\n      and\n      0xe0\n      shl\n      dup2\n      mstore\n      0x04\n      add\n      tag_239\n      swap2\n      swap1\n      tag_79\n      jump\t// in\n    tag_239:\n      0x20\n      mload(0x40)\n      dup1\n      dup4\n      sub\n      dup2\n      dup7\n      dup1\n      extcodesize\n      iszero\n      dup1\n      iszero\n      tag_240\n      jumpi\n      0x00\n      dup1\n      revert\n    tag_240:\n      pop\n      gas\n      staticcall\n      iszero\n      dup1\n      iszero\n      tag_242\n      jumpi\n      returndatasize\n      0x00\n      dup1\n      returndatacopy\n      revert(0x00, returndatasize)\n    tag_242:\n      pop\n      pop\n      pop\n      pop\n      mload(0x40)\n      returndatasize\n      not(0x1f)\n      0x1f\n      dup3\n      add\n      and\n      dup3\n      add\n      dup1\n      0x40\n      mstore\n      pop\n      dup2\n      add\n      swap1\n      tag_243\n      swap2\n      swap1\n      tag_158\n      jump\t// in\n    tag_243:\n        /* \"contracts/lib/Withdrawable.sol\":619:661  _token.balanceOf(address(this)) >= _amount */\n      lt\n      iszero\n        /* \"contracts/lib/Withdrawable.sol\":611:697  require(_token.balanceOf(address(this)) >= _amount , \"balanceOfToken:  is not enough\") */\n      tag_244\n      jumpi\n      mload(0x40)\n      0x08c379a000000000000000000000000000000000000000000000000000000000\n      dup2\n      mstore\n      0x04\n      add\n      tag_245\n      swap1\n      tag_246\n      jump\t// in\n    tag_245:\n      mload(0x40)\n      dup1\n      swap2\n      sub\n      swap1\n      revert\n    tag_244:\n        /* \"contracts/lib/Withdrawable.sol\":707:713  _token */\n      dup2\n        /* \"contracts/lib/Withdrawable.sol\":707:722  _token.transfer */\n      0xffffffffffffffffffffffffffffffffffffffff\n      and\n      0xa9059cbb\n        /* \"contracts/lib/Withdrawable.sol\":723:733  msg.sender */\n      caller\n        /* \"contracts/lib/Withdrawable.sol\":735:742  _amount */\n      dup4\n        /* \"contracts/lib/Withdrawable.sol\":707:743  _token.transfer(msg.sender, _amount) */\n      mload(0x40)\n      dup4\n      0xffffffff\n      and\n      0xe0\n      shl\n      dup2\n      mstore\n      0x04\n      add\n      tag_247\n      swap3\n      swap2\n      swap1\n      tag_26\n      jump\t// in\n    tag_247:\n      0x20\n      mload(0x40)\n      dup1\n      dup4\n      sub\n      dup2\n      0x00\n      dup8\n      dup1\n      extcodesize\n      iszero\n      dup1\n      iszero\n      tag_248\n      jumpi\n      0x00\n      dup1\n      revert\n    tag_248:\n      pop\n      gas\n      call\n      iszero\n      dup1\n      iszero\n      tag_250\n      jumpi\n      returndatasize\n      0x00\n      dup1\n      returndatacopy\n      revert(0x00, returndatasize)\n    tag_250:\n      pop\n      pop\n      pop\n      pop\n      mload(0x40)\n      returndatasize\n      not(0x1f)\n      0x1f\n      dup3\n      add\n      and\n      dup3\n      add\n      dup1\n      0x40\n      mstore\n      pop\n      dup2\n      add\n      swap1\n      tag_251\n      swap2\n      swap1\n      tag_148\n      jump\t// in\n    tag_251:\n      pop\n        /* \"contracts/lib/Withdrawable.sol\":464:750  function withdrawToken(IERC20 _token, uint256 _amount) public onlyOwner {... */\n      pop\n      pop\n      jump\t// out\n        /* \"@openzeppelin/contracts/access/Ownable.sol\":1918:2116  function transferOwnership(address newOwner) public virtual onlyOwner {... */\n    tag_89:\n        /* \"@openzeppelin/contracts/access/Ownable.sol\":1259:1271  _msgSender() */\n      tag_253\n        /* \"@openzeppelin/contracts/access/Ownable.sol\":1259:1269  _msgSender */\n      tag_100\n        /* \"@openzeppelin/contracts/access/Ownable.sol\":1259:1271  _msgSender() */\n      jump\t// in\n    tag_253:\n        /* \"@openzeppelin/contracts/access/Ownable.sol\":1248:1271  owner() == _msgSender() */\n      0xffffffffffffffffffffffffffffffffffffffff\n      and\n        /* \"@openzeppelin/contracts/access/Ownable.sol\":1248:1255  owner() */\n      tag_254\n        /* \"@openzeppelin/contracts/access/Ownable.sol\":1248:1253  owner */\n      tag_77\n        /* \"@openzeppelin/contracts/access/Ownable.sol\":1248:1255  owner() */\n      jump\t// in\n    tag_254:\n        /* \"@openzeppelin/contracts/access/Ownable.sol\":1248:1271  owner() == _msgSender() */\n      0xffffffffffffffffffffffffffffffffffffffff\n      and\n      eq\n        /* \"@openzeppelin/contracts/access/Ownable.sol\":1240:1308  require(owner() == _msgSender(), \"Ownable: caller is not the owner\") */\n      tag_255\n      jumpi\n      mload(0x40)\n      0x08c379a000000000000000000000000000000000000000000000000000000000\n      dup2\n      mstore\n      0x04\n      add\n      tag_256\n      swap1\n      tag_104\n      jump\t// in\n    tag_256:\n      mload(0x40)\n      dup1\n      swap2\n      sub\n      swap1\n      revert\n    tag_255:\n        /* \"@openzeppelin/contracts/access/Ownable.sol\":2026:2027  0 */\n      0x00\n        /* \"@openzeppelin/contracts/access/Ownable.sol\":2006:2028  newOwner != address(0) */\n      0xffffffffffffffffffffffffffffffffffffffff\n      and\n        /* \"@openzeppelin/contracts/access/Ownable.sol\":2006:2014  newOwner */\n      dup2\n        /* \"@openzeppelin/contracts/access/Ownable.sol\":2006:2028  newOwner != address(0) */\n      0xffffffffffffffffffffffffffffffffffffffff\n      and\n      eq\n      iszero\n        /* \"@openzeppelin/contracts/access/Ownable.sol\":1998:2071  require(newOwner != address(0), \"Ownable: new owner is the zero address\") */\n      tag_258\n      jumpi\n      mload(0x40)\n      0x08c379a000000000000000000000000000000000000000000000000000000000\n      dup2\n      mstore\n      0x04\n      add\n      tag_259\n      swap1\n      tag_260\n      jump\t// in\n    tag_259:\n      mload(0x40)\n      dup1\n      swap2\n      sub\n      swap1\n      revert\n    tag_258:\n        /* \"@openzeppelin/contracts/access/Ownable.sol\":2081:2109  _transferOwnership(newOwner) */\n      tag_261\n        /* \"@openzeppelin/contracts/access/Ownable.sol\":2100:2108  newOwner */\n      dup2\n        /* \"@openzeppelin/contracts/access/Ownable.sol\":2081:2099  _transferOwnership */\n      tag_207\n        /* \"@openzeppelin/contracts/access/Ownable.sol\":2081:2109  _transferOwnership(newOwner) */\n      jump\t// in\n    tag_261:\n        /* \"@openzeppelin/contracts/access/Ownable.sol\":1918:2116  function transferOwnership(address newOwner) public virtual onlyOwner {... */\n      pop\n      jump\t// out\n        /* \"contracts/BuyingBoxNFT.sol\":575:595  address public token */\n    tag_92:\n      0x02\n      0x00\n      swap1\n      sload\n      swap1\n      0x0100\n      exp\n      swap1\n      div\n      0xffffffffffffffffffffffffffffffffffffffff\n      and\n      dup2\n      jump\t// out\n        /* \"contracts/BuyingBoxNFT.sol\":601:622  address public BoxNFT */\n    tag_96:\n      0x03\n      0x00\n      swap1\n      sload\n      swap1\n      0x0100\n      exp\n      swap1\n      div\n      0xffffffffffffffffffffffffffffffffffffffff\n      and\n      dup2\n      jump\t// out\n        /* \"@openzeppelin/contracts/utils/Context.sol\":640:736  function _msgSender() internal view virtual returns (address) {... */\n    tag_100:\n        /* \"@openzeppelin/contracts/utils/Context.sol\":693:700  address */\n      0x00\n        /* \"@openzeppelin/contracts/utils/Context.sol\":719:729  msg.sender */\n      caller\n        /* \"@openzeppelin/contracts/utils/Context.sol\":712:729  return msg.sender */\n      swap1\n      pop\n        /* \"@openzeppelin/contracts/utils/Context.sol\":640:736  function _msgSender() internal view virtual returns (address) {... */\n      swap1\n      jump\t// out\n        /* \"@openzeppelin/contracts/security/Pausable.sol\":2110:2227  function _unpause() internal virtual whenPaused {... */\n    tag_118:\n        /* \"@openzeppelin/contracts/security/Pausable.sol\":1677:1685  paused() */\n      tag_264\n        /* \"@openzeppelin/contracts/security/Pausable.sol\":1677:1683  paused */\n      tag_54\n        /* \"@openzeppelin/contracts/security/Pausable.sol\":1677:1685  paused() */\n      jump\t// in\n    tag_264:\n        /* \"@openzeppelin/contracts/security/Pausable.sol\":1669:1710  require(paused(), \"Pausable: not paused\") */\n      tag_265\n      jumpi\n      mload(0x40)\n      0x08c379a000000000000000000000000000000000000000000000000000000000\n      dup2\n      mstore\n      0x04\n      add\n      tag_266\n      swap1\n      tag_267\n      jump\t// in\n    tag_266:\n      mload(0x40)\n      dup1\n      swap2\n      sub\n      swap1\n      revert\n    tag_265:\n        /* \"@openzeppelin/contracts/security/Pausable.sol\":2178:2183  false */\n      0x00\n        /* \"@openzeppelin/contracts/security/Pausable.sol\":2168:2175  _paused */\n      dup1\n      0x00\n        /* \"@openzeppelin/contracts/security/Pausable.sol\":2168:2183  _paused = false */\n      0x0100\n      exp\n      dup2\n      sload\n      dup2\n      0xff\n      mul\n      not\n      and\n      swap1\n      dup4\n      iszero\n      iszero\n      mul\n      or\n      swap1\n      sstore\n      pop\n        /* \"@openzeppelin/contracts/security/Pausable.sol\":2198:2220  Unpaused(_msgSender()) */\n      0x5db9ee0a495bf2e6ff9c91a7834c1ba4fdd244a5e8aa4e537bd38aeae4b073aa\n        /* \"@openzeppelin/contracts/security/Pausable.sol\":2207:2219  _msgSender() */\n      tag_269\n        /* \"@openzeppelin/contracts/security/Pausable.sol\":2207:2217  _msgSender */\n      tag_100\n        /* \"@openzeppelin/contracts/security/Pausable.sol\":2207:2219  _msgSender() */\n      jump\t// in\n    tag_269:\n        /* \"@openzeppelin/contracts/security/Pausable.sol\":2198:2220  Unpaused(_msgSender()) */\n      mload(0x40)\n      tag_270\n      swap2\n      swap1\n      tag_79\n      jump\t// in\n    tag_270:\n      mload(0x40)\n      dup1\n      swap2\n      sub\n      swap1\n      log1\n        /* \"@openzeppelin/contracts/security/Pausable.sol\":2110:2227  function _unpause() internal virtual whenPaused {... */\n      jump\t// out\n        /* \"contracts/BuyingBoxNFT.sol\":2326:3195  function _calcCurPriceToken()... */\n    tag_139:\n        /* \"contracts/BuyingBoxNFT.sol\":2403:2410  uint256 */\n      0x00\n        /* \"contracts/BuyingBoxNFT.sol\":2426:2447  address[] memory path */\n      0x60\n        /* \"contracts/BuyingBoxNFT.sol\":2479:2480  2 */\n      0x02\n        /* \"contracts/BuyingBoxNFT.sol\":2465:2481  new address[](2) */\n      0xffffffffffffffff\n      dup2\n      gt\n      iszero\n      tag_272\n      jumpi\n      tag_273\n      tag_274\n      jump\t// in\n    tag_273:\n    tag_272:\n      mload(0x40)\n      swap1\n      dup1\n      dup3\n      mstore\n      dup1\n      0x20\n      mul\n      0x20\n      add\n      dup3\n      add\n      0x40\n      mstore\n      dup1\n      iszero\n      tag_275\n      jumpi\n      dup2\n      0x20\n      add\n      0x20\n      dup3\n      mul\n      dup1\n      calldatasize\n      dup4\n      calldatacopy\n      dup1\n      dup3\n      add\n      swap2\n      pop\n      pop\n      swap1\n      pop\n    tag_275:\n      pop\n        /* \"contracts/BuyingBoxNFT.sol\":2457:2481  path  = new address[](2) */\n      swap1\n      pop\n        /* \"contracts/BuyingBoxNFT.sol\":2501:2506  token */\n      0x02\n      0x00\n      swap1\n      sload\n      swap1\n      0x0100\n      exp\n      swap1\n      div\n      0xffffffffffffffffffffffffffffffffffffffff\n      and\n        /* \"contracts/BuyingBoxNFT.sol\":2491:2495  path */\n      dup2\n        /* \"contracts/BuyingBoxNFT.sol\":2496:2497  0 */\n      0x00\n        /* \"contracts/BuyingBoxNFT.sol\":2491:2498  path[0] */\n      dup2\n      mload\n      dup2\n      lt\n      tag_276\n      jumpi\n      tag_277\n      tag_278\n      jump\t// in\n    tag_277:\n    tag_276:\n      0x20\n      mul\n      0x20\n      add\n      add\n        /* \"contracts/BuyingBoxNFT.sol\":2491:2506  path[0] = token */\n      swap1\n      0xffffffffffffffffffffffffffffffffffffffff\n      and\n      swap1\n      dup2\n      0xffffffffffffffffffffffffffffffffffffffff\n      and\n      dup2\n      mstore\n      pop\n      pop\n        /* \"contracts/BuyingBoxNFT.sol\":2526:2537  bnbContract */\n      0x07\n      0x00\n      swap1\n      sload\n      swap1\n      0x0100\n      exp\n      swap1\n      div\n      0xffffffffffffffffffffffffffffffffffffffff\n      and\n        /* \"contracts/BuyingBoxNFT.sol\":2516:2520  path */\n      dup2\n        /* \"contracts/BuyingBoxNFT.sol\":2521:2522  1 */\n      0x01\n        /* \"contracts/BuyingBoxNFT.sol\":2516:2523  path[1] */\n      dup2\n      mload\n      dup2\n      lt\n      tag_279\n      jumpi\n      tag_280\n      tag_278\n      jump\t// in\n    tag_280:\n    tag_279:\n      0x20\n      mul\n      0x20\n      add\n      add\n        /* \"contracts/BuyingBoxNFT.sol\":2516:2537  path[1] = bnbContract */\n      swap1\n      0xffffffffffffffffffffffffffffffffffffffff\n      and\n      swap1\n      dup2\n      0xffffffffffffffffffffffffffffffffffffffff\n      and\n      dup2\n      mstore\n      pop\n      pop\n        /* \"contracts/BuyingBoxNFT.sol\":2547:2583  uint256[] memory _oneTokenWithBNBArr */\n      0x00\n        /* \"contracts/BuyingBoxNFT.sol\":2603:2626  pancakeRouterV2Contract */\n      0x06\n      0x00\n      swap1\n      sload\n      swap1\n      0x0100\n      exp\n      swap1\n      div\n      0xffffffffffffffffffffffffffffffffffffffff\n      and\n        /* \"contracts/BuyingBoxNFT.sol\":2586:2641  IPancakeRouter01(pancakeRouterV2Contract).getAmountsOut */\n      0xffffffffffffffffffffffffffffffffffffffff\n      and\n      0xd06ca61f\n        /* \"contracts/BuyingBoxNFT.sol\":2642:2652  1*(10**18) */\n      0x0de0b6b3a7640000\n        /* \"contracts/BuyingBoxNFT.sol\":2654:2658  path */\n      dup5\n        /* \"contracts/BuyingBoxNFT.sol\":2586:2659  IPancakeRouter01(pancakeRouterV2Contract).getAmountsOut(1*(10**18), path) */\n      mload(0x40)\n      dup4\n      0xffffffff\n      and\n      0xe0\n      shl\n      dup2\n      mstore\n      0x04\n      add\n      tag_281\n      swap3\n      swap2\n      swap1\n      tag_282\n      jump\t// in\n    tag_281:\n      0x00\n      mload(0x40)\n      dup1\n      dup4\n      sub\n      dup2\n      dup7\n      dup1\n      extcodesize\n      iszero\n      dup1\n      iszero\n      tag_283\n      jumpi\n      0x00\n      dup1\n      revert\n    tag_283:\n      pop\n      gas\n      staticcall\n      iszero\n      dup1\n      iszero\n      tag_285\n      jumpi\n      returndatasize\n      0x00\n      dup1\n      returndatacopy\n      revert(0x00, returndatasize)\n    tag_285:\n      pop\n      pop\n      pop\n      pop\n      mload(0x40)\n      returndatasize\n      0x00\n      dup3\n      returndatacopy\n      returndatasize\n      not(0x1f)\n      0x1f\n      dup3\n      add\n      and\n      dup3\n      add\n      dup1\n      0x40\n      mstore\n      pop\n      dup2\n      add\n      swap1\n      tag_286\n      swap2\n      swap1\n      tag_287\n      jump\t// in\n    tag_286:\n        /* \"contracts/BuyingBoxNFT.sol\":2547:2659  uint256[] memory _oneTokenWithBNBArr = IPancakeRouter01(pancakeRouterV2Contract).getAmountsOut(1*(10**18), path) */\n      swap1\n      pop\n        /* \"contracts/BuyingBoxNFT.sol\":2691:2692  2 */\n      0x02\n        /* \"contracts/BuyingBoxNFT.sol\":2677:2693  new address[](2) */\n      0xffffffffffffffff\n      dup2\n      gt\n      iszero\n      tag_288\n      jumpi\n      tag_289\n      tag_274\n      jump\t// in\n    tag_289:\n    tag_288:\n      mload(0x40)\n      swap1\n      dup1\n      dup3\n      mstore\n      dup1\n      0x20\n      mul\n      0x20\n      add\n      dup3\n      add\n      0x40\n      mstore\n      dup1\n      iszero\n      tag_290\n      jumpi\n      dup2\n      0x20\n      add\n      0x20\n      dup3\n      mul\n      dup1\n      calldatasize\n      dup4\n      calldatacopy\n      dup1\n      dup3\n      add\n      swap2\n      pop\n      pop\n      swap1\n      pop\n    tag_290:\n      pop\n        /* \"contracts/BuyingBoxNFT.sol\":2669:2693  path  = new address[](2) */\n      swap2\n      pop\n        /* \"contracts/BuyingBoxNFT.sol\":2713:2724  bnbContract */\n      0x07\n      0x00\n      swap1\n      sload\n      swap1\n      0x0100\n      exp\n      swap1\n      div\n      0xffffffffffffffffffffffffffffffffffffffff\n      and\n        /* \"contracts/BuyingBoxNFT.sol\":2703:2707  path */\n      dup3\n        /* \"contracts/BuyingBoxNFT.sol\":2708:2709  0 */\n      0x00\n        /* \"contracts/BuyingBoxNFT.sol\":2703:2710  path[0] */\n      dup2\n      mload\n      dup2\n      lt\n      tag_291\n      jumpi\n      tag_292\n      tag_278\n      jump\t// in\n    tag_292:\n    tag_291:\n      0x20\n      mul\n      0x20\n      add\n      add\n        /* \"contracts/BuyingBoxNFT.sol\":2703:2724  path[0] = bnbContract */\n      swap1\n      0xffffffffffffffffffffffffffffffffffffffff\n      and\n      swap1\n      dup2\n      0xffffffffffffffffffffffffffffffffffffffff\n      and\n      dup2\n      mstore\n      pop\n      pop\n        /* \"contracts/BuyingBoxNFT.sol\":2744:2756  busdContract */\n      0x08\n      0x00\n      swap1\n      sload\n      swap1\n      0x0100\n      exp\n      swap1\n      div\n      0xffffffffffffffffffffffffffffffffffffffff\n      and\n        /* \"contracts/BuyingBoxNFT.sol\":2734:2738  path */\n      dup3\n        /* \"contracts/BuyingBoxNFT.sol\":2739:2740  1 */\n      0x01\n        /* \"contracts/BuyingBoxNFT.sol\":2734:2741  path[1] */\n      dup2\n      mload\n      dup2\n      lt\n      tag_293\n      jumpi\n      tag_294\n      tag_278\n      jump\t// in\n    tag_294:\n    tag_293:\n      0x20\n      mul\n      0x20\n      add\n      add\n        /* \"contracts/BuyingBoxNFT.sol\":2734:2756  path[1] = busdContract */\n      swap1\n      0xffffffffffffffffffffffffffffffffffffffff\n      and\n      swap1\n      dup2\n      0xffffffffffffffffffffffffffffffffffffffff\n      and\n      dup2\n      mstore\n      pop\n      pop\n        /* \"contracts/BuyingBoxNFT.sol\":2766:2801  uint256[] memory _oneBNBWithBusdArr */\n      0x00\n        /* \"contracts/BuyingBoxNFT.sol\":2821:2844  pancakeRouterV2Contract */\n      0x06\n      0x00\n      swap1\n      sload\n      swap1\n      0x0100\n      exp\n      swap1\n      div\n      0xffffffffffffffffffffffffffffffffffffffff\n      and\n        /* \"contracts/BuyingBoxNFT.sol\":2804:2859  IPancakeRouter01(pancakeRouterV2Contract).getAmountsOut */\n      0xffffffffffffffffffffffffffffffffffffffff\n      and\n      0xd06ca61f\n        /* \"contracts/BuyingBoxNFT.sol\":2860:2870  1*(10**18) */\n      0x0de0b6b3a7640000\n        /* \"contracts/BuyingBoxNFT.sol\":2872:2876  path */\n      dup6\n        /* \"contracts/BuyingBoxNFT.sol\":2804:2877  IPancakeRouter01(pancakeRouterV2Contract).getAmountsOut(1*(10**18), path) */\n      mload(0x40)\n      dup4\n      0xffffffff\n      and\n      0xe0\n      shl\n      dup2\n      mstore\n      0x04\n      add\n      tag_295\n      swap3\n      swap2\n      swap1\n      tag_282\n      jump\t// in\n    tag_295:\n      0x00\n      mload(0x40)\n      dup1\n      dup4\n      sub\n      dup2\n      dup7\n      dup1\n      extcodesize\n      iszero\n      dup1\n      iszero\n      tag_296\n      jumpi\n      0x00\n      dup1\n      revert\n    tag_296:\n      pop\n      gas\n      staticcall\n      iszero\n      dup1\n      iszero\n      tag_298\n      jumpi\n      returndatasize\n      0x00\n      dup1\n      returndatacopy\n      revert(0x00, returndatasize)\n    tag_298:\n      pop\n      pop\n      pop\n      pop\n      mload(0x40)\n      returndatasize\n      0x00\n      dup3\n      returndatacopy\n      returndatasize\n      not(0x1f)\n      0x1f\n      dup3\n      add\n      and\n      dup3\n      add\n      dup1\n      0x40\n      mstore\n      pop\n      dup2\n      add\n      swap1\n      tag_299\n      swap2\n      swap1\n      tag_287\n      jump\t// in\n    tag_299:\n        /* \"contracts/BuyingBoxNFT.sol\":2766:2877  uint256[] memory _oneBNBWithBusdArr = IPancakeRouter01(pancakeRouterV2Contract).getAmountsOut(1*(10**18), path) */\n      swap1\n      pop\n        /* \"contracts/BuyingBoxNFT.sol\":2887:2911  uint256 _oneTokenWithBNB */\n      0x00\n        /* \"contracts/BuyingBoxNFT.sol\":2914:2933  _oneTokenWithBNBArr */\n      dup3\n        /* \"contracts/BuyingBoxNFT.sol\":2934:2935  1 */\n      0x01\n        /* \"contracts/BuyingBoxNFT.sol\":2914:2936  _oneTokenWithBNBArr[1] */\n      dup2\n      mload\n      dup2\n      lt\n      tag_300\n      jumpi\n      tag_301\n      tag_278\n      jump\t// in\n    tag_301:\n    tag_300:\n      0x20\n      mul\n      0x20\n      add\n      add\n      mload\n        /* \"contracts/BuyingBoxNFT.sol\":2887:2936  uint256 _oneTokenWithBNB = _oneTokenWithBNBArr[1] */\n      swap1\n      pop\n        /* \"contracts/BuyingBoxNFT.sol\":2946:2969  uint256 _oneBNBWithBusd */\n      0x00\n        /* \"contracts/BuyingBoxNFT.sol\":2972:2990  _oneBNBWithBusdArr */\n      dup3\n        /* \"contracts/BuyingBoxNFT.sol\":2991:2992  1 */\n      0x01\n        /* \"contracts/BuyingBoxNFT.sol\":2972:2993  _oneBNBWithBusdArr[1] */\n      dup2\n      mload\n      dup2\n      lt\n      tag_302\n      jumpi\n      tag_303\n      tag_278\n      jump\t// in\n    tag_303:\n    tag_302:\n      0x20\n      mul\n      0x20\n      add\n      add\n      mload\n        /* \"contracts/BuyingBoxNFT.sol\":2946:2993  uint256 _oneBNBWithBusd = _oneBNBWithBusdArr[1] */\n      swap1\n      pop\n        /* \"contracts/BuyingBoxNFT.sol\":3003:3025  uint256 _curPriceToken */\n      0x00\n        /* \"contracts/BuyingBoxNFT.sol\":3065:3071  10**18 */\n      0x0de0b6b3a7640000\n        /* \"contracts/BuyingBoxNFT.sol\":3046:3061  _oneBNBWithBusd */\n      dup3\n        /* \"contracts/BuyingBoxNFT.sol\":3029:3045  _oneTokenWithBNB */\n      dup5\n        /* \"contracts/BuyingBoxNFT.sol\":3029:3061  _oneTokenWithBNB*_oneBNBWithBusd */\n      tag_304\n      swap2\n      swap1\n      tag_141\n      jump\t// in\n    tag_304:\n        /* \"contracts/BuyingBoxNFT.sol\":3028:3072  (_oneTokenWithBNB*_oneBNBWithBusd)/ (10**18) */\n      tag_305\n      swap2\n      swap1\n      tag_306\n      jump\t// in\n    tag_305:\n        /* \"contracts/BuyingBoxNFT.sol\":3003:3072  uint256 _curPriceToken = (_oneTokenWithBNB*_oneBNBWithBusd)/ (10**18) */\n      swap1\n      pop\n        /* \"contracts/BuyingBoxNFT.sol\":3082:3105  uint256 _totalPaidToken */\n      0x00\n        /* \"contracts/BuyingBoxNFT.sol\":3126:3140  _curPriceToken */\n      dup2\n        /* \"contracts/BuyingBoxNFT.sol\":3108:3123  1000 * (10**18) */\n      0x3635c9adc5dea00000\n        /* \"contracts/BuyingBoxNFT.sol\":3108:3140  1000 * (10**18) / _curPriceToken */\n      tag_307\n      swap2\n      swap1\n      tag_306\n      jump\t// in\n    tag_307:\n        /* \"contracts/BuyingBoxNFT.sol\":3082:3140  uint256 _totalPaidToken = 1000 * (10**18) / _curPriceToken */\n      swap1\n      pop\n        /* \"contracts/BuyingBoxNFT.sol\":3175:3181  10**18 */\n      0x0de0b6b3a7640000\n        /* \"contracts/BuyingBoxNFT.sol\":3158:3173  _totalPaidToken */\n      dup2\n        /* \"contracts/BuyingBoxNFT.sol\":3158:3182  _totalPaidToken*(10**18) */\n      tag_308\n      swap2\n      swap1\n      tag_141\n      jump\t// in\n    tag_308:\n        /* \"contracts/BuyingBoxNFT.sol\":3151:3182  return _totalPaidToken*(10**18) */\n      swap8\n      pop\n      pop\n      pop\n      pop\n      pop\n      pop\n      pop\n      pop\n        /* \"contracts/BuyingBoxNFT.sol\":2326:3195  function _calcCurPriceToken()... */\n      swap1\n      jump\t// out\n        /* \"@openzeppelin/contracts/access/Ownable.sol\":2270:2457  function _transferOwnership(address newOwner) internal virtual {... */\n    tag_207:\n        /* \"@openzeppelin/contracts/access/Ownable.sol\":2343:2359  address oldOwner */\n      0x00\n        /* \"@openzeppelin/contracts/access/Ownable.sol\":2362:2368  _owner */\n      dup1\n      0x01\n      swap1\n      sload\n      swap1\n      0x0100\n      exp\n      swap1\n      div\n      0xffffffffffffffffffffffffffffffffffffffff\n      and\n        /* \"@openzeppelin/contracts/access/Ownable.sol\":2343:2368  address oldOwner = _owner */\n      swap1\n      pop\n        /* \"@openzeppelin/contracts/access/Ownable.sol\":2387:2395  newOwner */\n      dup2\n        /* \"@openzeppelin/contracts/access/Ownable.sol\":2378:2384  _owner */\n      0x00\n      0x01\n        /* \"@openzeppelin/contracts/access/Ownable.sol\":2378:2395  _owner = newOwner */\n      0x0100\n      exp\n      dup2\n      sload\n      dup2\n      0xffffffffffffffffffffffffffffffffffffffff\n      mul\n      not\n      and\n      swap1\n      dup4\n      0xffffffffffffffffffffffffffffffffffffffff\n      and\n      mul\n      or\n      swap1\n      sstore\n      pop\n        /* \"@openzeppelin/contracts/access/Ownable.sol\":2441:2449  newOwner */\n      dup2\n        /* \"@openzeppelin/contracts/access/Ownable.sol\":2410:2450  OwnershipTransferred(oldOwner, newOwner) */\n      0xffffffffffffffffffffffffffffffffffffffff\n      and\n        /* \"@openzeppelin/contracts/access/Ownable.sol\":2431:2439  oldOwner */\n      dup2\n        /* \"@openzeppelin/contracts/access/Ownable.sol\":2410:2450  OwnershipTransferred(oldOwner, newOwner) */\n      0xffffffffffffffffffffffffffffffffffffffff\n      and\n      0x8be0079c531659141344cd1fd0a4f28419497f9722a3daafe3b4186f6b6457e0\n      mload(0x40)\n      mload(0x40)\n      dup1\n      swap2\n      sub\n      swap1\n      log3\n        /* \"@openzeppelin/contracts/access/Ownable.sol\":2333:2457  {... */\n      pop\n        /* \"@openzeppelin/contracts/access/Ownable.sol\":2270:2457  function _transferOwnership(address newOwner) internal virtual {... */\n      pop\n      jump\t// out\n        /* \"@openzeppelin/contracts/security/Pausable.sol\":1863:1978  function _pause() internal virtual whenNotPaused {... */\n    tag_229:\n        /* \"@openzeppelin/contracts/security/Pausable.sol\":1412:1420  paused() */\n      tag_311\n        /* \"@openzeppelin/contracts/security/Pausable.sol\":1412:1418  paused */\n      tag_54\n        /* \"@openzeppelin/contracts/security/Pausable.sol\":1412:1420  paused() */\n      jump\t// in\n    tag_311:\n        /* \"@openzeppelin/contracts/security/Pausable.sol\":1411:1420  !paused() */\n      iszero\n        /* \"@openzeppelin/contracts/security/Pausable.sol\":1403:1441  require(!paused(), \"Pausable: paused\") */\n      tag_312\n      jumpi\n      mload(0x40)\n      0x08c379a000000000000000000000000000000000000000000000000000000000\n      dup2\n      mstore\n      0x04\n      add\n      tag_313\n      swap1\n      tag_123\n      jump\t// in\n    tag_313:\n      mload(0x40)\n      dup1\n      swap2\n      sub\n      swap1\n      revert\n    tag_312:\n        /* \"@openzeppelin/contracts/security/Pausable.sol\":1932:1936  true */\n      0x01\n        /* \"@openzeppelin/contracts/security/Pausable.sol\":1922:1929  _paused */\n      0x00\n      dup1\n        /* \"@openzeppelin/contracts/security/Pausable.sol\":1922:1936  _paused = true */\n      0x0100\n      exp\n      dup2\n      sload\n      dup2\n      0xff\n      mul\n      not\n      and\n      swap1\n      dup4\n      iszero\n      iszero\n      mul\n      or\n      swap1\n      sstore\n      pop\n        /* \"@openzeppelin/contracts/security/Pausable.sol\":1951:1971  Paused(_msgSender()) */\n      0x62e78cea01bee320cd4e420270b5ea74000d11b0c9f74754ebdbfc544b05a258\n        /* \"@openzeppelin/contracts/security/Pausable.sol\":1958:1970  _msgSender() */\n      tag_315\n        /* \"@openzeppelin/contracts/security/Pausable.sol\":1958:1968  _msgSender */\n      tag_100\n        /* \"@openzeppelin/contracts/security/Pausable.sol\":1958:1970  _msgSender() */\n      jump\t// in\n    tag_315:\n        /* \"@openzeppelin/contracts/security/Pausable.sol\":1951:1971  Paused(_msgSender()) */\n      mload(0x40)\n      tag_316\n      swap2\n      swap1\n      tag_79\n      jump\t// in\n    tag_316:\n      mload(0x40)\n      dup1\n      swap2\n      sub\n      swap1\n      log1\n        /* \"@openzeppelin/contracts/security/Pausable.sol\":1863:1978  function _pause() internal virtual whenNotPaused {... */\n      jump\t// out\n        /* \"#utility.yul\":24:768   */\n    tag_318:\n        /* \"#utility.yul\":131:136   */\n      0x00\n        /* \"#utility.yul\":156:237   */\n      tag_320\n        /* \"#utility.yul\":172:236   */\n      tag_321\n        /* \"#utility.yul\":229:235   */\n      dup5\n        /* \"#utility.yul\":172:236   */\n      tag_322\n      jump\t// in\n    tag_321:\n        /* \"#utility.yul\":156:237   */\n      tag_323\n      jump\t// in\n    tag_320:\n        /* \"#utility.yul\":147:237   */\n      swap1\n      pop\n        /* \"#utility.yul\":257:262   */\n      dup1\n        /* \"#utility.yul\":286:292   */\n      dup4\n        /* \"#utility.yul\":279:284   */\n      dup3\n        /* \"#utility.yul\":272:293   */\n      mstore\n        /* \"#utility.yul\":320:324   */\n      0x20\n        /* \"#utility.yul\":313:318   */\n      dup3\n        /* \"#utility.yul\":309:325   */\n      add\n        /* \"#utility.yul\":302:325   */\n      swap1\n      pop\n        /* \"#utility.yul\":346:352   */\n      dup3\n        /* \"#utility.yul\":396:399   */\n      dup6\n        /* \"#utility.yul\":388:392   */\n      0x20\n        /* \"#utility.yul\":380:386   */\n      dup7\n        /* \"#utility.yul\":376:393   */\n      mul\n        /* \"#utility.yul\":371:374   */\n      dup3\n        /* \"#utility.yul\":367:394   */\n      add\n        /* \"#utility.yul\":364:400   */\n      gt\n        /* \"#utility.yul\":361:504   */\n      iszero\n      tag_324\n      jumpi\n        /* \"#utility.yul\":415:494   */\n      tag_325\n      tag_326\n      jump\t// in\n    tag_325:\n        /* \"#utility.yul\":361:504   */\n    tag_324:\n        /* \"#utility.yul\":528:529   */\n      0x00\n        /* \"#utility.yul\":513:762   */\n    tag_327:\n        /* \"#utility.yul\":538:544   */\n      dup6\n        /* \"#utility.yul\":535:536   */\n      dup2\n        /* \"#utility.yul\":532:545   */\n      lt\n        /* \"#utility.yul\":513:762   */\n      iszero\n      tag_329\n      jumpi\n        /* \"#utility.yul\":606:609   */\n      dup2\n        /* \"#utility.yul\":635:683   */\n      tag_330\n        /* \"#utility.yul\":679:682   */\n      dup9\n        /* \"#utility.yul\":667:677   */\n      dup3\n        /* \"#utility.yul\":635:683   */\n      tag_331\n      jump\t// in\n    tag_330:\n        /* \"#utility.yul\":630:633   */\n      dup5\n        /* \"#utility.yul\":623:684   */\n      mstore\n        /* \"#utility.yul\":713:717   */\n      0x20\n        /* \"#utility.yul\":708:711   */\n      dup5\n        /* \"#utility.yul\":704:718   */\n      add\n        /* \"#utility.yul\":697:718   */\n      swap4\n      pop\n        /* \"#utility.yul\":747:751   */\n      0x20\n        /* \"#utility.yul\":742:745   */\n      dup4\n        /* \"#utility.yul\":738:752   */\n      add\n        /* \"#utility.yul\":731:752   */\n      swap3\n      pop\n        /* \"#utility.yul\":573:762   */\n      pop\n        /* \"#utility.yul\":560:561   */\n      0x01\n        /* \"#utility.yul\":557:558   */\n      dup2\n        /* \"#utility.yul\":553:562   */\n      add\n        /* \"#utility.yul\":548:562   */\n      swap1\n      pop\n        /* \"#utility.yul\":513:762   */\n      jump(tag_327)\n    tag_329:\n        /* \"#utility.yul\":517:531   */\n      pop\n        /* \"#utility.yul\":137:768   */\n      pop\n      pop\n        /* \"#utility.yul\":24:768   */\n      swap4\n      swap3\n      pop\n      pop\n      pop\n      jump\t// out\n        /* \"#utility.yul\":774:913   */\n    tag_332:\n        /* \"#utility.yul\":820:825   */\n      0x00\n        /* \"#utility.yul\":858:864   */\n      dup2\n        /* \"#utility.yul\":845:865   */\n      calldataload\n        /* \"#utility.yul\":836:865   */\n      swap1\n      pop\n        /* \"#utility.yul\":874:907   */\n      tag_334\n        /* \"#utility.yul\":901:906   */\n      dup2\n        /* \"#utility.yul\":874:907   */\n      tag_335\n      jump\t// in\n    tag_334:\n        /* \"#utility.yul\":774:913   */\n      swap3\n      swap2\n      pop\n      pop\n      jump\t// out\n        /* \"#utility.yul\":936:1321   */\n    tag_336:\n        /* \"#utility.yul\":1018:1023   */\n      0x00\n        /* \"#utility.yul\":1067:1070   */\n      dup3\n        /* \"#utility.yul\":1060:1064   */\n      0x1f\n        /* \"#utility.yul\":1052:1058   */\n      dup4\n        /* \"#utility.yul\":1048:1065   */\n      add\n        /* \"#utility.yul\":1044:1071   */\n      slt\n        /* \"#utility.yul\":1034:1156   */\n      tag_338\n      jumpi\n        /* \"#utility.yul\":1075:1154   */\n      tag_339\n      tag_340\n      jump\t// in\n    tag_339:\n        /* \"#utility.yul\":1034:1156   */\n    tag_338:\n        /* \"#utility.yul\":1185:1191   */\n      dup2\n        /* \"#utility.yul\":1179:1192   */\n      mload\n        /* \"#utility.yul\":1210:1315   */\n      tag_341\n        /* \"#utility.yul\":1311:1314   */\n      dup5\n        /* \"#utility.yul\":1303:1309   */\n      dup3\n        /* \"#utility.yul\":1296:1300   */\n      0x20\n        /* \"#utility.yul\":1288:1294   */\n      dup7\n        /* \"#utility.yul\":1284:1301   */\n      add\n        /* \"#utility.yul\":1210:1315   */\n      tag_318\n      jump\t// in\n    tag_341:\n        /* \"#utility.yul\":1201:1315   */\n      swap2\n      pop\n        /* \"#utility.yul\":1024:1321   */\n      pop\n        /* \"#utility.yul\":936:1321   */\n      swap3\n      swap2\n      pop\n      pop\n      jump\t// out\n        /* \"#utility.yul\":1327:1464   */\n    tag_342:\n        /* \"#utility.yul\":1381:1386   */\n      0x00\n        /* \"#utility.yul\":1412:1418   */\n      dup2\n        /* \"#utility.yul\":1406:1419   */\n      mload\n        /* \"#utility.yul\":1397:1419   */\n      swap1\n      pop\n        /* \"#utility.yul\":1428:1458   */\n      tag_344\n        /* \"#utility.yul\":1452:1457   */\n      dup2\n        /* \"#utility.yul\":1428:1458   */\n      tag_345\n      jump\t// in\n    tag_344:\n        /* \"#utility.yul\":1327:1464   */\n      swap3\n      swap2\n      pop\n      pop\n      jump\t// out\n        /* \"#utility.yul\":1470:1637   */\n    tag_346:\n        /* \"#utility.yul\":1530:1535   */\n      0x00\n        /* \"#utility.yul\":1568:1574   */\n      dup2\n        /* \"#utility.yul\":1555:1575   */\n      calldataload\n        /* \"#utility.yul\":1546:1575   */\n      swap1\n      pop\n        /* \"#utility.yul\":1584:1631   */\n      tag_348\n        /* \"#utility.yul\":1625:1630   */\n      dup2\n        /* \"#utility.yul\":1584:1631   */\n      tag_349\n      jump\t// in\n    tag_348:\n        /* \"#utility.yul\":1470:1637   */\n      swap3\n      swap2\n      pop\n      pop\n      jump\t// out\n        /* \"#utility.yul\":1643:1782   */\n    tag_350:\n        /* \"#utility.yul\":1689:1694   */\n      0x00\n        /* \"#utility.yul\":1727:1733   */\n      dup2\n        /* \"#utility.yul\":1714:1734   */\n      calldataload\n        /* \"#utility.yul\":1705:1734   */\n      swap1\n      pop\n        /* \"#utility.yul\":1743:1776   */\n      tag_352\n        /* \"#utility.yul\":1770:1775   */\n      dup2\n        /* \"#utility.yul\":1743:1776   */\n      tag_353\n      jump\t// in\n    tag_352:\n        /* \"#utility.yul\":1643:1782   */\n      swap3\n      swap2\n      pop\n      pop\n      jump\t// out\n        /* \"#utility.yul\":1788:1931   */\n    tag_331:\n        /* \"#utility.yul\":1845:1850   */\n      0x00\n        /* \"#utility.yul\":1876:1882   */\n      dup2\n        /* \"#utility.yul\":1870:1883   */\n      mload\n        /* \"#utility.yul\":1861:1883   */\n      swap1\n      pop\n        /* \"#utility.yul\":1892:1925   */\n      tag_355\n        /* \"#utility.yul\":1919:1924   */\n      dup2\n        /* \"#utility.yul\":1892:1925   */\n      tag_353\n      jump\t// in\n    tag_355:\n        /* \"#utility.yul\":1788:1931   */\n      swap3\n      swap2\n      pop\n      pop\n      jump\t// out\n        /* \"#utility.yul\":1937:2266   */\n    tag_88:\n        /* \"#utility.yul\":1996:2002   */\n      0x00\n        /* \"#utility.yul\":2045:2047   */\n      0x20\n        /* \"#utility.yul\":2033:2042   */\n      dup3\n        /* \"#utility.yul\":2024:2031   */\n      dup5\n        /* \"#utility.yul\":2020:2043   */\n      sub\n        /* \"#utility.yul\":2016:2048   */\n      slt\n        /* \"#utility.yul\":2013:2132   */\n      iszero\n      tag_357\n      jumpi\n        /* \"#utility.yul\":2051:2130   */\n      tag_358\n      tag_359\n      jump\t// in\n    tag_358:\n        /* \"#utility.yul\":2013:2132   */\n    tag_357:\n        /* \"#utility.yul\":2171:2172   */\n      0x00\n        /* \"#utility.yul\":2196:2249   */\n      tag_360\n        /* \"#utility.yul\":2241:2248   */\n      dup5\n        /* \"#utility.yul\":2232:2238   */\n      dup3\n        /* \"#utility.yul\":2221:2230   */\n      dup6\n        /* \"#utility.yul\":2217:2239   */\n      add\n        /* \"#utility.yul\":2196:2249   */\n      tag_332\n      jump\t// in\n    tag_360:\n        /* \"#utility.yul\":2186:2249   */\n      swap2\n      pop\n        /* \"#utility.yul\":2142:2259   */\n      pop\n        /* \"#utility.yul\":1937:2266   */\n      swap3\n      swap2\n      pop\n      pop\n      jump\t// out\n        /* \"#utility.yul\":2272:2826   */\n    tag_287:\n        /* \"#utility.yul\":2367:2373   */\n      0x00\n        /* \"#utility.yul\":2416:2418   */\n      0x20\n        /* \"#utility.yul\":2404:2413   */\n      dup3\n        /* \"#utility.yul\":2395:2402   */\n      dup5\n        /* \"#utility.yul\":2391:2414   */\n      sub\n        /* \"#utility.yul\":2387:2419   */\n      slt\n        /* \"#utility.yul\":2384:2503   */\n      iszero\n      tag_362\n      jumpi\n        /* \"#utility.yul\":2422:2501   */\n      tag_363\n      tag_359\n      jump\t// in\n    tag_363:\n        /* \"#utility.yul\":2384:2503   */\n    tag_362:\n        /* \"#utility.yul\":2563:2564   */\n      0x00\n        /* \"#utility.yul\":2552:2561   */\n      dup3\n        /* \"#utility.yul\":2548:2565   */\n      add\n        /* \"#utility.yul\":2542:2566   */\n      mload\n        /* \"#utility.yul\":2593:2611   */\n      0xffffffffffffffff\n        /* \"#utility.yul\":2585:2591   */\n      dup2\n        /* \"#utility.yul\":2582:2612   */\n      gt\n        /* \"#utility.yul\":2579:2696   */\n      iszero\n      tag_364\n      jumpi\n        /* \"#utility.yul\":2615:2694   */\n      tag_365\n      tag_366\n      jump\t// in\n    tag_365:\n        /* \"#utility.yul\":2579:2696   */\n    tag_364:\n        /* \"#utility.yul\":2720:2809   */\n      tag_367\n        /* \"#utility.yul\":2801:2808   */\n      dup5\n        /* \"#utility.yul\":2792:2798   */\n      dup3\n        /* \"#utility.yul\":2781:2790   */\n      dup6\n        /* \"#utility.yul\":2777:2799   */\n      add\n        /* \"#utility.yul\":2720:2809   */\n      tag_336\n      jump\t// in\n    tag_367:\n        /* \"#utility.yul\":2710:2809   */\n      swap2\n      pop\n        /* \"#utility.yul\":2513:2819   */\n      pop\n        /* \"#utility.yul\":2272:2826   */\n      swap3\n      swap2\n      pop\n      pop\n      jump\t// out\n        /* \"#utility.yul\":2832:3177   */\n    tag_148:\n        /* \"#utility.yul\":2899:2905   */\n      0x00\n        /* \"#utility.yul\":2948:2950   */\n      0x20\n        /* \"#utility.yul\":2936:2945   */\n      dup3\n        /* \"#utility.yul\":2927:2934   */\n      dup5\n        /* \"#utility.yul\":2923:2946   */\n      sub\n        /* \"#utility.yul\":2919:2951   */\n      slt\n        /* \"#utility.yul\":2916:3035   */\n      iszero\n      tag_369\n      jumpi\n        /* \"#utility.yul\":2954:3033   */\n      tag_370\n      tag_359\n      jump\t// in\n    tag_370:\n        /* \"#utility.yul\":2916:3035   */\n    tag_369:\n        /* \"#utility.yul\":3074:3075   */\n      0x00\n        /* \"#utility.yul\":3099:3160   */\n      tag_371\n        /* \"#utility.yul\":3152:3159   */\n      dup5\n        /* \"#utility.yul\":3143:3149   */\n      dup3\n        /* \"#utility.yul\":3132:3141   */\n      dup6\n        /* \"#utility.yul\":3128:3150   */\n      add\n        /* \"#utility.yul\":3099:3160   */\n      tag_342\n      jump\t// in\n    tag_371:\n        /* \"#utility.yul\":3089:3160   */\n      swap2\n      pop\n        /* \"#utility.yul\":3045:3170   */\n      pop\n        /* \"#utility.yul\":2832:3177   */\n      swap3\n      swap2\n      pop\n      pop\n      jump\t// out\n        /* \"#utility.yul\":3183:3540   */\n    tag_50:\n        /* \"#utility.yul\":3256:3262   */\n      0x00\n        /* \"#utility.yul\":3305:3307   */\n      0x20\n        /* \"#utility.yul\":3293:3302   */\n      dup3\n        /* \"#utility.yul\":3284:3291   */\n      dup5\n        /* \"#utility.yul\":3280:3303   */\n      sub\n        /* \"#utility.yul\":3276:3308   */\n      slt\n        /* \"#utility.yul\":3273:3392   */\n      iszero\n      tag_373\n      jumpi\n        /* \"#utility.yul\":3311:3390   */\n      tag_374\n      tag_359\n      jump\t// in\n    tag_374:\n        /* \"#utility.yul\":3273:3392   */\n    tag_373:\n        /* \"#utility.yul\":3431:3432   */\n      0x00\n        /* \"#utility.yul\":3456:3523   */\n      tag_375\n        /* \"#utility.yul\":3515:3522   */\n      dup5\n        /* \"#utility.yul\":3506:3512   */\n      dup3\n        /* \"#utility.yul\":3495:3504   */\n      dup6\n        /* \"#utility.yul\":3491:3513   */\n      add\n        /* \"#utility.yul\":3456:3523   */\n      tag_346\n      jump\t// in\n    tag_375:\n        /* \"#utility.yul\":3446:3523   */\n      swap2\n      pop\n        /* \"#utility.yul\":3402:3533   */\n      pop\n        /* \"#utility.yul\":3183:3540   */\n      swap3\n      swap2\n      pop\n      pop\n      jump\t// out\n        /* \"#utility.yul\":3546:4048   */\n    tag_83:\n        /* \"#utility.yul\":3628:3634   */\n      0x00\n        /* \"#utility.yul\":3636:3642   */\n      dup1\n        /* \"#utility.yul\":3685:3687   */\n      0x40\n        /* \"#utility.yul\":3673:3682   */\n      dup4\n        /* \"#utility.yul\":3664:3671   */\n      dup6\n        /* \"#utility.yul\":3660:3683   */\n      sub\n        /* \"#utility.yul\":3656:3688   */\n      slt\n        /* \"#utility.yul\":3653:3772   */\n      iszero\n      tag_377\n      jumpi\n        /* \"#utility.yul\":3691:3770   */\n      tag_378\n      tag_359\n      jump\t// in\n    tag_378:\n        /* \"#utility.yul\":3653:3772   */\n    tag_377:\n        /* \"#utility.yul\":3811:3812   */\n      0x00\n        /* \"#utility.yul\":3836:3903   */\n      tag_379\n        /* \"#utility.yul\":3895:3902   */\n      dup6\n        /* \"#utility.yul\":3886:3892   */\n      dup3\n        /* \"#utility.yul\":3875:3884   */\n      dup7\n        /* \"#utility.yul\":3871:3893   */\n      add\n        /* \"#utility.yul\":3836:3903   */\n      tag_346\n      jump\t// in\n    tag_379:\n        /* \"#utility.yul\":3826:3903   */\n      swap3\n      pop\n        /* \"#utility.yul\":3782:3913   */\n      pop\n        /* \"#utility.yul\":3952:3954   */\n      0x20\n        /* \"#utility.yul\":3978:4031   */\n      tag_380\n        /* \"#utility.yul\":4023:4030   */\n      dup6\n        /* \"#utility.yul\":4014:4020   */\n      dup3\n        /* \"#utility.yul\":4003:4012   */\n      dup7\n        /* \"#utility.yul\":3999:4021   */\n      add\n        /* \"#utility.yul\":3978:4031   */\n      tag_350\n      jump\t// in\n    tag_380:\n        /* \"#utility.yul\":3968:4031   */\n      swap2\n      pop\n        /* \"#utility.yul\":3923:4041   */\n      pop\n        /* \"#utility.yul\":3546:4048   */\n      swap3\n      pop\n      swap3\n      swap1\n      pop\n      jump\t// out\n        /* \"#utility.yul\":4054:4383   */\n    tag_45:\n        /* \"#utility.yul\":4113:4119   */\n      0x00\n        /* \"#utility.yul\":4162:4164   */\n      0x20\n        /* \"#utility.yul\":4150:4159   */\n      dup3\n        /* \"#utility.yul\":4141:4148   */\n      dup5\n        /* \"#utility.yul\":4137:4160   */\n      sub\n        /* \"#utility.yul\":4133:4165   */\n      slt\n        /* \"#utility.yul\":4130:4249   */\n      iszero\n      tag_382\n      jumpi\n        /* \"#utility.yul\":4168:4247   */\n      tag_383\n      tag_359\n      jump\t// in\n    tag_383:\n        /* \"#utility.yul\":4130:4249   */\n    tag_382:\n        /* \"#utility.yul\":4288:4289   */\n      0x00\n        /* \"#utility.yul\":4313:4366   */\n      tag_384\n        /* \"#utility.yul\":4358:4365   */\n      dup5\n        /* \"#utility.yul\":4349:4355   */\n      dup3\n        /* \"#utility.yul\":4338:4347   */\n      dup6\n        /* \"#utility.yul\":4334:4356   */\n      add\n        /* \"#utility.yul\":4313:4366   */\n      tag_350\n      jump\t// in\n    tag_384:\n        /* \"#utility.yul\":4303:4366   */\n      swap2\n      pop\n        /* \"#utility.yul\":4259:4376   */\n      pop\n        /* \"#utility.yul\":4054:4383   */\n      swap3\n      swap2\n      pop\n      pop\n      jump\t// out\n        /* \"#utility.yul\":4389:4740   */\n    tag_158:\n        /* \"#utility.yul\":4459:4465   */\n      0x00\n        /* \"#utility.yul\":4508:4510   */\n      0x20\n        /* \"#utility.yul\":4496:4505   */\n      dup3\n        /* \"#utility.yul\":4487:4494   */\n      dup5\n        /* \"#utility.yul\":4483:4506   */\n      sub\n        /* \"#utility.yul\":4479:4511   */\n      slt\n        /* \"#utility.yul\":4476:4595   */\n      iszero\n      tag_386\n      jumpi\n        /* \"#utility.yul\":4514:4593   */\n      tag_387\n      tag_359\n      jump\t// in\n    tag_387:\n        /* \"#utility.yul\":4476:4595   */\n    tag_386:\n        /* \"#utility.yul\":4634:4635   */\n      0x00\n        /* \"#utility.yul\":4659:4723   */\n      tag_388\n        /* \"#utility.yul\":4715:4722   */\n      dup5\n        /* \"#utility.yul\":4706:4712   */\n      dup3\n        /* \"#utility.yul\":4695:4704   */\n      dup6\n        /* \"#utility.yul\":4691:4713   */\n      add\n        /* \"#utility.yul\":4659:4723   */\n      tag_331\n      jump\t// in\n    tag_388:\n        /* \"#utility.yul\":4649:4723   */\n      swap2\n      pop\n        /* \"#utility.yul\":4605:4733   */\n      pop\n        /* \"#utility.yul\":4389:4740   */\n      swap3\n      swap2\n      pop\n      pop\n      jump\t// out\n        /* \"#utility.yul\":4746:4925   */\n    tag_389:\n        /* \"#utility.yul\":4815:4825   */\n      0x00\n        /* \"#utility.yul\":4836:4882   */\n      tag_391\n        /* \"#utility.yul\":4878:4881   */\n      dup4\n        /* \"#utility.yul\":4870:4876   */\n      dup4\n        /* \"#utility.yul\":4836:4882   */\n      tag_392\n      jump\t// in\n    tag_391:\n        /* \"#utility.yul\":4914:4918   */\n      0x20\n        /* \"#utility.yul\":4909:4912   */\n      dup4\n        /* \"#utility.yul\":4905:4919   */\n      add\n        /* \"#utility.yul\":4891:4919   */\n      swap1\n      pop\n        /* \"#utility.yul\":4746:4925   */\n      swap3\n      swap2\n      pop\n      pop\n      jump\t// out\n        /* \"#utility.yul\":4931:5039   */\n    tag_392:\n        /* \"#utility.yul\":5008:5032   */\n      tag_394\n        /* \"#utility.yul\":5026:5031   */\n      dup2\n        /* \"#utility.yul\":5008:5032   */\n      tag_395\n      jump\t// in\n    tag_394:\n        /* \"#utility.yul\":5003:5006   */\n      dup3\n        /* \"#utility.yul\":4996:5033   */\n      mstore\n        /* \"#utility.yul\":4931:5039   */\n      pop\n      pop\n      jump\t// out\n        /* \"#utility.yul\":5045:5163   */\n    tag_396:\n        /* \"#utility.yul\":5132:5156   */\n      tag_398\n        /* \"#utility.yul\":5150:5155   */\n      dup2\n        /* \"#utility.yul\":5132:5156   */\n      tag_395\n      jump\t// in\n    tag_398:\n        /* \"#utility.yul\":5127:5130   */\n      dup3\n        /* \"#utility.yul\":5120:5157   */\n      mstore\n        /* \"#utility.yul\":5045:5163   */\n      pop\n      pop\n      jump\t// out\n        /* \"#utility.yul\":5199:5931   */\n    tag_399:\n        /* \"#utility.yul\":5318:5321   */\n      0x00\n        /* \"#utility.yul\":5347:5401   */\n      tag_401\n        /* \"#utility.yul\":5395:5400   */\n      dup3\n        /* \"#utility.yul\":5347:5401   */\n      tag_402\n      jump\t// in\n    tag_401:\n        /* \"#utility.yul\":5417:5503   */\n      tag_403\n        /* \"#utility.yul\":5496:5502   */\n      dup2\n        /* \"#utility.yul\":5491:5494   */\n      dup6\n        /* \"#utility.yul\":5417:5503   */\n      tag_404\n      jump\t// in\n    tag_403:\n        /* \"#utility.yul\":5410:5503   */\n      swap4\n      pop\n        /* \"#utility.yul\":5527:5583   */\n      tag_405\n        /* \"#utility.yul\":5577:5582   */\n      dup4\n        /* \"#utility.yul\":5527:5583   */\n      tag_406\n      jump\t// in\n    tag_405:\n        /* \"#utility.yul\":5606:5613   */\n      dup1\n        /* \"#utility.yul\":5637:5638   */\n      0x00\n        /* \"#utility.yul\":5622:5906   */\n    tag_407:\n        /* \"#utility.yul\":5647:5653   */\n      dup4\n        /* \"#utility.yul\":5644:5645   */\n      dup2\n        /* \"#utility.yul\":5641:5654   */\n      lt\n        /* \"#utility.yul\":5622:5906   */\n      iszero\n      tag_409\n      jumpi\n        /* \"#utility.yul\":5723:5729   */\n      dup2\n        /* \"#utility.yul\":5717:5730   */\n      mload\n        /* \"#utility.yul\":5750:5813   */\n      tag_410\n        /* \"#utility.yul\":5809:5812   */\n      dup9\n        /* \"#utility.yul\":5794:5807   */\n      dup3\n        /* \"#utility.yul\":5750:5813   */\n      tag_389\n      jump\t// in\n    tag_410:\n        /* \"#utility.yul\":5743:5813   */\n      swap8\n      pop\n        /* \"#utility.yul\":5836:5896   */\n      tag_411\n        /* \"#utility.yul\":5889:5895   */\n      dup4\n        /* \"#utility.yul\":5836:5896   */\n      tag_412\n      jump\t// in\n    tag_411:\n        /* \"#utility.yul\":5826:5896   */\n      swap3\n      pop\n        /* \"#utility.yul\":5682:5906   */\n      pop\n        /* \"#utility.yul\":5669:5670   */\n      0x01\n        /* \"#utility.yul\":5666:5667   */\n      dup2\n        /* \"#utility.yul\":5662:5671   */\n      add\n        /* \"#utility.yul\":5657:5671   */\n      swap1\n      pop\n        /* \"#utility.yul\":5622:5906   */\n      jump(tag_407)\n    tag_409:\n        /* \"#utility.yul\":5626:5640   */\n      pop\n        /* \"#utility.yul\":5922:5925   */\n      dup6\n        /* \"#utility.yul\":5915:5925   */\n      swap4\n      pop\n        /* \"#utility.yul\":5323:5931   */\n      pop\n      pop\n      pop\n        /* \"#utility.yul\":5199:5931   */\n      swap3\n      swap2\n      pop\n      pop\n      jump\t// out\n        /* \"#utility.yul\":5937:6046   */\n    tag_413:\n        /* \"#utility.yul\":6018:6039   */\n      tag_415\n        /* \"#utility.yul\":6033:6038   */\n      dup2\n        /* \"#utility.yul\":6018:6039   */\n      tag_416\n      jump\t// in\n    tag_415:\n        /* \"#utility.yul\":6013:6016   */\n      dup3\n        /* \"#utility.yul\":6006:6040   */\n      mstore\n        /* \"#utility.yul\":5937:6046   */\n      pop\n      pop\n      jump\t// out\n        /* \"#utility.yul\":6052:6199   */\n    tag_417:\n        /* \"#utility.yul\":6147:6192   */\n      tag_419\n        /* \"#utility.yul\":6186:6191   */\n      dup2\n        /* \"#utility.yul\":6147:6192   */\n      tag_420\n      jump\t// in\n    tag_419:\n        /* \"#utility.yul\":6142:6145   */\n      dup3\n        /* \"#utility.yul\":6135:6193   */\n      mstore\n        /* \"#utility.yul\":6052:6199   */\n      pop\n      pop\n      jump\t// out\n        /* \"#utility.yul\":6205:6388   */\n    tag_421:\n        /* \"#utility.yul\":6318:6381   */\n      tag_423\n        /* \"#utility.yul\":6375:6380   */\n      dup2\n        /* \"#utility.yul\":6318:6381   */\n      tag_424\n      jump\t// in\n    tag_423:\n        /* \"#utility.yul\":6313:6316   */\n      dup3\n        /* \"#utility.yul\":6306:6382   */\n      mstore\n        /* \"#utility.yul\":6205:6388   */\n      pop\n      pop\n      jump\t// out\n        /* \"#utility.yul\":6394:6760   */\n    tag_425:\n        /* \"#utility.yul\":6536:6539   */\n      0x00\n        /* \"#utility.yul\":6557:6624   */\n      tag_427\n        /* \"#utility.yul\":6621:6623   */\n      0x14\n        /* \"#utility.yul\":6616:6619   */\n      dup4\n        /* \"#utility.yul\":6557:6624   */\n      tag_428\n      jump\t// in\n    tag_427:\n        /* \"#utility.yul\":6550:6624   */\n      swap2\n      pop\n        /* \"#utility.yul\":6633:6726   */\n      tag_429\n        /* \"#utility.yul\":6722:6725   */\n      dup3\n        /* \"#utility.yul\":6633:6726   */\n      tag_430\n      jump\t// in\n    tag_429:\n        /* \"#utility.yul\":6751:6753   */\n      0x20\n        /* \"#utility.yul\":6746:6749   */\n      dup3\n        /* \"#utility.yul\":6742:6754   */\n      add\n        /* \"#utility.yul\":6735:6754   */\n      swap1\n      pop\n        /* \"#utility.yul\":6394:6760   */\n      swap2\n      swap1\n      pop\n      jump\t// out\n        /* \"#utility.yul\":6766:7132   */\n    tag_431:\n        /* \"#utility.yul\":6908:6911   */\n      0x00\n        /* \"#utility.yul\":6929:6996   */\n      tag_433\n        /* \"#utility.yul\":6993:6995   */\n      0x1d\n        /* \"#utility.yul\":6988:6991   */\n      dup4\n        /* \"#utility.yul\":6929:6996   */\n      tag_428\n      jump\t// in\n    tag_433:\n        /* \"#utility.yul\":6922:6996   */\n      swap2\n      pop\n        /* \"#utility.yul\":7005:7098   */\n      tag_434\n        /* \"#utility.yul\":7094:7097   */\n      dup3\n        /* \"#utility.yul\":7005:7098   */\n      tag_435\n      jump\t// in\n    tag_434:\n        /* \"#utility.yul\":7123:7125   */\n      0x20\n        /* \"#utility.yul\":7118:7121   */\n      dup3\n        /* \"#utility.yul\":7114:7126   */\n      add\n        /* \"#utility.yul\":7107:7126   */\n      swap1\n      pop\n        /* \"#utility.yul\":6766:7132   */\n      swap2\n      swap1\n      pop\n      jump\t// out\n        /* \"#utility.yul\":7138:7504   */\n    tag_436:\n        /* \"#utility.yul\":7280:7283   */\n      0x00\n        /* \"#utility.yul\":7301:7368   */\n      tag_438\n        /* \"#utility.yul\":7365:7367   */\n      0x26\n        /* \"#utility.yul\":7360:7363   */\n      dup4\n        /* \"#utility.yul\":7301:7368   */\n      tag_428\n      jump\t// in\n    tag_438:\n        /* \"#utility.yul\":7294:7368   */\n      swap2\n      pop\n        /* \"#utility.yul\":7377:7470   */\n      tag_439\n        /* \"#utility.yul\":7466:7469   */\n      dup3\n        /* \"#utility.yul\":7377:7470   */\n      tag_440\n      jump\t// in\n    tag_439:\n        /* \"#utility.yul\":7495:7497   */\n      0x40\n        /* \"#utility.yul\":7490:7493   */\n      dup3\n        /* \"#utility.yul\":7486:7498   */\n      add\n        /* \"#utility.yul\":7479:7498   */\n      swap1\n      pop\n        /* \"#utility.yul\":7138:7504   */\n      swap2\n      swap1\n      pop\n      jump\t// out\n        /* \"#utility.yul\":7510:7876   */\n    tag_441:\n        /* \"#utility.yul\":7652:7655   */\n      0x00\n        /* \"#utility.yul\":7673:7740   */\n      tag_443\n        /* \"#utility.yul\":7737:7739   */\n      0x1e\n        /* \"#utility.yul\":7732:7735   */\n      dup4\n        /* \"#utility.yul\":7673:7740   */\n      tag_428\n      jump\t// in\n    tag_443:\n        /* \"#utility.yul\":7666:7740   */\n      swap2\n      pop\n        /* \"#utility.yul\":7749:7842   */\n      tag_444\n        /* \"#utility.yul\":7838:7841   */\n      dup3\n        /* \"#utility.yul\":7749:7842   */\n      tag_445\n      jump\t// in\n    tag_444:\n        /* \"#utility.yul\":7867:7869   */\n      0x20\n        /* \"#utility.yul\":7862:7865   */\n      dup3\n        /* \"#utility.yul\":7858:7870   */\n      add\n        /* \"#utility.yul\":7851:7870   */\n      swap1\n      pop\n        /* \"#utility.yul\":7510:7876   */\n      swap2\n      swap1\n      pop\n      jump\t// out\n        /* \"#utility.yul\":7882:8248   */\n    tag_446:\n        /* \"#utility.yul\":8024:8027   */\n      0x00\n        /* \"#utility.yul\":8045:8112   */\n      tag_448\n        /* \"#utility.yul\":8109:8111   */\n      0x1b\n        /* \"#utility.yul\":8104:8107   */\n      dup4\n        /* \"#utility.yul\":8045:8112   */\n      tag_428\n      jump\t// in\n    tag_448:\n        /* \"#utility.yul\":8038:8112   */\n      swap2\n      pop\n        /* \"#utility.yul\":8121:8214   */\n      tag_449\n        /* \"#utility.yul\":8210:8213   */\n      dup3\n        /* \"#utility.yul\":8121:8214   */\n      tag_450\n      jump\t// in\n    tag_449:\n        /* \"#utility.yul\":8239:8241   */\n      0x20\n        /* \"#utility.yul\":8234:8237   */\n      dup3\n        /* \"#utility.yul\":8230:8242   */\n      add\n        /* \"#utility.yul\":8223:8242   */\n      swap1\n      pop\n        /* \"#utility.yul\":7882:8248   */\n      swap2\n      swap1\n      pop\n      jump\t// out\n        /* \"#utility.yul\":8254:8620   */\n    tag_451:\n        /* \"#utility.yul\":8396:8399   */\n      0x00\n        /* \"#utility.yul\":8417:8484   */\n      tag_453\n        /* \"#utility.yul\":8481:8483   */\n      0x27\n        /* \"#utility.yul\":8476:8479   */\n      dup4\n        /* \"#utility.yul\":8417:8484   */\n      tag_428\n      jump\t// in\n    tag_453:\n        /* \"#utility.yul\":8410:8484   */\n      swap2\n      pop\n        /* \"#utility.yul\":8493:8586   */\n      tag_454\n        /* \"#utility.yul\":8582:8585   */\n      dup3\n        /* \"#utility.yul\":8493:8586   */\n      tag_455\n      jump\t// in\n    tag_454:\n        /* \"#utility.yul\":8611:8613   */\n      0x40\n        /* \"#utility.yul\":8606:8609   */\n      dup3\n        /* \"#utility.yul\":8602:8614   */\n      add\n        /* \"#utility.yul\":8595:8614   */\n      swap1\n      pop\n        /* \"#utility.yul\":8254:8620   */\n      swap2\n      swap1\n      pop\n      jump\t// out\n        /* \"#utility.yul\":8626:8992   */\n    tag_456:\n        /* \"#utility.yul\":8768:8771   */\n      0x00\n        /* \"#utility.yul\":8789:8856   */\n      tag_458\n        /* \"#utility.yul\":8853:8855   */\n      0x1c\n        /* \"#utility.yul\":8848:8851   */\n      dup4\n        /* \"#utility.yul\":8789:8856   */\n      tag_428\n      jump\t// in\n    tag_458:\n        /* \"#utility.yul\":8782:8856   */\n      swap2\n      pop\n        /* \"#utility.yul\":8865:8958   */\n      tag_459\n        /* \"#utility.yul\":8954:8957   */\n      dup3\n        /* \"#utility.yul\":8865:8958   */\n      tag_460\n      jump\t// in\n    tag_459:\n        /* \"#utility.yul\":8983:8985   */\n      0x20\n        /* \"#utility.yul\":8978:8981   */\n      dup3\n        /* \"#utility.yul\":8974:8986   */\n      add\n        /* \"#utility.yul\":8967:8986   */\n      swap1\n      pop\n        /* \"#utility.yul\":8626:8992   */\n      swap2\n      swap1\n      pop\n      jump\t// out\n        /* \"#utility.yul\":8998:9364   */\n    tag_461:\n        /* \"#utility.yul\":9140:9143   */\n      0x00\n        /* \"#utility.yul\":9161:9228   */\n      tag_463\n        /* \"#utility.yul\":9225:9227   */\n      0x29\n        /* \"#utility.yul\":9220:9223   */\n      dup4\n        /* \"#utility.yul\":9161:9228   */\n      tag_428\n      jump\t// in\n    tag_463:\n        /* \"#utility.yul\":9154:9228   */\n      swap2\n      pop\n        /* \"#utility.yul\":9237:9330   */\n      tag_464\n        /* \"#utility.yul\":9326:9329   */\n      dup3\n        /* \"#utility.yul\":9237:9330   */\n      tag_465\n      jump\t// in\n    tag_464:\n        /* \"#utility.yul\":9355:9357   */\n      0x40\n        /* \"#utility.yul\":9350:9353   */\n      dup3\n        /* \"#utility.yul\":9346:9358   */\n      add\n        /* \"#utility.yul\":9339:9358   */\n      swap1\n      pop\n        /* \"#utility.yul\":8998:9364   */\n      swap2\n      swap1\n      pop\n      jump\t// out\n        /* \"#utility.yul\":9370:9736   */\n    tag_466:\n        /* \"#utility.yul\":9512:9515   */\n      0x00\n        /* \"#utility.yul\":9533:9600   */\n      tag_468\n        /* \"#utility.yul\":9597:9599   */\n      0x10\n        /* \"#utility.yul\":9592:9595   */\n      dup4\n        /* \"#utility.yul\":9533:9600   */\n      tag_428\n      jump\t// in\n    tag_468:\n        /* \"#utility.yul\":9526:9600   */\n      swap2\n      pop\n        /* \"#utility.yul\":9609:9702   */\n      tag_469\n        /* \"#utility.yul\":9698:9701   */\n      dup3\n        /* \"#utility.yul\":9609:9702   */\n      tag_470\n      jump\t// in\n    tag_469:\n        /* \"#utility.yul\":9727:9729   */\n      0x20\n        /* \"#utility.yul\":9722:9725   */\n      dup3\n        /* \"#utility.yul\":9718:9730   */\n      add\n        /* \"#utility.yul\":9711:9730   */\n      swap1\n      pop\n        /* \"#utility.yul\":9370:9736   */\n      swap2\n      swap1\n      pop\n      jump\t// out\n        /* \"#utility.yul\":9742:10108   */\n    tag_471:\n        /* \"#utility.yul\":9884:9887   */\n      0x00\n        /* \"#utility.yul\":9905:9972   */\n      tag_473\n        /* \"#utility.yul\":9969:9971   */\n      0x20\n        /* \"#utility.yul\":9964:9967   */\n      dup4\n        /* \"#utility.yul\":9905:9972   */\n      tag_428\n      jump\t// in\n    tag_473:\n        /* \"#utility.yul\":9898:9972   */\n      swap2\n      pop\n        /* \"#utility.yul\":9981:10074   */\n      tag_474\n        /* \"#utility.yul\":10070:10073   */\n      dup3\n        /* \"#utility.yul\":9981:10074   */\n      tag_475\n      jump\t// in\n    tag_474:\n        /* \"#utility.yul\":10099:10101   */\n      0x20\n        /* \"#utility.yul\":10094:10097   */\n      dup3\n        /* \"#utility.yul\":10090:10102   */\n      add\n        /* \"#utility.yul\":10083:10102   */\n      swap1\n      pop\n        /* \"#utility.yul\":9742:10108   */\n      swap2\n      swap1\n      pop\n      jump\t// out\n        /* \"#utility.yul\":10114:10480   */\n    tag_476:\n        /* \"#utility.yul\":10256:10259   */\n      0x00\n        /* \"#utility.yul\":10277:10344   */\n      tag_478\n        /* \"#utility.yul\":10341:10343   */\n      0x1f\n        /* \"#utility.yul\":10336:10339   */\n      dup4\n        /* \"#utility.yul\":10277:10344   */\n      tag_428\n      jump\t// in\n    tag_478:\n        /* \"#utility.yul\":10270:10344   */\n      swap2\n      pop\n        /* \"#utility.yul\":10353:10446   */\n      tag_479\n        /* \"#utility.yul\":10442:10445   */\n      dup3\n        /* \"#utility.yul\":10353:10446   */\n      tag_480\n      jump\t// in\n    tag_479:\n        /* \"#utility.yul\":10471:10473   */\n      0x20\n        /* \"#utility.yul\":10466:10469   */\n      dup3\n        /* \"#utility.yul\":10462:10474   */\n      add\n        /* \"#utility.yul\":10455:10474   */\n      swap1\n      pop\n        /* \"#utility.yul\":10114:10480   */\n      swap2\n      swap1\n      pop\n      jump\t// out\n        /* \"#utility.yul\":10486:10852   */\n    tag_481:\n        /* \"#utility.yul\":10628:10631   */\n      0x00\n        /* \"#utility.yul\":10649:10716   */\n      tag_483\n        /* \"#utility.yul\":10713:10715   */\n      0x1e\n        /* \"#utility.yul\":10708:10711   */\n      dup4\n        /* \"#utility.yul\":10649:10716   */\n      tag_428\n      jump\t// in\n    tag_483:\n        /* \"#utility.yul\":10642:10716   */\n      swap2\n      pop\n        /* \"#utility.yul\":10725:10818   */\n      tag_484\n        /* \"#utility.yul\":10814:10817   */\n      dup3\n        /* \"#utility.yul\":10725:10818   */\n      tag_485\n      jump\t// in\n    tag_484:\n        /* \"#utility.yul\":10843:10845   */\n      0x20\n        /* \"#utility.yul\":10838:10841   */\n      dup3\n        /* \"#utility.yul\":10834:10846   */\n      add\n        /* \"#utility.yul\":10827:10846   */\n      swap1\n      pop\n        /* \"#utility.yul\":10486:10852   */\n      swap2\n      swap1\n      pop\n      jump\t// out\n        /* \"#utility.yul\":10858:11224   */\n    tag_486:\n        /* \"#utility.yul\":11000:11003   */\n      0x00\n        /* \"#utility.yul\":11021:11088   */\n      tag_488\n        /* \"#utility.yul\":11085:11087   */\n      0x1f\n        /* \"#utility.yul\":11080:11083   */\n      dup4\n        /* \"#utility.yul\":11021:11088   */\n      tag_428\n      jump\t// in\n    tag_488:\n        /* \"#utility.yul\":11014:11088   */\n      swap2\n      pop\n        /* \"#utility.yul\":11097:11190   */\n      tag_489\n        /* \"#utility.yul\":11186:11189   */\n      dup3\n        /* \"#utility.yul\":11097:11190   */\n      tag_490\n      jump\t// in\n    tag_489:\n        /* \"#utility.yul\":11215:11217   */\n      0x20\n        /* \"#utility.yul\":11210:11213   */\n      dup3\n        /* \"#utility.yul\":11206:11218   */\n      add\n        /* \"#utility.yul\":11199:11218   */\n      swap1\n      pop\n        /* \"#utility.yul\":10858:11224   */\n      swap2\n      swap1\n      pop\n      jump\t// out\n        /* \"#utility.yul\":11230:11348   */\n    tag_491:\n        /* \"#utility.yul\":11317:11341   */\n      tag_493\n        /* \"#utility.yul\":11335:11340   */\n      dup2\n        /* \"#utility.yul\":11317:11341   */\n      tag_494\n      jump\t// in\n    tag_493:\n        /* \"#utility.yul\":11312:11315   */\n      dup3\n        /* \"#utility.yul\":11305:11342   */\n      mstore\n        /* \"#utility.yul\":11230:11348   */\n      pop\n      pop\n      jump\t// out\n        /* \"#utility.yul\":11354:11576   */\n    tag_79:\n        /* \"#utility.yul\":11447:11451   */\n      0x00\n        /* \"#utility.yul\":11485:11487   */\n      0x20\n        /* \"#utility.yul\":11474:11483   */\n      dup3\n        /* \"#utility.yul\":11470:11488   */\n      add\n        /* \"#utility.yul\":11462:11488   */\n      swap1\n      pop\n        /* \"#utility.yul\":11498:11569   */\n      tag_496\n        /* \"#utility.yul\":11566:11567   */\n      0x00\n        /* \"#utility.yul\":11555:11564   */\n      dup4\n        /* \"#utility.yul\":11551:11568   */\n      add\n        /* \"#utility.yul\":11542:11548   */\n      dup5\n        /* \"#utility.yul\":11498:11569   */\n      tag_396\n      jump\t// in\n    tag_496:\n        /* \"#utility.yul\":11354:11576   */\n      swap3\n      swap2\n      pop\n      pop\n      jump\t// out\n        /* \"#utility.yul\":11582:12024   */\n    tag_143:\n        /* \"#utility.yul\":11731:11735   */\n      0x00\n        /* \"#utility.yul\":11769:11771   */\n      0x60\n        /* \"#utility.yul\":11758:11767   */\n      dup3\n        /* \"#utility.yul\":11754:11772   */\n      add\n        /* \"#utility.yul\":11746:11772   */\n      swap1\n      pop\n        /* \"#utility.yul\":11782:11853   */\n      tag_498\n        /* \"#utility.yul\":11850:11851   */\n      0x00\n        /* \"#utility.yul\":11839:11848   */\n      dup4\n        /* \"#utility.yul\":11835:11852   */\n      add\n        /* \"#utility.yul\":11826:11832   */\n      dup7\n        /* \"#utility.yul\":11782:11853   */\n      tag_396\n      jump\t// in\n    tag_498:\n        /* \"#utility.yul\":11863:11935   */\n      tag_499\n        /* \"#utility.yul\":11931:11933   */\n      0x20\n        /* \"#utility.yul\":11920:11929   */\n      dup4\n        /* \"#utility.yul\":11916:11934   */\n      add\n        /* \"#utility.yul\":11907:11913   */\n      dup6\n        /* \"#utility.yul\":11863:11935   */\n      tag_396\n      jump\t// in\n    tag_499:\n        /* \"#utility.yul\":11945:12017   */\n      tag_500\n        /* \"#utility.yul\":12013:12015   */\n      0x40\n        /* \"#utility.yul\":12002:12011   */\n      dup4\n        /* \"#utility.yul\":11998:12016   */\n      add\n        /* \"#utility.yul\":11989:11995   */\n      dup5\n        /* \"#utility.yul\":11945:12017   */\n      tag_491\n      jump\t// in\n    tag_500:\n        /* \"#utility.yul\":11582:12024   */\n      swap5\n      swap4\n      pop\n      pop\n      pop\n      pop\n      jump\t// out\n        /* \"#utility.yul\":12030:12378   */\n    tag_153:\n        /* \"#utility.yul\":12159:12163   */\n      0x00\n        /* \"#utility.yul\":12197:12199   */\n      0x40\n        /* \"#utility.yul\":12186:12195   */\n      dup3\n        /* \"#utility.yul\":12182:12200   */\n      add\n        /* \"#utility.yul\":12174:12200   */\n      swap1\n      pop\n        /* \"#utility.yul\":12210:12281   */\n      tag_502\n        /* \"#utility.yul\":12278:12279   */\n      0x00\n        /* \"#utility.yul\":12267:12276   */\n      dup4\n        /* \"#utility.yul\":12263:12280   */\n      add\n        /* \"#utility.yul\":12254:12260   */\n      dup6\n        /* \"#utility.yul\":12210:12281   */\n      tag_396\n      jump\t// in\n    tag_502:\n        /* \"#utility.yul\":12291:12371   */\n      tag_503\n        /* \"#utility.yul\":12367:12369   */\n      0x20\n        /* \"#utility.yul\":12356:12365   */\n      dup4\n        /* \"#utility.yul\":12352:12370   */\n      add\n        /* \"#utility.yul\":12343:12349   */\n      dup5\n        /* \"#utility.yul\":12291:12371   */\n      tag_417\n      jump\t// in\n    tag_503:\n        /* \"#utility.yul\":12030:12378   */\n      swap4\n      swap3\n      pop\n      pop\n      pop\n      jump\t// out\n        /* \"#utility.yul\":12384:12716   */\n    tag_26:\n        /* \"#utility.yul\":12505:12509   */\n      0x00\n        /* \"#utility.yul\":12543:12545   */\n      0x40\n        /* \"#utility.yul\":12532:12541   */\n      dup3\n        /* \"#utility.yul\":12528:12546   */\n      add\n        /* \"#utility.yul\":12520:12546   */\n      swap1\n      pop\n        /* \"#utility.yul\":12556:12627   */\n      tag_505\n        /* \"#utility.yul\":12624:12625   */\n      0x00\n        /* \"#utility.yul\":12613:12622   */\n      dup4\n        /* \"#utility.yul\":12609:12626   */\n      add\n        /* \"#utility.yul\":12600:12606   */\n      dup6\n        /* \"#utility.yul\":12556:12627   */\n      tag_396\n      jump\t// in\n    tag_505:\n        /* \"#utility.yul\":12637:12709   */\n      tag_506\n        /* \"#utility.yul\":12705:12707   */\n      0x20\n        /* \"#utility.yul\":12694:12703   */\n      dup4\n        /* \"#utility.yul\":12690:12708   */\n      add\n        /* \"#utility.yul\":12681:12687   */\n      dup5\n        /* \"#utility.yul\":12637:12709   */\n      tag_491\n      jump\t// in\n    tag_506:\n        /* \"#utility.yul\":12384:12716   */\n      swap4\n      swap3\n      pop\n      pop\n      pop\n      jump\t// out\n        /* \"#utility.yul\":12722:12932   */\n    tag_56:\n        /* \"#utility.yul\":12809:12813   */\n      0x00\n        /* \"#utility.yul\":12847:12849   */\n      0x20\n        /* \"#utility.yul\":12836:12845   */\n      dup3\n        /* \"#utility.yul\":12832:12850   */\n      add\n        /* \"#utility.yul\":12824:12850   */\n      swap1\n      pop\n        /* \"#utility.yul\":12860:12925   */\n      tag_508\n        /* \"#utility.yul\":12922:12923   */\n      0x00\n        /* \"#utility.yul\":12911:12920   */\n      dup4\n        /* \"#utility.yul\":12907:12924   */\n      add\n        /* \"#utility.yul\":12898:12904   */\n      dup5\n        /* \"#utility.yul\":12860:12925   */\n      tag_413\n      jump\t// in\n    tag_508:\n        /* \"#utility.yul\":12722:12932   */\n      swap3\n      swap2\n      pop\n      pop\n      jump\t// out\n        /* \"#utility.yul\":12938:13473   */\n    tag_282:\n        /* \"#utility.yul\":13135:13139   */\n      0x00\n        /* \"#utility.yul\":13173:13175   */\n      0x40\n        /* \"#utility.yul\":13162:13171   */\n      dup3\n        /* \"#utility.yul\":13158:13176   */\n      add\n        /* \"#utility.yul\":13150:13176   */\n      swap1\n      pop\n        /* \"#utility.yul\":13186:13283   */\n      tag_510\n        /* \"#utility.yul\":13280:13281   */\n      0x00\n        /* \"#utility.yul\":13269:13278   */\n      dup4\n        /* \"#utility.yul\":13265:13282   */\n      add\n        /* \"#utility.yul\":13256:13262   */\n      dup6\n        /* \"#utility.yul\":13186:13283   */\n      tag_421\n      jump\t// in\n    tag_510:\n        /* \"#utility.yul\":13330:13339   */\n      dup2\n        /* \"#utility.yul\":13324:13328   */\n      dup2\n        /* \"#utility.yul\":13320:13340   */\n      sub\n        /* \"#utility.yul\":13315:13317   */\n      0x20\n        /* \"#utility.yul\":13304:13313   */\n      dup4\n        /* \"#utility.yul\":13300:13318   */\n      add\n        /* \"#utility.yul\":13293:13341   */\n      mstore\n        /* \"#utility.yul\":13358:13466   */\n      tag_511\n        /* \"#utility.yul\":13461:13465   */\n      dup2\n        /* \"#utility.yul\":13452:13458   */\n      dup5\n        /* \"#utility.yul\":13358:13466   */\n      tag_399\n      jump\t// in\n    tag_511:\n        /* \"#utility.yul\":13350:13466   */\n      swap1\n      pop\n        /* \"#utility.yul\":12938:13473   */\n      swap4\n      swap3\n      pop\n      pop\n      pop\n      jump\t// out\n        /* \"#utility.yul\":13479:13898   */\n    tag_267:\n        /* \"#utility.yul\":13645:13649   */\n      0x00\n        /* \"#utility.yul\":13683:13685   */\n      0x20\n        /* \"#utility.yul\":13672:13681   */\n      dup3\n        /* \"#utility.yul\":13668:13686   */\n      add\n        /* \"#utility.yul\":13660:13686   */\n      swap1\n      pop\n        /* \"#utility.yul\":13732:13741   */\n      dup2\n        /* \"#utility.yul\":13726:13730   */\n      dup2\n        /* \"#utility.yul\":13722:13742   */\n      sub\n        /* \"#utility.yul\":13718:13719   */\n      0x00\n        /* \"#utility.yul\":13707:13716   */\n      dup4\n        /* \"#utility.yul\":13703:13720   */\n      add\n        /* \"#utility.yul\":13696:13743   */\n      mstore\n        /* \"#utility.yul\":13760:13891   */\n      tag_513\n        /* \"#utility.yul\":13886:13890   */\n      dup2\n        /* \"#utility.yul\":13760:13891   */\n      tag_425\n      jump\t// in\n    tag_513:\n        /* \"#utility.yul\":13752:13891   */\n      swap1\n      pop\n        /* \"#utility.yul\":13479:13898   */\n      swap2\n      swap1\n      pop\n      jump\t// out\n        /* \"#utility.yul\":13904:14323   */\n    tag_131:\n        /* \"#utility.yul\":14070:14074   */\n      0x00\n        /* \"#utility.yul\":14108:14110   */\n      0x20\n        /* \"#utility.yul\":14097:14106   */\n      dup3\n        /* \"#utility.yul\":14093:14111   */\n      add\n        /* \"#utility.yul\":14085:14111   */\n      swap1\n      pop\n        /* \"#utility.yul\":14157:14166   */\n      dup2\n        /* \"#utility.yul\":14151:14155   */\n      dup2\n        /* \"#utility.yul\":14147:14167   */\n      sub\n        /* \"#utility.yul\":14143:14144   */\n      0x00\n        /* \"#utility.yul\":14132:14141   */\n      dup4\n        /* \"#utility.yul\":14128:14145   */\n      add\n        /* \"#utility.yul\":14121:14168   */\n      mstore\n        /* \"#utility.yul\":14185:14316   */\n      tag_515\n        /* \"#utility.yul\":14311:14315   */\n      dup2\n        /* \"#utility.yul\":14185:14316   */\n      tag_431\n      jump\t// in\n    tag_515:\n        /* \"#utility.yul\":14177:14316   */\n      swap1\n      pop\n        /* \"#utility.yul\":13904:14323   */\n      swap2\n      swap1\n      pop\n      jump\t// out\n        /* \"#utility.yul\":14329:14748   */\n    tag_260:\n        /* \"#utility.yul\":14495:14499   */\n      0x00\n        /* \"#utility.yul\":14533:14535   */\n      0x20\n        /* \"#utility.yul\":14522:14531   */\n      dup3\n        /* \"#utility.yul\":14518:14536   */\n      add\n        /* \"#utility.yul\":14510:14536   */\n      swap1\n      pop\n        /* \"#utility.yul\":14582:14591   */\n      dup2\n        /* \"#utility.yul\":14576:14580   */\n      dup2\n        /* \"#utility.yul\":14572:14592   */\n      sub\n        /* \"#utility.yul\":14568:14569   */\n      0x00\n        /* \"#utility.yul\":14557:14566   */\n      dup4\n        /* \"#utility.yul\":14553:14570   */\n      add\n        /* \"#utility.yul\":14546:14593   */\n      mstore\n        /* \"#utility.yul\":14610:14741   */\n      tag_517\n        /* \"#utility.yul\":14736:14740   */\n      dup2\n        /* \"#utility.yul\":14610:14741   */\n      tag_436\n      jump\t// in\n    tag_517:\n        /* \"#utility.yul\":14602:14741   */\n      swap1\n      pop\n        /* \"#utility.yul\":14329:14748   */\n      swap2\n      swap1\n      pop\n      jump\t// out\n        /* \"#utility.yul\":14754:15173   */\n    tag_216:\n        /* \"#utility.yul\":14920:14924   */\n      0x00\n        /* \"#utility.yul\":14958:14960   */\n      0x20\n        /* \"#utility.yul\":14947:14956   */\n      dup3\n        /* \"#utility.yul\":14943:14961   */\n      add\n        /* \"#utility.yul\":14935:14961   */\n      swap1\n      pop\n        /* \"#utility.yul\":15007:15016   */\n      dup2\n        /* \"#utility.yul\":15001:15005   */\n      dup2\n        /* \"#utility.yul\":14997:15017   */\n      sub\n        /* \"#utility.yul\":14993:14994   */\n      0x00\n        /* \"#utility.yul\":14982:14991   */\n      dup4\n        /* \"#utility.yul\":14978:14995   */\n      add\n        /* \"#utility.yul\":14971:15018   */\n      mstore\n        /* \"#utility.yul\":15035:15166   */\n      tag_519\n        /* \"#utility.yul\":15161:15165   */\n      dup2\n        /* \"#utility.yul\":15035:15166   */\n      tag_441\n      jump\t// in\n    tag_519:\n        /* \"#utility.yul\":15027:15166   */\n      swap1\n      pop\n        /* \"#utility.yul\":14754:15173   */\n      swap2\n      swap1\n      pop\n      jump\t// out\n        /* \"#utility.yul\":15179:15598   */\n    tag_179:\n        /* \"#utility.yul\":15345:15349   */\n      0x00\n        /* \"#utility.yul\":15383:15385   */\n      0x20\n        /* \"#utility.yul\":15372:15381   */\n      dup3\n        /* \"#utility.yul\":15368:15386   */\n      add\n        /* \"#utility.yul\":15360:15386   */\n      swap1\n      pop\n        /* \"#utility.yul\":15432:15441   */\n      dup2\n        /* \"#utility.yul\":15426:15430   */\n      dup2\n        /* \"#utility.yul\":15422:15442   */\n      sub\n        /* \"#utility.yul\":15418:15419   */\n      0x00\n        /* \"#utility.yul\":15407:15416   */\n      dup4\n        /* \"#utility.yul\":15403:15420   */\n      add\n        /* \"#utility.yul\":15396:15443   */\n      mstore\n        /* \"#utility.yul\":15460:15591   */\n      tag_521\n        /* \"#utility.yul\":15586:15590   */\n      dup2\n        /* \"#utility.yul\":15460:15591   */\n      tag_446\n      jump\t// in\n    tag_521:\n        /* \"#utility.yul\":15452:15591   */\n      swap1\n      pop\n        /* \"#utility.yul\":15179:15598   */\n      swap2\n      swap1\n      pop\n      jump\t// out\n        /* \"#utility.yul\":15604:16023   */\n    tag_137:\n        /* \"#utility.yul\":15770:15774   */\n      0x00\n        /* \"#utility.yul\":15808:15810   */\n      0x20\n        /* \"#utility.yul\":15797:15806   */\n      dup3\n        /* \"#utility.yul\":15793:15811   */\n      add\n        /* \"#utility.yul\":15785:15811   */\n      swap1\n      pop\n        /* \"#utility.yul\":15857:15866   */\n      dup2\n        /* \"#utility.yul\":15851:15855   */\n      dup2\n        /* \"#utility.yul\":15847:15867   */\n      sub\n        /* \"#utility.yul\":15843:15844   */\n      0x00\n        /* \"#utility.yul\":15832:15841   */\n      dup4\n        /* \"#utility.yul\":15828:15845   */\n      add\n        /* \"#utility.yul\":15821:15868   */\n      mstore\n        /* \"#utility.yul\":15885:16016   */\n      tag_523\n        /* \"#utility.yul\":16011:16015   */\n      dup2\n        /* \"#utility.yul\":15885:16016   */\n      tag_451\n      jump\t// in\n    tag_523:\n        /* \"#utility.yul\":15877:16016   */\n      swap1\n      pop\n        /* \"#utility.yul\":15604:16023   */\n      swap2\n      swap1\n      pop\n      jump\t// out\n        /* \"#utility.yul\":16029:16448   */\n    tag_108:\n        /* \"#utility.yul\":16195:16199   */\n      0x00\n        /* \"#utility.yul\":16233:16235   */\n      0x20\n        /* \"#utility.yul\":16222:16231   */\n      dup3\n        /* \"#utility.yul\":16218:16236   */\n      add\n        /* \"#utility.yul\":16210:16236   */\n      swap1\n      pop\n        /* \"#utility.yul\":16282:16291   */\n      dup2\n        /* \"#utility.yul\":16276:16280   */\n      dup2\n        /* \"#utility.yul\":16272:16292   */\n      sub\n        /* \"#utility.yul\":16268:16269   */\n      0x00\n        /* \"#utility.yul\":16257:16266   */\n      dup4\n        /* \"#utility.yul\":16253:16270   */\n      add\n        /* \"#utility.yul\":16246:16293   */\n      mstore\n        /* \"#utility.yul\":16310:16441   */\n      tag_525\n        /* \"#utility.yul\":16436:16440   */\n      dup2\n        /* \"#utility.yul\":16310:16441   */\n      tag_456\n      jump\t// in\n    tag_525:\n        /* \"#utility.yul\":16302:16441   */\n      swap1\n      pop\n        /* \"#utility.yul\":16029:16448   */\n      swap2\n      swap1\n      pop\n      jump\t// out\n        /* \"#utility.yul\":16454:16873   */\n    tag_134:\n        /* \"#utility.yul\":16620:16624   */\n      0x00\n        /* \"#utility.yul\":16658:16660   */\n      0x20\n        /* \"#utility.yul\":16647:16656   */\n      dup3\n        /* \"#utility.yul\":16643:16661   */\n      add\n        /* \"#utility.yul\":16635:16661   */\n      swap1\n      pop\n        /* \"#utility.yul\":16707:16716   */\n      dup2\n        /* \"#utility.yul\":16701:16705   */\n      dup2\n        /* \"#utility.yul\":16697:16717   */\n      sub\n        /* \"#utility.yul\":16693:16694   */\n      0x00\n        /* \"#utility.yul\":16682:16691   */\n      dup4\n        /* \"#utility.yul\":16678:16695   */\n      add\n        /* \"#utility.yul\":16671:16718   */\n      mstore\n        /* \"#utility.yul\":16735:16866   */\n      tag_527\n        /* \"#utility.yul\":16861:16865   */\n      dup2\n        /* \"#utility.yul\":16735:16866   */\n      tag_461\n      jump\t// in\n    tag_527:\n        /* \"#utility.yul\":16727:16866   */\n      swap1\n      pop\n        /* \"#utility.yul\":16454:16873   */\n      swap2\n      swap1\n      pop\n      jump\t// out\n        /* \"#utility.yul\":16879:17298   */\n    tag_123:\n        /* \"#utility.yul\":17045:17049   */\n      0x00\n        /* \"#utility.yul\":17083:17085   */\n      0x20\n        /* \"#utility.yul\":17072:17081   */\n      dup3\n        /* \"#utility.yul\":17068:17086   */\n      add\n        /* \"#utility.yul\":17060:17086   */\n      swap1\n      pop\n        /* \"#utility.yul\":17132:17141   */\n      dup2\n        /* \"#utility.yul\":17126:17130   */\n      dup2\n        /* \"#utility.yul\":17122:17142   */\n      sub\n        /* \"#utility.yul\":17118:17119   */\n      0x00\n        /* \"#utility.yul\":17107:17116   */\n      dup4\n        /* \"#utility.yul\":17103:17120   */\n      add\n        /* \"#utility.yul\":17096:17143   */\n      mstore\n        /* \"#utility.yul\":17160:17291   */\n      tag_529\n        /* \"#utility.yul\":17286:17290   */\n      dup2\n        /* \"#utility.yul\":17160:17291   */\n      tag_466\n      jump\t// in\n    tag_529:\n        /* \"#utility.yul\":17152:17291   */\n      swap1\n      pop\n        /* \"#utility.yul\":16879:17298   */\n      swap2\n      swap1\n      pop\n      jump\t// out\n        /* \"#utility.yul\":17304:17723   */\n    tag_104:\n        /* \"#utility.yul\":17470:17474   */\n      0x00\n        /* \"#utility.yul\":17508:17510   */\n      0x20\n        /* \"#utility.yul\":17497:17506   */\n      dup3\n        /* \"#utility.yul\":17493:17511   */\n      add\n        /* \"#utility.yul\":17485:17511   */\n      swap1\n      pop\n        /* \"#utility.yul\":17557:17566   */\n      dup2\n        /* \"#utility.yul\":17551:17555   */\n      dup2\n        /* \"#utility.yul\":17547:17567   */\n      sub\n        /* \"#utility.yul\":17543:17544   */\n      0x00\n        /* \"#utility.yul\":17532:17541   */\n      dup4\n        /* \"#utility.yul\":17528:17545   */\n      add\n        /* \"#utility.yul\":17521:17568   */\n      mstore\n        /* \"#utility.yul\":17585:17716   */\n      tag_531\n        /* \"#utility.yul\":17711:17715   */\n      dup2\n        /* \"#utility.yul\":17585:17716   */\n      tag_471\n      jump\t// in\n    tag_531:\n        /* \"#utility.yul\":17577:17716   */\n      swap1\n      pop\n        /* \"#utility.yul\":17304:17723   */\n      swap2\n      swap1\n      pop\n      jump\t// out\n        /* \"#utility.yul\":17729:18148   */\n    tag_219:\n        /* \"#utility.yul\":17895:17899   */\n      0x00\n        /* \"#utility.yul\":17933:17935   */\n      0x20\n        /* \"#utility.yul\":17922:17931   */\n      dup3\n        /* \"#utility.yul\":17918:17936   */\n      add\n        /* \"#utility.yul\":17910:17936   */\n      swap1\n      pop\n        /* \"#utility.yul\":17982:17991   */\n      dup2\n        /* \"#utility.yul\":17976:17980   */\n      dup2\n        /* \"#utility.yul\":17972:17992   */\n      sub\n        /* \"#utility.yul\":17968:17969   */\n      0x00\n        /* \"#utility.yul\":17957:17966   */\n      dup4\n        /* \"#utility.yul\":17953:17970   */\n      add\n        /* \"#utility.yul\":17946:17993   */\n      mstore\n        /* \"#utility.yul\":18010:18141   */\n      tag_533\n        /* \"#utility.yul\":18136:18140   */\n      dup2\n        /* \"#utility.yul\":18010:18141   */\n      tag_476\n      jump\t// in\n    tag_533:\n        /* \"#utility.yul\":18002:18141   */\n      swap1\n      pop\n        /* \"#utility.yul\":17729:18148   */\n      swap2\n      swap1\n      pop\n      jump\t// out\n        /* \"#utility.yul\":18154:18573   */\n    tag_246:\n        /* \"#utility.yul\":18320:18324   */\n      0x00\n        /* \"#utility.yul\":18358:18360   */\n      0x20\n        /* \"#utility.yul\":18347:18356   */\n      dup3\n        /* \"#utility.yul\":18343:18361   */\n      add\n        /* \"#utility.yul\":18335:18361   */\n      swap1\n      pop\n        /* \"#utility.yul\":18407:18416   */\n      dup2\n        /* \"#utility.yul\":18401:18405   */\n      dup2\n        /* \"#utility.yul\":18397:18417   */\n      sub\n        /* \"#utility.yul\":18393:18394   */\n      0x00\n        /* \"#utility.yul\":18382:18391   */\n      dup4\n        /* \"#utility.yul\":18378:18395   */\n      add\n        /* \"#utility.yul\":18371:18418   */\n      mstore\n        /* \"#utility.yul\":18435:18566   */\n      tag_535\n        /* \"#utility.yul\":18561:18565   */\n      dup2\n        /* \"#utility.yul\":18435:18566   */\n      tag_481\n      jump\t// in\n    tag_535:\n        /* \"#utility.yul\":18427:18566   */\n      swap1\n      pop\n        /* \"#utility.yul\":18154:18573   */\n      swap2\n      swap1\n      pop\n      jump\t// out\n        /* \"#utility.yul\":18579:18998   */\n    tag_127:\n        /* \"#utility.yul\":18745:18749   */\n      0x00\n        /* \"#utility.yul\":18783:18785   */\n      0x20\n        /* \"#utility.yul\":18772:18781   */\n      dup3\n        /* \"#utility.yul\":18768:18786   */\n      add\n        /* \"#utility.yul\":18760:18786   */\n      swap1\n      pop\n        /* \"#utility.yul\":18832:18841   */\n      dup2\n        /* \"#utility.yul\":18826:18830   */\n      dup2\n        /* \"#utility.yul\":18822:18842   */\n      sub\n        /* \"#utility.yul\":18818:18819   */\n      0x00\n        /* \"#utility.yul\":18807:18816   */\n      dup4\n        /* \"#utility.yul\":18803:18820   */\n      add\n        /* \"#utility.yul\":18796:18843   */\n      mstore\n        /* \"#utility.yul\":18860:18991   */\n      tag_537\n        /* \"#utility.yul\":18986:18990   */\n      dup2\n        /* \"#utility.yul\":18860:18991   */\n      tag_486\n      jump\t// in\n    tag_537:\n        /* \"#utility.yul\":18852:18991   */\n      swap1\n      pop\n        /* \"#utility.yul\":18579:18998   */\n      swap2\n      swap1\n      pop\n      jump\t// out\n        /* \"#utility.yul\":19004:19226   */\n    tag_34:\n        /* \"#utility.yul\":19097:19101   */\n      0x00\n        /* \"#utility.yul\":19135:19137   */\n      0x20\n        /* \"#utility.yul\":19124:19133   */\n      dup3\n        /* \"#utility.yul\":19120:19138   */\n      add\n        /* \"#utility.yul\":19112:19138   */\n      swap1\n      pop\n        /* \"#utility.yul\":19148:19219   */\n      tag_539\n        /* \"#utility.yul\":19216:19217   */\n      0x00\n        /* \"#utility.yul\":19205:19214   */\n      dup4\n        /* \"#utility.yul\":19201:19218   */\n      add\n        /* \"#utility.yul\":19192:19198   */\n      dup5\n        /* \"#utility.yul\":19148:19219   */\n      tag_491\n      jump\t// in\n    tag_539:\n        /* \"#utility.yul\":19004:19226   */\n      swap3\n      swap2\n      pop\n      pop\n      jump\t// out\n        /* \"#utility.yul\":19232:19361   */\n    tag_323:\n        /* \"#utility.yul\":19266:19272   */\n      0x00\n        /* \"#utility.yul\":19293:19313   */\n      tag_541\n      tag_542\n      jump\t// in\n    tag_541:\n        /* \"#utility.yul\":19283:19313   */\n      swap1\n      pop\n        /* \"#utility.yul\":19322:19355   */\n      tag_543\n        /* \"#utility.yul\":19350:19354   */\n      dup3\n        /* \"#utility.yul\":19342:19348   */\n      dup3\n        /* \"#utility.yul\":19322:19355   */\n      tag_544\n      jump\t// in\n    tag_543:\n        /* \"#utility.yul\":19232:19361   */\n      swap2\n      swap1\n      pop\n      jump\t// out\n        /* \"#utility.yul\":19367:19442   */\n    tag_542:\n        /* \"#utility.yul\":19400:19406   */\n      0x00\n        /* \"#utility.yul\":19433:19435   */\n      0x40\n        /* \"#utility.yul\":19427:19436   */\n      mload\n        /* \"#utility.yul\":19417:19436   */\n      swap1\n      pop\n        /* \"#utility.yul\":19367:19442   */\n      swap1\n      jump\t// out\n        /* \"#utility.yul\":19448:19759   */\n    tag_322:\n        /* \"#utility.yul\":19525:19529   */\n      0x00\n        /* \"#utility.yul\":19615:19633   */\n      0xffffffffffffffff\n        /* \"#utility.yul\":19607:19613   */\n      dup3\n        /* \"#utility.yul\":19604:19634   */\n      gt\n        /* \"#utility.yul\":19601:19657   */\n      iszero\n      tag_547\n      jumpi\n        /* \"#utility.yul\":19637:19655   */\n      tag_548\n      tag_274\n      jump\t// in\n    tag_548:\n        /* \"#utility.yul\":19601:19657   */\n    tag_547:\n        /* \"#utility.yul\":19687:19691   */\n      0x20\n        /* \"#utility.yul\":19679:19685   */\n      dup3\n        /* \"#utility.yul\":19675:19692   */\n      mul\n        /* \"#utility.yul\":19667:19692   */\n      swap1\n      pop\n        /* \"#utility.yul\":19747:19751   */\n      0x20\n        /* \"#utility.yul\":19741:19745   */\n      dup2\n        /* \"#utility.yul\":19737:19752   */\n      add\n        /* \"#utility.yul\":19729:19752   */\n      swap1\n      pop\n        /* \"#utility.yul\":19448:19759   */\n      swap2\n      swap1\n      pop\n      jump\t// out\n        /* \"#utility.yul\":19765:19897   */\n    tag_406:\n        /* \"#utility.yul\":19832:19836   */\n      0x00\n        /* \"#utility.yul\":19855:19858   */\n      dup2\n        /* \"#utility.yul\":19847:19858   */\n      swap1\n      pop\n        /* \"#utility.yul\":19885:19889   */\n      0x20\n        /* \"#utility.yul\":19880:19883   */\n      dup3\n        /* \"#utility.yul\":19876:19890   */\n      add\n        /* \"#utility.yul\":19868:19890   */\n      swap1\n      pop\n        /* \"#utility.yul\":19765:19897   */\n      swap2\n      swap1\n      pop\n      jump\t// out\n        /* \"#utility.yul\":19903:20017   */\n    tag_402:\n        /* \"#utility.yul\":19970:19976   */\n      0x00\n        /* \"#utility.yul\":20004:20009   */\n      dup2\n        /* \"#utility.yul\":19998:20010   */\n      mload\n        /* \"#utility.yul\":19988:20010   */\n      swap1\n      pop\n        /* \"#utility.yul\":19903:20017   */\n      swap2\n      swap1\n      pop\n      jump\t// out\n        /* \"#utility.yul\":20023:20136   */\n    tag_412:\n        /* \"#utility.yul\":20093:20097   */\n      0x00\n        /* \"#utility.yul\":20125:20129   */\n      0x20\n        /* \"#utility.yul\":20120:20123   */\n      dup3\n        /* \"#utility.yul\":20116:20130   */\n      add\n        /* \"#utility.yul\":20108:20130   */\n      swap1\n      pop\n        /* \"#utility.yul\":20023:20136   */\n      swap2\n      swap1\n      pop\n      jump\t// out\n        /* \"#utility.yul\":20142:20326   */\n    tag_404:\n        /* \"#utility.yul\":20241:20252   */\n      0x00\n        /* \"#utility.yul\":20275:20281   */\n      dup3\n        /* \"#utility.yul\":20270:20273   */\n      dup3\n        /* \"#utility.yul\":20263:20282   */\n      mstore\n        /* \"#utility.yul\":20315:20319   */\n      0x20\n        /* \"#utility.yul\":20310:20313   */\n      dup3\n        /* \"#utility.yul\":20306:20320   */\n      add\n        /* \"#utility.yul\":20291:20320   */\n      swap1\n      pop\n        /* \"#utility.yul\":20142:20326   */\n      swap3\n      swap2\n      pop\n      pop\n      jump\t// out\n        /* \"#utility.yul\":20332:20501   */\n    tag_428:\n        /* \"#utility.yul\":20416:20427   */\n      0x00\n        /* \"#utility.yul\":20450:20456   */\n      dup3\n        /* \"#utility.yul\":20445:20448   */\n      dup3\n        /* \"#utility.yul\":20438:20457   */\n      mstore\n        /* \"#utility.yul\":20490:20494   */\n      0x20\n        /* \"#utility.yul\":20485:20488   */\n      dup3\n        /* \"#utility.yul\":20481:20495   */\n      add\n        /* \"#utility.yul\":20466:20495   */\n      swap1\n      pop\n        /* \"#utility.yul\":20332:20501   */\n      swap3\n      swap2\n      pop\n      pop\n      jump\t// out\n        /* \"#utility.yul\":20507:20692   */\n    tag_306:\n        /* \"#utility.yul\":20547:20548   */\n      0x00\n        /* \"#utility.yul\":20564:20584   */\n      tag_555\n        /* \"#utility.yul\":20582:20583   */\n      dup3\n        /* \"#utility.yul\":20564:20584   */\n      tag_494\n      jump\t// in\n    tag_555:\n        /* \"#utility.yul\":20559:20584   */\n      swap2\n      pop\n        /* \"#utility.yul\":20598:20618   */\n      tag_556\n        /* \"#utility.yul\":20616:20617   */\n      dup4\n        /* \"#utility.yul\":20598:20618   */\n      tag_494\n      jump\t// in\n    tag_556:\n        /* \"#utility.yul\":20593:20618   */\n      swap3\n      pop\n        /* \"#utility.yul\":20637:20638   */\n      dup3\n        /* \"#utility.yul\":20627:20662   */\n      tag_557\n      jumpi\n        /* \"#utility.yul\":20642:20660   */\n      tag_558\n      tag_559\n      jump\t// in\n    tag_558:\n        /* \"#utility.yul\":20627:20662   */\n    tag_557:\n        /* \"#utility.yul\":20684:20685   */\n      dup3\n        /* \"#utility.yul\":20681:20682   */\n      dup3\n        /* \"#utility.yul\":20677:20686   */\n      div\n        /* \"#utility.yul\":20672:20686   */\n      swap1\n      pop\n        /* \"#utility.yul\":20507:20692   */\n      swap3\n      swap2\n      pop\n      pop\n      jump\t// out\n        /* \"#utility.yul\":20698:21046   */\n    tag_141:\n        /* \"#utility.yul\":20738:20745   */\n      0x00\n        /* \"#utility.yul\":20761:20781   */\n      tag_561\n        /* \"#utility.yul\":20779:20780   */\n      dup3\n        /* \"#utility.yul\":20761:20781   */\n      tag_494\n      jump\t// in\n    tag_561:\n        /* \"#utility.yul\":20756:20781   */\n      swap2\n      pop\n        /* \"#utility.yul\":20795:20815   */\n      tag_562\n        /* \"#utility.yul\":20813:20814   */\n      dup4\n        /* \"#utility.yul\":20795:20815   */\n      tag_494\n      jump\t// in\n    tag_562:\n        /* \"#utility.yul\":20790:20815   */\n      swap3\n      pop\n        /* \"#utility.yul\":20983:20984   */\n      dup2\n        /* \"#utility.yul\":20915:20981   */\n      0xffffffffffffffffffffffffffffffffffffffffffffffffffffffffffffffff\n        /* \"#utility.yul\":20911:20985   */\n      div\n        /* \"#utility.yul\":20908:20909   */\n      dup4\n        /* \"#utility.yul\":20905:20986   */\n      gt\n        /* \"#utility.yul\":20900:20901   */\n      dup3\n        /* \"#utility.yul\":20893:20902   */\n      iszero\n        /* \"#utility.yul\":20886:20903   */\n      iszero\n        /* \"#utility.yul\":20882:20987   */\n      and\n        /* \"#utility.yul\":20879:21010   */\n      iszero\n      tag_563\n      jumpi\n        /* \"#utility.yul\":20990:21008   */\n      tag_564\n      tag_565\n      jump\t// in\n    tag_564:\n        /* \"#utility.yul\":20879:21010   */\n    tag_563:\n        /* \"#utility.yul\":21038:21039   */\n      dup3\n        /* \"#utility.yul\":21035:21036   */\n      dup3\n        /* \"#utility.yul\":21031:21040   */\n      mul\n        /* \"#utility.yul\":21020:21040   */\n      swap1\n      pop\n        /* \"#utility.yul\":20698:21046   */\n      swap3\n      swap2\n      pop\n      pop\n      jump\t// out\n        /* \"#utility.yul\":21052:21148   */\n    tag_395:\n        /* \"#utility.yul\":21089:21096   */\n      0x00\n        /* \"#utility.yul\":21118:21142   */\n      tag_567\n        /* \"#utility.yul\":21136:21141   */\n      dup3\n        /* \"#utility.yul\":21118:21142   */\n      tag_568\n      jump\t// in\n    tag_567:\n        /* \"#utility.yul\":21107:21142   */\n      swap1\n      pop\n        /* \"#utility.yul\":21052:21148   */\n      swap2\n      swap1\n      pop\n      jump\t// out\n        /* \"#utility.yul\":21154:21244   */\n    tag_416:\n        /* \"#utility.yul\":21188:21195   */\n      0x00\n        /* \"#utility.yul\":21231:21236   */\n      dup2\n        /* \"#utility.yul\":21224:21237   */\n      iszero\n        /* \"#utility.yul\":21217:21238   */\n      iszero\n        /* \"#utility.yul\":21206:21238   */\n      swap1\n      pop\n        /* \"#utility.yul\":21154:21244   */\n      swap2\n      swap1\n      pop\n      jump\t// out\n        /* \"#utility.yul\":21250:21360   */\n    tag_570:\n        /* \"#utility.yul\":21301:21308   */\n      0x00\n        /* \"#utility.yul\":21330:21354   */\n      tag_572\n        /* \"#utility.yul\":21348:21353   */\n      dup3\n        /* \"#utility.yul\":21330:21354   */\n      tag_395\n      jump\t// in\n    tag_572:\n        /* \"#utility.yul\":21319:21354   */\n      swap1\n      pop\n        /* \"#utility.yul\":21250:21360   */\n      swap2\n      swap1\n      pop\n      jump\t// out\n        /* \"#utility.yul\":21366:21492   */\n    tag_568:\n        /* \"#utility.yul\":21403:21410   */\n      0x00\n        /* \"#utility.yul\":21443:21485   */\n      0xffffffffffffffffffffffffffffffffffffffff\n        /* \"#utility.yul\":21436:21441   */\n      dup3\n        /* \"#utility.yul\":21432:21486   */\n      and\n        /* \"#utility.yul\":21421:21486   */\n      swap1\n      pop\n        /* \"#utility.yul\":21366:21492   */\n      swap2\n      swap1\n      pop\n      jump\t// out\n        /* \"#utility.yul\":21498:21575   */\n    tag_494:\n        /* \"#utility.yul\":21535:21542   */\n      0x00\n        /* \"#utility.yul\":21564:21569   */\n      dup2\n        /* \"#utility.yul\":21553:21569   */\n      swap1\n      pop\n        /* \"#utility.yul\":21498:21575   */\n      swap2\n      swap1\n      pop\n      jump\t// out\n        /* \"#utility.yul\":21581:21702   */\n    tag_420:\n        /* \"#utility.yul\":21639:21648   */\n      0x00\n        /* \"#utility.yul\":21672:21696   */\n      tag_576\n        /* \"#utility.yul\":21690:21695   */\n      dup3\n        /* \"#utility.yul\":21672:21696   */\n      tag_494\n      jump\t// in\n    tag_576:\n        /* \"#utility.yul\":21659:21696   */\n      swap1\n      pop\n        /* \"#utility.yul\":21581:21702   */\n      swap2\n      swap1\n      pop\n      jump\t// out\n        /* \"#utility.yul\":21708:21847   */\n    tag_424:\n        /* \"#utility.yul\":21784:21793   */\n      0x00\n        /* \"#utility.yul\":21817:21841   */\n      tag_578\n        /* \"#utility.yul\":21835:21840   */\n      dup3\n        /* \"#utility.yul\":21817:21841   */\n      tag_494\n      jump\t// in\n    tag_578:\n        /* \"#utility.yul\":21804:21841   */\n      swap1\n      pop\n        /* \"#utility.yul\":21708:21847   */\n      swap2\n      swap1\n      pop\n      jump\t// out\n        /* \"#utility.yul\":21853:22134   */\n    tag_544:\n        /* \"#utility.yul\":21936:21963   */\n      tag_580\n        /* \"#utility.yul\":21958:21962   */\n      dup3\n        /* \"#utility.yul\":21936:21963   */\n      tag_581\n      jump\t// in\n    tag_580:\n        /* \"#utility.yul\":21928:21934   */\n      dup2\n        /* \"#utility.yul\":21924:21964   */\n      add\n        /* \"#utility.yul\":22066:22072   */\n      dup2\n        /* \"#utility.yul\":22054:22064   */\n      dup2\n        /* \"#utility.yul\":22051:22073   */\n      lt\n        /* \"#utility.yul\":22030:22048   */\n      0xffffffffffffffff\n        /* \"#utility.yul\":22018:22028   */\n      dup3\n        /* \"#utility.yul\":22015:22049   */\n      gt\n        /* \"#utility.yul\":22012:22074   */\n      or\n        /* \"#utility.yul\":22009:22097   */\n      iszero\n      tag_582\n      jumpi\n        /* \"#utility.yul\":22077:22095   */\n      tag_583\n      tag_274\n      jump\t// in\n    tag_583:\n        /* \"#utility.yul\":22009:22097   */\n    tag_582:\n        /* \"#utility.yul\":22117:22127   */\n      dup1\n        /* \"#utility.yul\":22113:22115   */\n      0x40\n        /* \"#utility.yul\":22106:22128   */\n      mstore\n        /* \"#utility.yul\":21896:22134   */\n      pop\n        /* \"#utility.yul\":21853:22134   */\n      pop\n      pop\n      jump\t// out\n        /* \"#utility.yul\":22140:22373   */\n    tag_164:\n        /* \"#utility.yul\":22179:22182   */\n      0x00\n        /* \"#utility.yul\":22202:22226   */\n      tag_585\n        /* \"#utility.yul\":22220:22225   */\n      dup3\n        /* \"#utility.yul\":22202:22226   */\n      tag_494\n      jump\t// in\n    tag_585:\n        /* \"#utility.yul\":22193:22226   */\n      swap2\n      pop\n        /* \"#utility.yul\":22248:22314   */\n      0xffffffffffffffffffffffffffffffffffffffffffffffffffffffffffffffff\n        /* \"#utility.yul\":22241:22246   */\n      dup3\n        /* \"#utility.yul\":22238:22315   */\n      eq\n        /* \"#utility.yul\":22235:22338   */\n      iszero\n      tag_586\n      jumpi\n        /* \"#utility.yul\":22318:22336   */\n      tag_587\n      tag_565\n      jump\t// in\n    tag_587:\n        /* \"#utility.yul\":22235:22338   */\n    tag_586:\n        /* \"#utility.yul\":22365:22366   */\n      0x01\n        /* \"#utility.yul\":22358:22363   */\n      dup3\n        /* \"#utility.yul\":22354:22367   */\n      add\n        /* \"#utility.yul\":22347:22367   */\n      swap1\n      pop\n        /* \"#utility.yul\":22140:22373   */\n      swap2\n      swap1\n      pop\n      jump\t// out\n        /* \"#utility.yul\":22379:22559   */\n    tag_565:\n        /* \"#utility.yul\":22427:22504   */\n      0x4e487b7100000000000000000000000000000000000000000000000000000000\n        /* \"#utility.yul\":22424:22425   */\n      0x00\n        /* \"#utility.yul\":22417:22505   */\n      mstore\n        /* \"#utility.yul\":22524:22528   */\n      0x11\n        /* \"#utility.yul\":22521:22522   */\n      0x04\n        /* \"#utility.yul\":22514:22529   */\n      mstore\n        /* \"#utility.yul\":22548:22552   */\n      0x24\n        /* \"#utility.yul\":22545:22546   */\n      0x00\n        /* \"#utility.yul\":22538:22553   */\n      revert\n        /* \"#utility.yul\":22565:22745   */\n    tag_559:\n        /* \"#utility.yul\":22613:22690   */\n      0x4e487b7100000000000000000000000000000000000000000000000000000000\n        /* \"#utility.yul\":22610:22611   */\n      0x00\n        /* \"#utility.yul\":22603:22691   */\n      mstore\n        /* \"#utility.yul\":22710:22714   */\n      0x12\n        /* \"#utility.yul\":22707:22708   */\n      0x04\n        /* \"#utility.yul\":22700:22715   */\n      mstore\n        /* \"#utility.yul\":22734:22738   */\n      0x24\n        /* \"#utility.yul\":22731:22732   */\n      0x00\n        /* \"#utility.yul\":22724:22739   */\n      revert\n        /* \"#utility.yul\":22751:22931   */\n    tag_278:\n        /* \"#utility.yul\":22799:22876   */\n      0x4e487b7100000000000000000000000000000000000000000000000000000000\n        /* \"#utility.yul\":22796:22797   */\n      0x00\n        /* \"#utility.yul\":22789:22877   */\n      mstore\n        /* \"#utility.yul\":22896:22900   */\n      0x32\n        /* \"#utility.yul\":22893:22894   */\n      0x04\n        /* \"#utility.yul\":22886:22901   */\n      mstore\n        /* \"#utility.yul\":22920:22924   */\n      0x24\n        /* \"#utility.yul\":22917:22918   */\n      0x00\n        /* \"#utility.yul\":22910:22925   */\n      revert\n        /* \"#utility.yul\":22937:23117   */\n    tag_274:\n        /* \"#utility.yul\":22985:23062   */\n      0x4e487b7100000000000000000000000000000000000000000000000000000000\n        /* \"#utility.yul\":22982:22983   */\n      0x00\n        /* \"#utility.yul\":22975:23063   */\n      mstore\n        /* \"#utility.yul\":23082:23086   */\n      0x41\n        /* \"#utility.yul\":23079:23080   */\n      0x04\n        /* \"#utility.yul\":23072:23087   */\n      mstore\n        /* \"#utility.yul\":23106:23110   */\n      0x24\n        /* \"#utility.yul\":23103:23104   */\n      0x00\n        /* \"#utility.yul\":23096:23111   */\n      revert\n        /* \"#utility.yul\":23123:23240   */\n    tag_340:\n        /* \"#utility.yul\":23232:23233   */\n      0x00\n        /* \"#utility.yul\":23229:23230   */\n      dup1\n        /* \"#utility.yul\":23222:23234   */\n      revert\n        /* \"#utility.yul\":23246:23363   */\n    tag_326:\n        /* \"#utility.yul\":23355:23356   */\n      0x00\n        /* \"#utility.yul\":23352:23353   */\n      dup1\n        /* \"#utility.yul\":23345:23357   */\n      revert\n        /* \"#utility.yul\":23369:23486   */\n    tag_366:\n        /* \"#utility.yul\":23478:23479   */\n      0x00\n        /* \"#utility.yul\":23475:23476   */\n      dup1\n        /* \"#utility.yul\":23468:23480   */\n      revert\n        /* \"#utility.yul\":23492:23609   */\n    tag_359:\n        /* \"#utility.yul\":23601:23602   */\n      0x00\n        /* \"#utility.yul\":23598:23599   */\n      dup1\n        /* \"#utility.yul\":23591:23603   */\n      revert\n        /* \"#utility.yul\":23615:23717   */\n    tag_581:\n        /* \"#utility.yul\":23656:23662   */\n      0x00\n        /* \"#utility.yul\":23707:23709   */\n      0x1f\n        /* \"#utility.yul\":23703:23710   */\n      not\n        /* \"#utility.yul\":23698:23700   */\n      0x1f\n        /* \"#utility.yul\":23691:23696   */\n      dup4\n        /* \"#utility.yul\":23687:23701   */\n      add\n        /* \"#utility.yul\":23683:23711   */\n      and\n        /* \"#utility.yul\":23673:23711   */\n      swap1\n      pop\n        /* \"#utility.yul\":23615:23717   */\n      swap2\n      swap1\n      pop\n      jump\t// out\n        /* \"#utility.yul\":23723:23893   */\n    tag_430:\n        /* \"#utility.yul\":23863:23885   */\n      0x5061757361626c653a206e6f7420706175736564000000000000000000000000\n        /* \"#utility.yul\":23859:23860   */\n      0x00\n        /* \"#utility.yul\":23851:23857   */\n      dup3\n        /* \"#utility.yul\":23847:23861   */\n      add\n        /* \"#utility.yul\":23840:23886   */\n      mstore\n        /* \"#utility.yul\":23723:23893   */\n      pop\n      jump\t// out\n        /* \"#utility.yul\":23899:24078   */\n    tag_435:\n        /* \"#utility.yul\":24039:24070   */\n      0x54686973204576656e74204e6f74205965742053746172742054696d65000000\n        /* \"#utility.yul\":24035:24036   */\n      0x00\n        /* \"#utility.yul\":24027:24033   */\n      dup3\n        /* \"#utility.yul\":24023:24037   */\n      add\n        /* \"#utility.yul\":24016:24071   */\n      mstore\n        /* \"#utility.yul\":23899:24078   */\n      pop\n      jump\t// out\n        /* \"#utility.yul\":24084:24309   */\n    tag_440:\n        /* \"#utility.yul\":24224:24258   */\n      0x4f776e61626c653a206e6577206f776e657220697320746865207a65726f2061\n        /* \"#utility.yul\":24220:24221   */\n      0x00\n        /* \"#utility.yul\":24212:24218   */\n      dup3\n        /* \"#utility.yul\":24208:24222   */\n      add\n        /* \"#utility.yul\":24201:24259   */\n      mstore\n        /* \"#utility.yul\":24293:24301   */\n      0x6464726573730000000000000000000000000000000000000000000000000000\n        /* \"#utility.yul\":24288:24290   */\n      0x20\n        /* \"#utility.yul\":24280:24286   */\n      dup3\n        /* \"#utility.yul\":24276:24291   */\n      add\n        /* \"#utility.yul\":24269:24302   */\n      mstore\n        /* \"#utility.yul\":24084:24309   */\n      pop\n      jump\t// out\n        /* \"#utility.yul\":24315:24495   */\n    tag_445:\n        /* \"#utility.yul\":24455:24487   */\n      0x5f616d6f756e74206d7573742062652067726561746572207468616e20300000\n        /* \"#utility.yul\":24451:24452   */\n      0x00\n        /* \"#utility.yul\":24443:24449   */\n      dup3\n        /* \"#utility.yul\":24439:24453   */\n      add\n        /* \"#utility.yul\":24432:24488   */\n      mstore\n        /* \"#utility.yul\":24315:24495   */\n      pop\n      jump\t// out\n        /* \"#utility.yul\":24501:24678   */\n    tag_450:\n        /* \"#utility.yul\":24641:24670   */\n      0x62616c616e63654f66546f6b656e3a2020697320657175616c20300000000000\n        /* \"#utility.yul\":24637:24638   */\n      0x00\n        /* \"#utility.yul\":24629:24635   */\n      dup3\n        /* \"#utility.yul\":24625:24639   */\n      add\n        /* \"#utility.yul\":24618:24671   */\n      mstore\n        /* \"#utility.yul\":24501:24678   */\n      pop\n      jump\t// out\n        /* \"#utility.yul\":24684:24910   */\n    tag_455:\n        /* \"#utility.yul\":24824:24858   */\n      0x4e756d626572206f6620626f78206861766520746f2062652067726561746572\n        /* \"#utility.yul\":24820:24821   */\n      0x00\n        /* \"#utility.yul\":24812:24818   */\n      dup3\n        /* \"#utility.yul\":24808:24822   */\n      add\n        /* \"#utility.yul\":24801:24859   */\n      mstore\n        /* \"#utility.yul\":24893:24902   */\n      0x207468616e203000000000000000000000000000000000000000000000000000\n        /* \"#utility.yul\":24888:24890   */\n      0x20\n        /* \"#utility.yul\":24880:24886   */\n      dup3\n        /* \"#utility.yul\":24876:24891   */\n      add\n        /* \"#utility.yul\":24869:24903   */\n      mstore\n        /* \"#utility.yul\":24684:24910   */\n      pop\n      jump\t// out\n        /* \"#utility.yul\":24916:25094   */\n    tag_460:\n        /* \"#utility.yul\":25056:25086   */\n      0x62616c616e63654f664e61746976653a2020697320657175616c203000000000\n        /* \"#utility.yul\":25052:25053   */\n      0x00\n        /* \"#utility.yul\":25044:25050   */\n      dup3\n        /* \"#utility.yul\":25040:25054   */\n      add\n        /* \"#utility.yul\":25033:25087   */\n      mstore\n        /* \"#utility.yul\":24916:25094   */\n      pop\n      jump\t// out\n        /* \"#utility.yul\":25100:25328   */\n    tag_465:\n        /* \"#utility.yul\":25240:25274   */\n      0x457863656564656420746865206c696d6974206f6e20746865206e756d626572\n        /* \"#utility.yul\":25236:25237   */\n      0x00\n        /* \"#utility.yul\":25228:25234   */\n      dup3\n        /* \"#utility.yul\":25224:25238   */\n      add\n        /* \"#utility.yul\":25217:25275   */\n      mstore\n        /* \"#utility.yul\":25309:25320   */\n      0x206f6620626f7865730000000000000000000000000000000000000000000000\n        /* \"#utility.yul\":25304:25306   */\n      0x20\n        /* \"#utility.yul\":25296:25302   */\n      dup3\n        /* \"#utility.yul\":25292:25307   */\n      add\n        /* \"#utility.yul\":25285:25321   */\n      mstore\n        /* \"#utility.yul\":25100:25328   */\n      pop\n      jump\t// out\n        /* \"#utility.yul\":25334:25500   */\n    tag_470:\n        /* \"#utility.yul\":25474:25492   */\n      0x5061757361626c653a2070617573656400000000000000000000000000000000\n        /* \"#utility.yul\":25470:25471   */\n      0x00\n        /* \"#utility.yul\":25462:25468   */\n      dup3\n        /* \"#utility.yul\":25458:25472   */\n      add\n        /* \"#utility.yul\":25451:25493   */\n      mstore\n        /* \"#utility.yul\":25334:25500   */\n      pop\n      jump\t// out\n        /* \"#utility.yul\":25506:25688   */\n    tag_475:\n        /* \"#utility.yul\":25646:25680   */\n      0x4f776e61626c653a2063616c6c6572206973206e6f7420746865206f776e6572\n        /* \"#utility.yul\":25642:25643   */\n      0x00\n        /* \"#utility.yul\":25634:25640   */\n      dup3\n        /* \"#utility.yul\":25630:25644   */\n      add\n        /* \"#utility.yul\":25623:25681   */\n      mstore\n        /* \"#utility.yul\":25506:25688   */\n      pop\n      jump\t// out\n        /* \"#utility.yul\":25694:25875   */\n    tag_480:\n        /* \"#utility.yul\":25834:25867   */\n      0x62616c616e63654f664e61746976653a20206973206e6f7420656e6f75676800\n        /* \"#utility.yul\":25830:25831   */\n      0x00\n        /* \"#utility.yul\":25822:25828   */\n      dup3\n        /* \"#utility.yul\":25818:25832   */\n      add\n        /* \"#utility.yul\":25811:25868   */\n      mstore\n        /* \"#utility.yul\":25694:25875   */\n      pop\n      jump\t// out\n        /* \"#utility.yul\":25881:26061   */\n    tag_485:\n        /* \"#utility.yul\":26021:26053   */\n      0x62616c616e63654f66546f6b656e3a20206973206e6f7420656e6f7567680000\n        /* \"#utility.yul\":26017:26018   */\n      0x00\n        /* \"#utility.yul\":26009:26015   */\n      dup3\n        /* \"#utility.yul\":26005:26019   */\n      add\n        /* \"#utility.yul\":25998:26054   */\n      mstore\n        /* \"#utility.yul\":25881:26061   */\n      pop\n      jump\t// out\n        /* \"#utility.yul\":26067:26248   */\n    tag_490:\n        /* \"#utility.yul\":26207:26240   */\n      0x5265656e7472616e637947756172643a207265656e7472616e742063616c6c00\n        /* \"#utility.yul\":26203:26204   */\n      0x00\n        /* \"#utility.yul\":26195:26201   */\n      dup3\n        /* \"#utility.yul\":26191:26205   */\n      add\n        /* \"#utility.yul\":26184:26241   */\n      mstore\n        /* \"#utility.yul\":26067:26248   */\n      pop\n      jump\t// out\n        /* \"#utility.yul\":26254:26376   */\n    tag_335:\n        /* \"#utility.yul\":26327:26351   */\n      tag_611\n        /* \"#utility.yul\":26345:26350   */\n      dup2\n        /* \"#utility.yul\":26327:26351   */\n      tag_395\n      jump\t// in\n    tag_611:\n        /* \"#utility.yul\":26320:26325   */\n      dup2\n        /* \"#utility.yul\":26317:26352   */\n      eq\n        /* \"#utility.yul\":26307:26370   */\n      tag_612\n      jumpi\n        /* \"#utility.yul\":26366:26367   */\n      0x00\n        /* \"#utility.yul\":26363:26364   */\n      dup1\n        /* \"#utility.yul\":26356:26368   */\n      revert\n        /* \"#utility.yul\":26307:26370   */\n    tag_612:\n        /* \"#utility.yul\":26254:26376   */\n      pop\n      jump\t// out\n        /* \"#utility.yul\":26382:26498   */\n    tag_345:\n        /* \"#utility.yul\":26452:26473   */\n      tag_614\n        /* \"#utility.yul\":26467:26472   */\n      dup2\n        /* \"#utility.yul\":26452:26473   */\n      tag_416\n      jump\t// in\n    tag_614:\n        /* \"#utility.yul\":26445:26450   */\n      dup2\n        /* \"#utility.yul\":26442:26474   */\n      eq\n        /* \"#utility.yul\":26432:26492   */\n      tag_615\n      jumpi\n        /* \"#utility.yul\":26488:26489   */\n      0x00\n        /* \"#utility.yul\":26485:26486   */\n      dup1\n        /* \"#utility.yul\":26478:26490   */\n      revert\n        /* \"#utility.yul\":26432:26492   */\n    tag_615:\n        /* \"#utility.yul\":26382:26498   */\n      pop\n      jump\t// out\n        /* \"#utility.yul\":26504:26654   */\n    tag_349:\n        /* \"#utility.yul\":26591:26629   */\n      tag_617\n        /* \"#utility.yul\":26623:26628   */\n      dup2\n        /* \"#utility.yul\":26591:26629   */\n      tag_570\n      jump\t// in\n    tag_617:\n        /* \"#utility.yul\":26584:26589   */\n      dup2\n        /* \"#utility.yul\":26581:26630   */\n      eq\n        /* \"#utility.yul\":26571:26648   */\n      tag_618\n      jumpi\n        /* \"#utility.yul\":26644:26645   */\n      0x00\n        /* \"#utility.yul\":26641:26642   */\n      dup1\n        /* \"#utility.yul\":26634:26646   */\n      revert\n        /* \"#utility.yul\":26571:26648   */\n    tag_618:\n        /* \"#utility.yul\":26504:26654   */\n      pop\n      jump\t// out\n        /* \"#utility.yul\":26660:26782   */\n    tag_353:\n        /* \"#utility.yul\":26733:26757   */\n      tag_620\n        /* \"#utility.yul\":26751:26756   */\n      dup2\n        /* \"#utility.yul\":26733:26757   */\n      tag_494\n      jump\t// in\n    tag_620:\n        /* \"#utility.yul\":26726:26731   */\n      dup2\n        /* \"#utility.yul\":26723:26758   */\n      eq\n        /* \"#utility.yul\":26713:26776   */\n      tag_621\n      jumpi\n        /* \"#utility.yul\":26772:26773   */\n      0x00\n        /* \"#utility.yul\":26769:26770   */\n      dup1\n        /* \"#utility.yul\":26762:26774   */\n      revert\n        /* \"#utility.yul\":26713:26776   */\n    tag_621:\n        /* \"#utility.yul\":26660:26782   */\n      pop\n      jump\t// out\n\n    auxdata: 0xa26469706673582212201aa69663d7256956b2f4fb2e816ae7a62345033b4b80f201925017aa80f11fbf64736f6c63430008070033\n}\n",
				"bytecode": {
					"linkReferences": {},
					"object": "60806040527310ed43c718714eb63d5aa57b78b54704e256024e600660006101000a81548173ffffffffffffffffffffffffffffffffffffffff021916908373ffffffffffffffffffffffffffffffffffffffff16021790555073bb4cdb9cbd36b01bd1cbaebf2de08d9173bc095c600760006101000a81548173ffffffffffffffffffffffffffffffffffffffff021916908373ffffffffffffffffffffffffffffffffffffffff16021790555073e9e7cea3dedca5984780bafc599bd69add087d56600860006101000a81548173ffffffffffffffffffffffffffffffffffffffff021916908373ffffffffffffffffffffffffffffffffffffffff16021790555060006009553480156200011557600080fd5b5060405162002a8b38038062002a8b83398181016040528101906200013b9190620002fd565b60008060006101000a81548160ff02191690831515021790555062000175620001696200021960201b60201c565b6200022160201b60201c565b6001808190555081600260006101000a81548173ffffffffffffffffffffffffffffffffffffffff021916908373ffffffffffffffffffffffffffffffffffffffff16021790555080600360006101000a81548173ffffffffffffffffffffffffffffffffffffffff021916908373ffffffffffffffffffffffffffffffffffffffff16021790555063627b5390600481905550600a600581905550505062000397565b600033905090565b60008060019054906101000a900473ffffffffffffffffffffffffffffffffffffffff16905081600060016101000a81548173ffffffffffffffffffffffffffffffffffffffff021916908373ffffffffffffffffffffffffffffffffffffffff1602179055508173ffffffffffffffffffffffffffffffffffffffff168173ffffffffffffffffffffffffffffffffffffffff167f8be0079c531659141344cd1fd0a4f28419497f9722a3daafe3b4186f6b6457e060405160405180910390a35050565b600081519050620002f7816200037d565b92915050565b6000806040838503121562000317576200031662000378565b5b60006200032785828601620002e6565b92505060206200033a85828601620002e6565b9150509250929050565b6000620003518262000358565b9050919050565b600073ffffffffffffffffffffffffffffffffffffffff82169050919050565b600080fd5b620003888162000344565b81146200039457600080fd5b50565b6126e480620003a76000396000f3fe6080604052600436106101025760003560e01c8063715018a6116100955780638da5cb5b116100645780638da5cb5b146102f35780639e281a981461031e578063f2fde38b14610347578063fc0c546a14610370578063fc9443d91461039b57610142565b8063715018a61461027157806378e979251461028857806384276d81146102b35780638456cb59146102dc57610142565b806351a30b30116100d157806351a30b30146101cb5780635629d258146101f45780635c975abb1461021d5780635d3a7c5d1461024857610142565b8063015ed3c31461014757806306a3fbc21461015e5780630d551b63146101895780633f4ba83a146101b457610142565b36610142577f88a5966d370b9919b20f3e2c13ff65706f196a4e32cc2c12bf57088f885258743334604051610138929190611e9d565b60405180910390a1005b600080fd5b34801561015357600080fd5b5061015c6103c6565b005b34801561016a57600080fd5b506101736104ce565b60405161018091906120b1565b60405180910390f35b34801561019557600080fd5b5061019e6104d4565b6040516101ab91906120b1565b60405180910390f35b3480156101c057600080fd5b506101c96104da565b005b3480156101d757600080fd5b506101f260048036038101906101ed9190611b31565b610560565b005b34801561020057600080fd5b5061021b60048036038101906102169190611ac4565b610958565b005b34801561022957600080fd5b50610232610bb8565b60405161023f9190611ec6565b60405180910390f35b34801561025457600080fd5b5061026f600480360381019061026a9190611b31565b610bce565b005b34801561027d57600080fd5b50610286610ca9565b005b34801561029457600080fd5b5061029d610d31565b6040516102aa91906120b1565b60405180910390f35b3480156102bf57600080fd5b506102da60048036038101906102d59190611b31565b610d37565b005b3480156102e857600080fd5b506102f1610e83565b005b3480156102ff57600080fd5b50610308610f09565b6040516103159190611e22565b60405180910390f35b34801561032a57600080fd5b5061034560048036038101906103409190611af1565b610f32565b005b34801561035357600080fd5b5061036e60048036038101906103699190611a21565b61114e565b005b34801561037c57600080fd5b50610385611246565b6040516103929190611e22565b60405180910390f35b3480156103a757600080fd5b506103b061126c565b6040516103bd9190611e22565b60405180910390f35b6103ce611292565b73ffffffffffffffffffffffffffffffffffffffff166103ec610f09565b73ffffffffffffffffffffffffffffffffffffffff1614610442576040517f08c379a000000000000000000000000000000000000000000000000000000000815260040161043990612031565b60405180910390fd5b60004711610485576040517f08c379a000000000000000000000000000000000000000000000000000000000815260040161047c90611fd1565b60405180910390fd5b3373ffffffffffffffffffffffffffffffffffffffff166108fc479081150290604051600060405180830381858888f193505050501580156104cb573d6000803e3d6000fd5b50565b60055481565b60095481565b6104e2611292565b73ffffffffffffffffffffffffffffffffffffffff16610500610f09565b73ffffffffffffffffffffffffffffffffffffffff1614610556576040517f08c379a000000000000000000000000000000000000000000000000000000000815260040161054d90612031565b60405180910390fd5b61055e61129a565b565b610568610bb8565b156105a8576040517f08c379a000000000000000000000000000000000000000000000000000000000815260040161059f90612011565b60405180910390fd5b600260015414156105ee576040517f08c379a00000000000000000000000000000000000000000000000000000000081526004016105e590612091565b60405180910390fd5b600260018190555042600454111561063b576040517f08c379a000000000000000000000000000000000000000000000000000000000815260040161063290611f31565b60405180910390fd5b600554811115610680576040517f08c379a000000000000000000000000000000000000000000000000000000000815260040161067790611ff1565b60405180910390fd5b600081116106c3576040517f08c379a00000000000000000000000000000000000000000000000000000000081526004016106ba90611fb1565b60405180910390fd5b60006106cd61133b565b905081816106db9190612198565b9050600260009054906101000a900473ffffffffffffffffffffffffffffffffffffffff1673ffffffffffffffffffffffffffffffffffffffff166323b872dd3330846040518463ffffffff1660e01b815260040161073c93929190611e3d565b602060405180830381600087803b15801561075657600080fd5b505af115801561076a573d6000803e3d6000fd5b505050506040513d601f19601f8201168201806040525081019061078e9190611a97565b5060005b82811015610909576000600360009054906101000a900473ffffffffffffffffffffffffffffffffffffffff1673ffffffffffffffffffffffffffffffffffffffff16632f745c593060006040518363ffffffff1660e01b81526004016107fa929190611e74565b60206040518083038186803b15801561081257600080fd5b505afa158015610826573d6000803e3d6000fd5b505050506040513d601f19601f8201168201806040525081019061084a9190611b5e565b9050600360009054906101000a900473ffffffffffffffffffffffffffffffffffffffff1673ffffffffffffffffffffffffffffffffffffffff166342842e0e3033846040518463ffffffff1660e01b81526004016108ab93929190611e3d565b600060405180830381600087803b1580156108c557600080fd5b505af11580156108d9573d6000803e3d6000fd5b50505050600960008154809291906108f0906122a1565b9190505550508080610901906122a1565b915050610792565b503373ffffffffffffffffffffffffffffffffffffffff167fe808d608ada169de9a8c0d30db14f08fb8a79dac772d4ccca3e31ec96693559960405160405180910390a2506001808190555050565b610960611292565b73ffffffffffffffffffffffffffffffffffffffff1661097e610f09565b73ffffffffffffffffffffffffffffffffffffffff16146109d4576040517f08c379a00000000000000000000000000000000000000000000000000000000081526004016109cb90612031565b60405180910390fd5b60008173ffffffffffffffffffffffffffffffffffffffff166370a08231306040518263ffffffff1660e01b8152600401610a0f9190611e22565b60206040518083038186803b158015610a2757600080fd5b505afa158015610a3b573d6000803e3d6000fd5b505050506040513d601f19601f82011682018060405250810190610a5f9190611b5e565b11610a9f576040517f08c379a0000000000000000000000000000000000000000000000000000000008152600401610a9690611f91565b60405180910390fd5b8073ffffffffffffffffffffffffffffffffffffffff1663a9059cbb338373ffffffffffffffffffffffffffffffffffffffff166370a08231306040518263ffffffff1660e01b8152600401610af59190611e22565b60206040518083038186803b158015610b0d57600080fd5b505afa158015610b21573d6000803e3d6000fd5b505050506040513d601f19601f82011682018060405250810190610b459190611b5e565b6040518363ffffffff1660e01b8152600401610b62929190611e9d565b602060405180830381600087803b158015610b7c57600080fd5b505af1158015610b90573d6000803e3d6000fd5b505050506040513d601f19601f82011682018060405250810190610bb49190611a97565b5050565b60008060009054906101000a900460ff16905090565b610bd6611292565b73ffffffffffffffffffffffffffffffffffffffff16610bf4610f09565b73ffffffffffffffffffffffffffffffffffffffff1614610c4a576040517f08c379a0000000000000000000000000000000000000000000000000000000008152600401610c4190612031565b60405180910390fd5b60026001541415610c90576040517f08c379a0000000000000000000000000000000000000000000000000000000008152600401610c8790612091565b60405180910390fd5b6002600181905550806005819055506001808190555050565b610cb1611292565b73ffffffffffffffffffffffffffffffffffffffff16610ccf610f09565b73ffffffffffffffffffffffffffffffffffffffff1614610d25576040517f08c379a0000000000000000000000000000000000000000000000000000000008152600401610d1c90612031565b60405180910390fd5b610d2f60006117b3565b565b60045481565b610d3f611292565b73ffffffffffffffffffffffffffffffffffffffff16610d5d610f09565b73ffffffffffffffffffffffffffffffffffffffff1614610db3576040517f08c379a0000000000000000000000000000000000000000000000000000000008152600401610daa90612031565b60405180910390fd5b60008111610df6576040517f08c379a0000000000000000000000000000000000000000000000000000000008152600401610ded90611f71565b60405180910390fd5b80471015610e39576040517f08c379a0000000000000000000000000000000000000000000000000000000008152600401610e3090612051565b60405180910390fd5b3373ffffffffffffffffffffffffffffffffffffffff166108fc829081150290604051600060405180830381858888f19350505050158015610e7f573d6000803e3d6000fd5b5050565b610e8b611292565b73ffffffffffffffffffffffffffffffffffffffff16610ea9610f09565b73ffffffffffffffffffffffffffffffffffffffff1614610eff576040517f08c379a0000000000000000000000000000000000000000000000000000000008152600401610ef690612031565b60405180910390fd5b610f07611878565b565b60008060019054906101000a900473ffffffffffffffffffffffffffffffffffffffff16905090565b610f3a611292565b73ffffffffffffffffffffffffffffffffffffffff16610f58610f09565b73ffffffffffffffffffffffffffffffffffffffff1614610fae576040517f08c379a0000000000000000000000000000000000000000000000000000000008152600401610fa590612031565b60405180910390fd5b60008111610ff1576040517f08c379a0000000000000000000000000000000000000000000000000000000008152600401610fe890611f71565b60405180910390fd5b808273ffffffffffffffffffffffffffffffffffffffff166370a08231306040518263ffffffff1660e01b815260040161102b9190611e22565b60206040518083038186803b15801561104357600080fd5b505afa158015611057573d6000803e3d6000fd5b505050506040513d601f19601f8201168201806040525081019061107b9190611b5e565b10156110bc576040517f08c379a00000000000000000000000000000000000000000000000000000000081526004016110b390612071565b60405180910390fd5b8173ffffffffffffffffffffffffffffffffffffffff1663a9059cbb33836040518363ffffffff1660e01b81526004016110f7929190611e9d565b602060405180830381600087803b15801561111157600080fd5b505af1158015611125573d6000803e3d6000fd5b505050506040513d601f19601f820116820180604052508101906111499190611a97565b505050565b611156611292565b73ffffffffffffffffffffffffffffffffffffffff16611174610f09565b73ffffffffffffffffffffffffffffffffffffffff16146111ca576040517f08c379a00000000000000000000000000000000000000000000000000000000081526004016111c190612031565b60405180910390fd5b600073ffffffffffffffffffffffffffffffffffffffff168173ffffffffffffffffffffffffffffffffffffffff16141561123a576040517f08c379a000000000000000000000000000000000000000000000000000000000815260040161123190611f51565b60405180910390fd5b611243816117b3565b50565b600260009054906101000a900473ffffffffffffffffffffffffffffffffffffffff1681565b600360009054906101000a900473ffffffffffffffffffffffffffffffffffffffff1681565b600033905090565b6112a2610bb8565b6112e1576040517f08c379a00000000000000000000000000000000000000000000000000000000081526004016112d890611f11565b60405180910390fd5b60008060006101000a81548160ff0219169083151502179055507f5db9ee0a495bf2e6ff9c91a7834c1ba4fdd244a5e8aa4e537bd38aeae4b073aa611324611292565b6040516113319190611e22565b60405180910390a1565b60006060600267ffffffffffffffff81111561135a57611359612377565b5b6040519080825280602002602001820160405280156113885781602001602082028036833780820191505090505b509050600260009054906101000a900473ffffffffffffffffffffffffffffffffffffffff16816000815181106113c2576113c1612348565b5b602002602001019073ffffffffffffffffffffffffffffffffffffffff16908173ffffffffffffffffffffffffffffffffffffffff1681525050600760009054906101000a900473ffffffffffffffffffffffffffffffffffffffff168160018151811061143357611432612348565b5b602002602001019073ffffffffffffffffffffffffffffffffffffffff16908173ffffffffffffffffffffffffffffffffffffffff16815250506000600660009054906101000a900473ffffffffffffffffffffffffffffffffffffffff1673ffffffffffffffffffffffffffffffffffffffff1663d06ca61f670de0b6b3a7640000846040518363ffffffff1660e01b81526004016114d4929190611ee1565b60006040518083038186803b1580156114ec57600080fd5b505afa158015611500573d6000803e3d6000fd5b505050506040513d6000823e3d601f19601f820116820180604052508101906115299190611a4e565b9050600267ffffffffffffffff81111561154657611545612377565b5b6040519080825280602002602001820160405280156115745781602001602082028036833780820191505090505b509150600760009054906101000a900473ffffffffffffffffffffffffffffffffffffffff16826000815181106115ae576115ad612348565b5b602002602001019073ffffffffffffffffffffffffffffffffffffffff16908173ffffffffffffffffffffffffffffffffffffffff1681525050600860009054906101000a900473ffffffffffffffffffffffffffffffffffffffff168260018151811061161f5761161e612348565b5b602002602001019073ffffffffffffffffffffffffffffffffffffffff16908173ffffffffffffffffffffffffffffffffffffffff16815250506000600660009054906101000a900473ffffffffffffffffffffffffffffffffffffffff1673ffffffffffffffffffffffffffffffffffffffff1663d06ca61f670de0b6b3a7640000856040518363ffffffff1660e01b81526004016116c0929190611ee1565b60006040518083038186803b1580156116d857600080fd5b505afa1580156116ec573d6000803e3d6000fd5b505050506040513d6000823e3d601f19601f820116820180604052508101906117159190611a4e565b905060008260018151811061172d5761172c612348565b5b6020026020010151905060008260018151811061174d5761174c612348565b5b602002602001015190506000670de0b6b3a7640000828461176e9190612198565b6117789190612167565b9050600081683635c9adc5dea000006117919190612167565b9050670de0b6b3a7640000816117a79190612198565b97505050505050505090565b60008060019054906101000a900473ffffffffffffffffffffffffffffffffffffffff16905081600060016101000a81548173ffffffffffffffffffffffffffffffffffffffff021916908373ffffffffffffffffffffffffffffffffffffffff1602179055508173ffffffffffffffffffffffffffffffffffffffff168173ffffffffffffffffffffffffffffffffffffffff167f8be0079c531659141344cd1fd0a4f28419497f9722a3daafe3b4186f6b6457e060405160405180910390a35050565b611880610bb8565b156118c0576040517f08c379a00000000000000000000000000000000000000000000000000000000081526004016118b790612011565b60405180910390fd5b60016000806101000a81548160ff0219169083151502179055507f62e78cea01bee320cd4e420270b5ea74000d11b0c9f74754ebdbfc544b05a258611903611292565b6040516119109190611e22565b60405180910390a1565b600061192d611928846120f1565b6120cc565b905080838252602082019050828560208602820111156119505761194f6123ab565b5b60005b8581101561198057816119668882611a0c565b845260208401935060208301925050600181019050611953565b5050509392505050565b60008135905061199981612652565b92915050565b600082601f8301126119b4576119b36123a6565b5b81516119c484826020860161191a565b91505092915050565b6000815190506119dc81612669565b92915050565b6000813590506119f181612680565b92915050565b600081359050611a0681612697565b92915050565b600081519050611a1b81612697565b92915050565b600060208284031215611a3757611a366123b5565b5b6000611a458482850161198a565b91505092915050565b600060208284031215611a6457611a636123b5565b5b600082015167ffffffffffffffff811115611a8257611a816123b0565b5b611a8e8482850161199f565b91505092915050565b600060208284031215611aad57611aac6123b5565b5b6000611abb848285016119cd565b91505092915050565b600060208284031215611ada57611ad96123b5565b5b6000611ae8848285016119e2565b91505092915050565b60008060408385031215611b0857611b076123b5565b5b6000611b16858286016119e2565b9250506020611b27858286016119f7565b9150509250929050565b600060208284031215611b4757611b466123b5565b5b6000611b55848285016119f7565b91505092915050565b600060208284031215611b7457611b736123b5565b5b6000611b8284828501611a0c565b91505092915050565b6000611b978383611ba3565b60208301905092915050565b611bac816121f2565b82525050565b611bbb816121f2565b82525050565b6000611bcc8261212d565b611bd68185612145565b9350611be18361211d565b8060005b83811015611c12578151611bf98882611b8b565b9750611c0483612138565b925050600181019050611be5565b5085935050505092915050565b611c2881612204565b82525050565b611c378161224c565b82525050565b611c468161225e565b82525050565b6000611c59601483612156565b9150611c64826123cb565b602082019050919050565b6000611c7c601d83612156565b9150611c87826123f4565b602082019050919050565b6000611c9f602683612156565b9150611caa8261241d565b604082019050919050565b6000611cc2601e83612156565b9150611ccd8261246c565b602082019050919050565b6000611ce5601b83612156565b9150611cf082612495565b602082019050919050565b6000611d08602783612156565b9150611d13826124be565b604082019050919050565b6000611d2b601c83612156565b9150611d368261250d565b602082019050919050565b6000611d4e602983612156565b9150611d5982612536565b604082019050919050565b6000611d71601083612156565b9150611d7c82612585565b602082019050919050565b6000611d94602083612156565b9150611d9f826125ae565b602082019050919050565b6000611db7601f83612156565b9150611dc2826125d7565b602082019050919050565b6000611dda601e83612156565b9150611de582612600565b602082019050919050565b6000611dfd601f83612156565b9150611e0882612629565b602082019050919050565b611e1c81612242565b82525050565b6000602082019050611e376000830184611bb2565b92915050565b6000606082019050611e526000830186611bb2565b611e5f6020830185611bb2565b611e6c6040830184611e13565b949350505050565b6000604082019050611e896000830185611bb2565b611e966020830184611c2e565b9392505050565b6000604082019050611eb26000830185611bb2565b611ebf6020830184611e13565b9392505050565b6000602082019050611edb6000830184611c1f565b92915050565b6000604082019050611ef66000830185611c3d565b8181036020830152611f088184611bc1565b90509392505050565b60006020820190508181036000830152611f2a81611c4c565b9050919050565b60006020820190508181036000830152611f4a81611c6f565b9050919050565b60006020820190508181036000830152611f6a81611c92565b9050919050565b60006020820190508181036000830152611f8a81611cb5565b9050919050565b60006020820190508181036000830152611faa81611cd8565b9050919050565b60006020820190508181036000830152611fca81611cfb565b9050919050565b60006020820190508181036000830152611fea81611d1e565b9050919050565b6000602082019050818103600083015261200a81611d41565b9050919050565b6000602082019050818103600083015261202a81611d64565b9050919050565b6000602082019050818103600083015261204a81611d87565b9050919050565b6000602082019050818103600083015261206a81611daa565b9050919050565b6000602082019050818103600083015261208a81611dcd565b9050919050565b600060208201905081810360008301526120aa81611df0565b9050919050565b60006020820190506120c66000830184611e13565b92915050565b60006120d66120e7565b90506120e28282612270565b919050565b6000604051905090565b600067ffffffffffffffff82111561210c5761210b612377565b5b602082029050602081019050919050565b6000819050602082019050919050565b600081519050919050565b6000602082019050919050565b600082825260208201905092915050565b600082825260208201905092915050565b600061217282612242565b915061217d83612242565b92508261218d5761218c612319565b5b828204905092915050565b60006121a382612242565b91506121ae83612242565b9250817fffffffffffffffffffffffffffffffffffffffffffffffffffffffffffffffff04831182151516156121e7576121e66122ea565b5b828202905092915050565b60006121fd82612222565b9050919050565b60008115159050919050565b600061221b826121f2565b9050919050565b600073ffffffffffffffffffffffffffffffffffffffff82169050919050565b6000819050919050565b600061225782612242565b9050919050565b600061226982612242565b9050919050565b612279826123ba565b810181811067ffffffffffffffff8211171561229857612297612377565b5b80604052505050565b60006122ac82612242565b91507fffffffffffffffffffffffffffffffffffffffffffffffffffffffffffffffff8214156122df576122de6122ea565b5b600182019050919050565b7f4e487b7100000000000000000000000000000000000000000000000000000000600052601160045260246000fd5b7f4e487b7100000000000000000000000000000000000000000000000000000000600052601260045260246000fd5b7f4e487b7100000000000000000000000000000000000000000000000000000000600052603260045260246000fd5b7f4e487b7100000000000000000000000000000000000000000000000000000000600052604160045260246000fd5b600080fd5b600080fd5b600080fd5b600080fd5b6000601f19601f8301169050919050565b7f5061757361626c653a206e6f7420706175736564000000000000000000000000600082015250565b7f54686973204576656e74204e6f74205965742053746172742054696d65000000600082015250565b7f4f776e61626c653a206e6577206f776e657220697320746865207a65726f206160008201527f6464726573730000000000000000000000000000000000000000000000000000602082015250565b7f5f616d6f756e74206d7573742062652067726561746572207468616e20300000600082015250565b7f62616c616e63654f66546f6b656e3a2020697320657175616c20300000000000600082015250565b7f4e756d626572206f6620626f78206861766520746f206265206772656174657260008201527f207468616e203000000000000000000000000000000000000000000000000000602082015250565b7f62616c616e63654f664e61746976653a2020697320657175616c203000000000600082015250565b7f457863656564656420746865206c696d6974206f6e20746865206e756d62657260008201527f206f6620626f7865730000000000000000000000000000000000000000000000602082015250565b7f5061757361626c653a2070617573656400000000000000000000000000000000600082015250565b7f4f776e61626c653a2063616c6c6572206973206e6f7420746865206f776e6572600082015250565b7f62616c616e63654f664e61746976653a20206973206e6f7420656e6f75676800600082015250565b7f62616c616e63654f66546f6b656e3a20206973206e6f7420656e6f7567680000600082015250565b7f5265656e7472616e637947756172643a207265656e7472616e742063616c6c00600082015250565b61265b816121f2565b811461266657600080fd5b50565b61267281612204565b811461267d57600080fd5b50565b61268981612210565b811461269457600080fd5b50565b6126a081612242565b81146126ab57600080fd5b5056fea26469706673582212201aa69663d7256956b2f4fb2e816ae7a62345033b4b80f201925017aa80f11fbf64736f6c63430008070033",
					"opcodes": "PUSH1 0x80 PUSH1 0x40 MSTORE PUSH20 0x10ED43C718714EB63D5AA57B78B54704E256024E PUSH1 0x6 PUSH1 0x0 PUSH2 0x100 EXP DUP2 SLOAD DUP2 PUSH20 0xFFFFFFFFFFFFFFFFFFFFFFFFFFFFFFFFFFFFFFFF MUL NOT AND SWAP1 DUP4 PUSH20 0xFFFFFFFFFFFFFFFFFFFFFFFFFFFFFFFFFFFFFFFF AND MUL OR SWAP1 SSTORE POP PUSH20 0xBB4CDB9CBD36B01BD1CBAEBF2DE08D9173BC095C PUSH1 0x7 PUSH1 0x0 PUSH2 0x100 EXP DUP2 SLOAD DUP2 PUSH20 0xFFFFFFFFFFFFFFFFFFFFFFFFFFFFFFFFFFFFFFFF MUL NOT AND SWAP1 DUP4 PUSH20 0xFFFFFFFFFFFFFFFFFFFFFFFFFFFFFFFFFFFFFFFF AND MUL OR SWAP1 SSTORE POP PUSH20 0xE9E7CEA3DEDCA5984780BAFC599BD69ADD087D56 PUSH1 0x8 PUSH1 0x0 PUSH2 0x100 EXP DUP2 SLOAD DUP2 PUSH20 0xFFFFFFFFFFFFFFFFFFFFFFFFFFFFFFFFFFFFFFFF MUL NOT AND SWAP1 DUP4 PUSH20 0xFFFFFFFFFFFFFFFFFFFFFFFFFFFFFFFFFFFFFFFF AND MUL OR SWAP1 SSTORE POP PUSH1 0x0 PUSH1 0x9 SSTORE CALLVALUE DUP1 ISZERO PUSH3 0x115 JUMPI PUSH1 0x0 DUP1 REVERT JUMPDEST POP PUSH1 0x40 MLOAD PUSH3 0x2A8B CODESIZE SUB DUP1 PUSH3 0x2A8B DUP4 CODECOPY DUP2 DUP2 ADD PUSH1 0x40 MSTORE DUP2 ADD SWAP1 PUSH3 0x13B SWAP2 SWAP1 PUSH3 0x2FD JUMP JUMPDEST PUSH1 0x0 DUP1 PUSH1 0x0 PUSH2 0x100 EXP DUP2 SLOAD DUP2 PUSH1 0xFF MUL NOT AND SWAP1 DUP4 ISZERO ISZERO MUL OR SWAP1 SSTORE POP PUSH3 0x175 PUSH3 0x169 PUSH3 0x219 PUSH1 0x20 SHL PUSH1 0x20 SHR JUMP JUMPDEST PUSH3 0x221 PUSH1 0x20 SHL PUSH1 0x20 SHR JUMP JUMPDEST PUSH1 0x1 DUP1 DUP2 SWAP1 SSTORE POP DUP2 PUSH1 0x2 PUSH1 0x0 PUSH2 0x100 EXP DUP2 SLOAD DUP2 PUSH20 0xFFFFFFFFFFFFFFFFFFFFFFFFFFFFFFFFFFFFFFFF MUL NOT AND SWAP1 DUP4 PUSH20 0xFFFFFFFFFFFFFFFFFFFFFFFFFFFFFFFFFFFFFFFF AND MUL OR SWAP1 SSTORE POP DUP1 PUSH1 0x3 PUSH1 0x0 PUSH2 0x100 EXP DUP2 SLOAD DUP2 PUSH20 0xFFFFFFFFFFFFFFFFFFFFFFFFFFFFFFFFFFFFFFFF MUL NOT AND SWAP1 DUP4 PUSH20 0xFFFFFFFFFFFFFFFFFFFFFFFFFFFFFFFFFFFFFFFF AND MUL OR SWAP1 SSTORE POP PUSH4 0x627B5390 PUSH1 0x4 DUP2 SWAP1 SSTORE POP PUSH1 0xA PUSH1 0x5 DUP2 SWAP1 SSTORE POP POP POP PUSH3 0x397 JUMP JUMPDEST PUSH1 0x0 CALLER SWAP1 POP SWAP1 JUMP JUMPDEST PUSH1 0x0 DUP1 PUSH1 0x1 SWAP1 SLOAD SWAP1 PUSH2 0x100 EXP SWAP1 DIV PUSH20 0xFFFFFFFFFFFFFFFFFFFFFFFFFFFFFFFFFFFFFFFF AND SWAP1 POP DUP2 PUSH1 0x0 PUSH1 0x1 PUSH2 0x100 EXP DUP2 SLOAD DUP2 PUSH20 0xFFFFFFFFFFFFFFFFFFFFFFFFFFFFFFFFFFFFFFFF MUL NOT AND SWAP1 DUP4 PUSH20 0xFFFFFFFFFFFFFFFFFFFFFFFFFFFFFFFFFFFFFFFF AND MUL OR SWAP1 SSTORE POP DUP2 PUSH20 0xFFFFFFFFFFFFFFFFFFFFFFFFFFFFFFFFFFFFFFFF AND DUP2 PUSH20 0xFFFFFFFFFFFFFFFFFFFFFFFFFFFFFFFFFFFFFFFF AND PUSH32 0x8BE0079C531659141344CD1FD0A4F28419497F9722A3DAAFE3B4186F6B6457E0 PUSH1 0x40 MLOAD PUSH1 0x40 MLOAD DUP1 SWAP2 SUB SWAP1 LOG3 POP POP JUMP JUMPDEST PUSH1 0x0 DUP2 MLOAD SWAP1 POP PUSH3 0x2F7 DUP2 PUSH3 0x37D JUMP JUMPDEST SWAP3 SWAP2 POP POP JUMP JUMPDEST PUSH1 0x0 DUP1 PUSH1 0x40 DUP4 DUP6 SUB SLT ISZERO PUSH3 0x317 JUMPI PUSH3 0x316 PUSH3 0x378 JUMP JUMPDEST JUMPDEST PUSH1 0x0 PUSH3 0x327 DUP6 DUP3 DUP7 ADD PUSH3 0x2E6 JUMP JUMPDEST SWAP3 POP POP PUSH1 0x20 PUSH3 0x33A DUP6 DUP3 DUP7 ADD PUSH3 0x2E6 JUMP JUMPDEST SWAP2 POP POP SWAP3 POP SWAP3 SWAP1 POP JUMP JUMPDEST PUSH1 0x0 PUSH3 0x351 DUP3 PUSH3 0x358 JUMP JUMPDEST SWAP1 POP SWAP2 SWAP1 POP JUMP JUMPDEST PUSH1 0x0 PUSH20 0xFFFFFFFFFFFFFFFFFFFFFFFFFFFFFFFFFFFFFFFF DUP3 AND SWAP1 POP SWAP2 SWAP1 POP JUMP JUMPDEST PUSH1 0x0 DUP1 REVERT JUMPDEST PUSH3 0x388 DUP2 PUSH3 0x344 JUMP JUMPDEST DUP2 EQ PUSH3 0x394 JUMPI PUSH1 0x0 DUP1 REVERT JUMPDEST POP JUMP JUMPDEST PUSH2 0x26E4 DUP1 PUSH3 0x3A7 PUSH1 0x0 CODECOPY PUSH1 0x0 RETURN INVALID PUSH1 0x80 PUSH1 0x40 MSTORE PUSH1 0x4 CALLDATASIZE LT PUSH2 0x102 JUMPI PUSH1 0x0 CALLDATALOAD PUSH1 0xE0 SHR DUP1 PUSH4 0x715018A6 GT PUSH2 0x95 JUMPI DUP1 PUSH4 0x8DA5CB5B GT PUSH2 0x64 JUMPI DUP1 PUSH4 0x8DA5CB5B EQ PUSH2 0x2F3 JUMPI DUP1 PUSH4 0x9E281A98 EQ PUSH2 0x31E JUMPI DUP1 PUSH4 0xF2FDE38B EQ PUSH2 0x347 JUMPI DUP1 PUSH4 0xFC0C546A EQ PUSH2 0x370 JUMPI DUP1 PUSH4 0xFC9443D9 EQ PUSH2 0x39B JUMPI PUSH2 0x142 JUMP JUMPDEST DUP1 PUSH4 0x715018A6 EQ PUSH2 0x271 JUMPI DUP1 PUSH4 0x78E97925 EQ PUSH2 0x288 JUMPI DUP1 PUSH4 0x84276D81 EQ PUSH2 0x2B3 JUMPI DUP1 PUSH4 0x8456CB59 EQ PUSH2 0x2DC JUMPI PUSH2 0x142 JUMP JUMPDEST DUP1 PUSH4 0x51A30B30 GT PUSH2 0xD1 JUMPI DUP1 PUSH4 0x51A30B30 EQ PUSH2 0x1CB JUMPI DUP1 PUSH4 0x5629D258 EQ PUSH2 0x1F4 JUMPI DUP1 PUSH4 0x5C975ABB EQ PUSH2 0x21D JUMPI DUP1 PUSH4 0x5D3A7C5D EQ PUSH2 0x248 JUMPI PUSH2 0x142 JUMP JUMPDEST DUP1 PUSH4 0x15ED3C3 EQ PUSH2 0x147 JUMPI DUP1 PUSH4 0x6A3FBC2 EQ PUSH2 0x15E JUMPI DUP1 PUSH4 0xD551B63 EQ PUSH2 0x189 JUMPI DUP1 PUSH4 0x3F4BA83A EQ PUSH2 0x1B4 JUMPI PUSH2 0x142 JUMP JUMPDEST CALLDATASIZE PUSH2 0x142 JUMPI PUSH32 0x88A5966D370B9919B20F3E2C13FF65706F196A4E32CC2C12BF57088F88525874 CALLER CALLVALUE PUSH1 0x40 MLOAD PUSH2 0x138 SWAP3 SWAP2 SWAP1 PUSH2 0x1E9D JUMP JUMPDEST PUSH1 0x40 MLOAD DUP1 SWAP2 SUB SWAP1 LOG1 STOP JUMPDEST PUSH1 0x0 DUP1 REVERT JUMPDEST CALLVALUE DUP1 ISZERO PUSH2 0x153 JUMPI PUSH1 0x0 DUP1 REVERT JUMPDEST POP PUSH2 0x15C PUSH2 0x3C6 JUMP JUMPDEST STOP JUMPDEST CALLVALUE DUP1 ISZERO PUSH2 0x16A JUMPI PUSH1 0x0 DUP1 REVERT JUMPDEST POP PUSH2 0x173 PUSH2 0x4CE JUMP JUMPDEST PUSH1 0x40 MLOAD PUSH2 0x180 SWAP2 SWAP1 PUSH2 0x20B1 JUMP JUMPDEST PUSH1 0x40 MLOAD DUP1 SWAP2 SUB SWAP1 RETURN JUMPDEST CALLVALUE DUP1 ISZERO PUSH2 0x195 JUMPI PUSH1 0x0 DUP1 REVERT JUMPDEST POP PUSH2 0x19E PUSH2 0x4D4 JUMP JUMPDEST PUSH1 0x40 MLOAD PUSH2 0x1AB SWAP2 SWAP1 PUSH2 0x20B1 JUMP JUMPDEST PUSH1 0x40 MLOAD DUP1 SWAP2 SUB SWAP1 RETURN JUMPDEST CALLVALUE DUP1 ISZERO PUSH2 0x1C0 JUMPI PUSH1 0x0 DUP1 REVERT JUMPDEST POP PUSH2 0x1C9 PUSH2 0x4DA JUMP JUMPDEST STOP JUMPDEST CALLVALUE DUP1 ISZERO PUSH2 0x1D7 JUMPI PUSH1 0x0 DUP1 REVERT JUMPDEST POP PUSH2 0x1F2 PUSH1 0x4 DUP1 CALLDATASIZE SUB DUP2 ADD SWAP1 PUSH2 0x1ED SWAP2 SWAP1 PUSH2 0x1B31 JUMP JUMPDEST PUSH2 0x560 JUMP JUMPDEST STOP JUMPDEST CALLVALUE DUP1 ISZERO PUSH2 0x200 JUMPI PUSH1 0x0 DUP1 REVERT JUMPDEST POP PUSH2 0x21B PUSH1 0x4 DUP1 CALLDATASIZE SUB DUP2 ADD SWAP1 PUSH2 0x216 SWAP2 SWAP1 PUSH2 0x1AC4 JUMP JUMPDEST PUSH2 0x958 JUMP JUMPDEST STOP JUMPDEST CALLVALUE DUP1 ISZERO PUSH2 0x229 JUMPI PUSH1 0x0 DUP1 REVERT JUMPDEST POP PUSH2 0x232 PUSH2 0xBB8 JUMP JUMPDEST PUSH1 0x40 MLOAD PUSH2 0x23F SWAP2 SWAP1 PUSH2 0x1EC6 JUMP JUMPDEST PUSH1 0x40 MLOAD DUP1 SWAP2 SUB SWAP1 RETURN JUMPDEST CALLVALUE DUP1 ISZERO PUSH2 0x254 JUMPI PUSH1 0x0 DUP1 REVERT JUMPDEST POP PUSH2 0x26F PUSH1 0x4 DUP1 CALLDATASIZE SUB DUP2 ADD SWAP1 PUSH2 0x26A SWAP2 SWAP1 PUSH2 0x1B31 JUMP JUMPDEST PUSH2 0xBCE JUMP JUMPDEST STOP JUMPDEST CALLVALUE DUP1 ISZERO PUSH2 0x27D JUMPI PUSH1 0x0 DUP1 REVERT JUMPDEST POP PUSH2 0x286 PUSH2 0xCA9 JUMP JUMPDEST STOP JUMPDEST CALLVALUE DUP1 ISZERO PUSH2 0x294 JUMPI PUSH1 0x0 DUP1 REVERT JUMPDEST POP PUSH2 0x29D PUSH2 0xD31 JUMP JUMPDEST PUSH1 0x40 MLOAD PUSH2 0x2AA SWAP2 SWAP1 PUSH2 0x20B1 JUMP JUMPDEST PUSH1 0x40 MLOAD DUP1 SWAP2 SUB SWAP1 RETURN JUMPDEST CALLVALUE DUP1 ISZERO PUSH2 0x2BF JUMPI PUSH1 0x0 DUP1 REVERT JUMPDEST POP PUSH2 0x2DA PUSH1 0x4 DUP1 CALLDATASIZE SUB DUP2 ADD SWAP1 PUSH2 0x2D5 SWAP2 SWAP1 PUSH2 0x1B31 JUMP JUMPDEST PUSH2 0xD37 JUMP JUMPDEST STOP JUMPDEST CALLVALUE DUP1 ISZERO PUSH2 0x2E8 JUMPI PUSH1 0x0 DUP1 REVERT JUMPDEST POP PUSH2 0x2F1 PUSH2 0xE83 JUMP JUMPDEST STOP JUMPDEST CALLVALUE DUP1 ISZERO PUSH2 0x2FF JUMPI PUSH1 0x0 DUP1 REVERT JUMPDEST POP PUSH2 0x308 PUSH2 0xF09 JUMP JUMPDEST PUSH1 0x40 MLOAD PUSH2 0x315 SWAP2 SWAP1 PUSH2 0x1E22 JUMP JUMPDEST PUSH1 0x40 MLOAD DUP1 SWAP2 SUB SWAP1 RETURN JUMPDEST CALLVALUE DUP1 ISZERO PUSH2 0x32A JUMPI PUSH1 0x0 DUP1 REVERT JUMPDEST POP PUSH2 0x345 PUSH1 0x4 DUP1 CALLDATASIZE SUB DUP2 ADD SWAP1 PUSH2 0x340 SWAP2 SWAP1 PUSH2 0x1AF1 JUMP JUMPDEST PUSH2 0xF32 JUMP JUMPDEST STOP JUMPDEST CALLVALUE DUP1 ISZERO PUSH2 0x353 JUMPI PUSH1 0x0 DUP1 REVERT JUMPDEST POP PUSH2 0x36E PUSH1 0x4 DUP1 CALLDATASIZE SUB DUP2 ADD SWAP1 PUSH2 0x369 SWAP2 SWAP1 PUSH2 0x1A21 JUMP JUMPDEST PUSH2 0x114E JUMP JUMPDEST STOP JUMPDEST CALLVALUE DUP1 ISZERO PUSH2 0x37C JUMPI PUSH1 0x0 DUP1 REVERT JUMPDEST POP PUSH2 0x385 PUSH2 0x1246 JUMP JUMPDEST PUSH1 0x40 MLOAD PUSH2 0x392 SWAP2 SWAP1 PUSH2 0x1E22 JUMP JUMPDEST PUSH1 0x40 MLOAD DUP1 SWAP2 SUB SWAP1 RETURN JUMPDEST CALLVALUE DUP1 ISZERO PUSH2 0x3A7 JUMPI PUSH1 0x0 DUP1 REVERT JUMPDEST POP PUSH2 0x3B0 PUSH2 0x126C JUMP JUMPDEST PUSH1 0x40 MLOAD PUSH2 0x3BD SWAP2 SWAP1 PUSH2 0x1E22 JUMP JUMPDEST PUSH1 0x40 MLOAD DUP1 SWAP2 SUB SWAP1 RETURN JUMPDEST PUSH2 0x3CE PUSH2 0x1292 JUMP JUMPDEST PUSH20 0xFFFFFFFFFFFFFFFFFFFFFFFFFFFFFFFFFFFFFFFF AND PUSH2 0x3EC PUSH2 0xF09 JUMP JUMPDEST PUSH20 0xFFFFFFFFFFFFFFFFFFFFFFFFFFFFFFFFFFFFFFFF AND EQ PUSH2 0x442 JUMPI PUSH1 0x40 MLOAD PUSH32 0x8C379A000000000000000000000000000000000000000000000000000000000 DUP2 MSTORE PUSH1 0x4 ADD PUSH2 0x439 SWAP1 PUSH2 0x2031 JUMP JUMPDEST PUSH1 0x40 MLOAD DUP1 SWAP2 SUB SWAP1 REVERT JUMPDEST PUSH1 0x0 SELFBALANCE GT PUSH2 0x485 JUMPI PUSH1 0x40 MLOAD PUSH32 0x8C379A000000000000000000000000000000000000000000000000000000000 DUP2 MSTORE PUSH1 0x4 ADD PUSH2 0x47C SWAP1 PUSH2 0x1FD1 JUMP JUMPDEST PUSH1 0x40 MLOAD DUP1 SWAP2 SUB SWAP1 REVERT JUMPDEST CALLER PUSH20 0xFFFFFFFFFFFFFFFFFFFFFFFFFFFFFFFFFFFFFFFF AND PUSH2 0x8FC SELFBALANCE SWAP1 DUP2 ISZERO MUL SWAP1 PUSH1 0x40 MLOAD PUSH1 0x0 PUSH1 0x40 MLOAD DUP1 DUP4 SUB DUP2 DUP6 DUP9 DUP9 CALL SWAP4 POP POP POP POP ISZERO DUP1 ISZERO PUSH2 0x4CB JUMPI RETURNDATASIZE PUSH1 0x0 DUP1 RETURNDATACOPY RETURNDATASIZE PUSH1 0x0 REVERT JUMPDEST POP JUMP JUMPDEST PUSH1 0x5 SLOAD DUP2 JUMP JUMPDEST PUSH1 0x9 SLOAD DUP2 JUMP JUMPDEST PUSH2 0x4E2 PUSH2 0x1292 JUMP JUMPDEST PUSH20 0xFFFFFFFFFFFFFFFFFFFFFFFFFFFFFFFFFFFFFFFF AND PUSH2 0x500 PUSH2 0xF09 JUMP JUMPDEST PUSH20 0xFFFFFFFFFFFFFFFFFFFFFFFFFFFFFFFFFFFFFFFF AND EQ PUSH2 0x556 JUMPI PUSH1 0x40 MLOAD PUSH32 0x8C379A000000000000000000000000000000000000000000000000000000000 DUP2 MSTORE PUSH1 0x4 ADD PUSH2 0x54D SWAP1 PUSH2 0x2031 JUMP JUMPDEST PUSH1 0x40 MLOAD DUP1 SWAP2 SUB SWAP1 REVERT JUMPDEST PUSH2 0x55E PUSH2 0x129A JUMP JUMPDEST JUMP JUMPDEST PUSH2 0x568 PUSH2 0xBB8 JUMP JUMPDEST ISZERO PUSH2 0x5A8 JUMPI PUSH1 0x40 MLOAD PUSH32 0x8C379A000000000000000000000000000000000000000000000000000000000 DUP2 MSTORE PUSH1 0x4 ADD PUSH2 0x59F SWAP1 PUSH2 0x2011 JUMP JUMPDEST PUSH1 0x40 MLOAD DUP1 SWAP2 SUB SWAP1 REVERT JUMPDEST PUSH1 0x2 PUSH1 0x1 SLOAD EQ ISZERO PUSH2 0x5EE JUMPI PUSH1 0x40 MLOAD PUSH32 0x8C379A000000000000000000000000000000000000000000000000000000000 DUP2 MSTORE PUSH1 0x4 ADD PUSH2 0x5E5 SWAP1 PUSH2 0x2091 JUMP JUMPDEST PUSH1 0x40 MLOAD DUP1 SWAP2 SUB SWAP1 REVERT JUMPDEST PUSH1 0x2 PUSH1 0x1 DUP2 SWAP1 SSTORE POP TIMESTAMP PUSH1 0x4 SLOAD GT ISZERO PUSH2 0x63B JUMPI PUSH1 0x40 MLOAD PUSH32 0x8C379A000000000000000000000000000000000000000000000000000000000 DUP2 MSTORE PUSH1 0x4 ADD PUSH2 0x632 SWAP1 PUSH2 0x1F31 JUMP JUMPDEST PUSH1 0x40 MLOAD DUP1 SWAP2 SUB SWAP1 REVERT JUMPDEST PUSH1 0x5 SLOAD DUP2 GT ISZERO PUSH2 0x680 JUMPI PUSH1 0x40 MLOAD PUSH32 0x8C379A000000000000000000000000000000000000000000000000000000000 DUP2 MSTORE PUSH1 0x4 ADD PUSH2 0x677 SWAP1 PUSH2 0x1FF1 JUMP JUMPDEST PUSH1 0x40 MLOAD DUP1 SWAP2 SUB SWAP1 REVERT JUMPDEST PUSH1 0x0 DUP2 GT PUSH2 0x6C3 JUMPI PUSH1 0x40 MLOAD PUSH32 0x8C379A000000000000000000000000000000000000000000000000000000000 DUP2 MSTORE PUSH1 0x4 ADD PUSH2 0x6BA SWAP1 PUSH2 0x1FB1 JUMP JUMPDEST PUSH1 0x40 MLOAD DUP1 SWAP2 SUB SWAP1 REVERT JUMPDEST PUSH1 0x0 PUSH2 0x6CD PUSH2 0x133B JUMP JUMPDEST SWAP1 POP DUP2 DUP2 PUSH2 0x6DB SWAP2 SWAP1 PUSH2 0x2198 JUMP JUMPDEST SWAP1 POP PUSH1 0x2 PUSH1 0x0 SWAP1 SLOAD SWAP1 PUSH2 0x100 EXP SWAP1 DIV PUSH20 0xFFFFFFFFFFFFFFFFFFFFFFFFFFFFFFFFFFFFFFFF AND PUSH20 0xFFFFFFFFFFFFFFFFFFFFFFFFFFFFFFFFFFFFFFFF AND PUSH4 0x23B872DD CALLER ADDRESS DUP5 PUSH1 0x40 MLOAD DUP5 PUSH4 0xFFFFFFFF AND PUSH1 0xE0 SHL DUP2 MSTORE PUSH1 0x4 ADD PUSH2 0x73C SWAP4 SWAP3 SWAP2 SWAP1 PUSH2 0x1E3D JUMP JUMPDEST PUSH1 0x20 PUSH1 0x40 MLOAD DUP1 DUP4 SUB DUP2 PUSH1 0x0 DUP8 DUP1 EXTCODESIZE ISZERO DUP1 ISZERO PUSH2 0x756 JUMPI PUSH1 0x0 DUP1 REVERT JUMPDEST POP GAS CALL ISZERO DUP1 ISZERO PUSH2 0x76A JUMPI RETURNDATASIZE PUSH1 0x0 DUP1 RETURNDATACOPY RETURNDATASIZE PUSH1 0x0 REVERT JUMPDEST POP POP POP POP PUSH1 0x40 MLOAD RETURNDATASIZE PUSH1 0x1F NOT PUSH1 0x1F DUP3 ADD AND DUP3 ADD DUP1 PUSH1 0x40 MSTORE POP DUP2 ADD SWAP1 PUSH2 0x78E SWAP2 SWAP1 PUSH2 0x1A97 JUMP JUMPDEST POP PUSH1 0x0 JUMPDEST DUP3 DUP2 LT ISZERO PUSH2 0x909 JUMPI PUSH1 0x0 PUSH1 0x3 PUSH1 0x0 SWAP1 SLOAD SWAP1 PUSH2 0x100 EXP SWAP1 DIV PUSH20 0xFFFFFFFFFFFFFFFFFFFFFFFFFFFFFFFFFFFFFFFF AND PUSH20 0xFFFFFFFFFFFFFFFFFFFFFFFFFFFFFFFFFFFFFFFF AND PUSH4 0x2F745C59 ADDRESS PUSH1 0x0 PUSH1 0x40 MLOAD DUP4 PUSH4 0xFFFFFFFF AND PUSH1 0xE0 SHL DUP2 MSTORE PUSH1 0x4 ADD PUSH2 0x7FA SWAP3 SWAP2 SWAP1 PUSH2 0x1E74 JUMP JUMPDEST PUSH1 0x20 PUSH1 0x40 MLOAD DUP1 DUP4 SUB DUP2 DUP7 DUP1 EXTCODESIZE ISZERO DUP1 ISZERO PUSH2 0x812 JUMPI PUSH1 0x0 DUP1 REVERT JUMPDEST POP GAS STATICCALL ISZERO DUP1 ISZERO PUSH2 0x826 JUMPI RETURNDATASIZE PUSH1 0x0 DUP1 RETURNDATACOPY RETURNDATASIZE PUSH1 0x0 REVERT JUMPDEST POP POP POP POP PUSH1 0x40 MLOAD RETURNDATASIZE PUSH1 0x1F NOT PUSH1 0x1F DUP3 ADD AND DUP3 ADD DUP1 PUSH1 0x40 MSTORE POP DUP2 ADD SWAP1 PUSH2 0x84A SWAP2 SWAP1 PUSH2 0x1B5E JUMP JUMPDEST SWAP1 POP PUSH1 0x3 PUSH1 0x0 SWAP1 SLOAD SWAP1 PUSH2 0x100 EXP SWAP1 DIV PUSH20 0xFFFFFFFFFFFFFFFFFFFFFFFFFFFFFFFFFFFFFFFF AND PUSH20 0xFFFFFFFFFFFFFFFFFFFFFFFFFFFFFFFFFFFFFFFF AND PUSH4 0x42842E0E ADDRESS CALLER DUP5 PUSH1 0x40 MLOAD DUP5 PUSH4 0xFFFFFFFF AND PUSH1 0xE0 SHL DUP2 MSTORE PUSH1 0x4 ADD PUSH2 0x8AB SWAP4 SWAP3 SWAP2 SWAP1 PUSH2 0x1E3D JUMP JUMPDEST PUSH1 0x0 PUSH1 0x40 MLOAD DUP1 DUP4 SUB DUP2 PUSH1 0x0 DUP8 DUP1 EXTCODESIZE ISZERO DUP1 ISZERO PUSH2 0x8C5 JUMPI PUSH1 0x0 DUP1 REVERT JUMPDEST POP GAS CALL ISZERO DUP1 ISZERO PUSH2 0x8D9 JUMPI RETURNDATASIZE PUSH1 0x0 DUP1 RETURNDATACOPY RETURNDATASIZE PUSH1 0x0 REVERT JUMPDEST POP POP POP POP PUSH1 0x9 PUSH1 0x0 DUP2 SLOAD DUP1 SWAP3 SWAP2 SWAP1 PUSH2 0x8F0 SWAP1 PUSH2 0x22A1 JUMP JUMPDEST SWAP2 SWAP1 POP SSTORE POP POP DUP1 DUP1 PUSH2 0x901 SWAP1 PUSH2 0x22A1 JUMP JUMPDEST SWAP2 POP POP PUSH2 0x792 JUMP JUMPDEST POP CALLER PUSH20 0xFFFFFFFFFFFFFFFFFFFFFFFFFFFFFFFFFFFFFFFF AND PUSH32 0xE808D608ADA169DE9A8C0D30DB14F08FB8A79DAC772D4CCCA3E31EC966935599 PUSH1 0x40 MLOAD PUSH1 0x40 MLOAD DUP1 SWAP2 SUB SWAP1 LOG2 POP PUSH1 0x1 DUP1 DUP2 SWAP1 SSTORE POP POP JUMP JUMPDEST PUSH2 0x960 PUSH2 0x1292 JUMP JUMPDEST PUSH20 0xFFFFFFFFFFFFFFFFFFFFFFFFFFFFFFFFFFFFFFFF AND PUSH2 0x97E PUSH2 0xF09 JUMP JUMPDEST PUSH20 0xFFFFFFFFFFFFFFFFFFFFFFFFFFFFFFFFFFFFFFFF AND EQ PUSH2 0x9D4 JUMPI PUSH1 0x40 MLOAD PUSH32 0x8C379A000000000000000000000000000000000000000000000000000000000 DUP2 MSTORE PUSH1 0x4 ADD PUSH2 0x9CB SWAP1 PUSH2 0x2031 JUMP JUMPDEST PUSH1 0x40 MLOAD DUP1 SWAP2 SUB SWAP1 REVERT JUMPDEST PUSH1 0x0 DUP2 PUSH20 0xFFFFFFFFFFFFFFFFFFFFFFFFFFFFFFFFFFFFFFFF AND PUSH4 0x70A08231 ADDRESS PUSH1 0x40 MLOAD DUP3 PUSH4 0xFFFFFFFF AND PUSH1 0xE0 SHL DUP2 MSTORE PUSH1 0x4 ADD PUSH2 0xA0F SWAP2 SWAP1 PUSH2 0x1E22 JUMP JUMPDEST PUSH1 0x20 PUSH1 0x40 MLOAD DUP1 DUP4 SUB DUP2 DUP7 DUP1 EXTCODESIZE ISZERO DUP1 ISZERO PUSH2 0xA27 JUMPI PUSH1 0x0 DUP1 REVERT JUMPDEST POP GAS STATICCALL ISZERO DUP1 ISZERO PUSH2 0xA3B JUMPI RETURNDATASIZE PUSH1 0x0 DUP1 RETURNDATACOPY RETURNDATASIZE PUSH1 0x0 REVERT JUMPDEST POP POP POP POP PUSH1 0x40 MLOAD RETURNDATASIZE PUSH1 0x1F NOT PUSH1 0x1F DUP3 ADD AND DUP3 ADD DUP1 PUSH1 0x40 MSTORE POP DUP2 ADD SWAP1 PUSH2 0xA5F SWAP2 SWAP1 PUSH2 0x1B5E JUMP JUMPDEST GT PUSH2 0xA9F JUMPI PUSH1 0x40 MLOAD PUSH32 0x8C379A000000000000000000000000000000000000000000000000000000000 DUP2 MSTORE PUSH1 0x4 ADD PUSH2 0xA96 SWAP1 PUSH2 0x1F91 JUMP JUMPDEST PUSH1 0x40 MLOAD DUP1 SWAP2 SUB SWAP1 REVERT JUMPDEST DUP1 PUSH20 0xFFFFFFFFFFFFFFFFFFFFFFFFFFFFFFFFFFFFFFFF AND PUSH4 0xA9059CBB CALLER DUP4 PUSH20 0xFFFFFFFFFFFFFFFFFFFFFFFFFFFFFFFFFFFFFFFF AND PUSH4 0x70A08231 ADDRESS PUSH1 0x40 MLOAD DUP3 PUSH4 0xFFFFFFFF AND PUSH1 0xE0 SHL DUP2 MSTORE PUSH1 0x4 ADD PUSH2 0xAF5 SWAP2 SWAP1 PUSH2 0x1E22 JUMP JUMPDEST PUSH1 0x20 PUSH1 0x40 MLOAD DUP1 DUP4 SUB DUP2 DUP7 DUP1 EXTCODESIZE ISZERO DUP1 ISZERO PUSH2 0xB0D JUMPI PUSH1 0x0 DUP1 REVERT JUMPDEST POP GAS STATICCALL ISZERO DUP1 ISZERO PUSH2 0xB21 JUMPI RETURNDATASIZE PUSH1 0x0 DUP1 RETURNDATACOPY RETURNDATASIZE PUSH1 0x0 REVERT JUMPDEST POP POP POP POP PUSH1 0x40 MLOAD RETURNDATASIZE PUSH1 0x1F NOT PUSH1 0x1F DUP3 ADD AND DUP3 ADD DUP1 PUSH1 0x40 MSTORE POP DUP2 ADD SWAP1 PUSH2 0xB45 SWAP2 SWAP1 PUSH2 0x1B5E JUMP JUMPDEST PUSH1 0x40 MLOAD DUP4 PUSH4 0xFFFFFFFF AND PUSH1 0xE0 SHL DUP2 MSTORE PUSH1 0x4 ADD PUSH2 0xB62 SWAP3 SWAP2 SWAP1 PUSH2 0x1E9D JUMP JUMPDEST PUSH1 0x20 PUSH1 0x40 MLOAD DUP1 DUP4 SUB DUP2 PUSH1 0x0 DUP8 DUP1 EXTCODESIZE ISZERO DUP1 ISZERO PUSH2 0xB7C JUMPI PUSH1 0x0 DUP1 REVERT JUMPDEST POP GAS CALL ISZERO DUP1 ISZERO PUSH2 0xB90 JUMPI RETURNDATASIZE PUSH1 0x0 DUP1 RETURNDATACOPY RETURNDATASIZE PUSH1 0x0 REVERT JUMPDEST POP POP POP POP PUSH1 0x40 MLOAD RETURNDATASIZE PUSH1 0x1F NOT PUSH1 0x1F DUP3 ADD AND DUP3 ADD DUP1 PUSH1 0x40 MSTORE POP DUP2 ADD SWAP1 PUSH2 0xBB4 SWAP2 SWAP1 PUSH2 0x1A97 JUMP JUMPDEST POP POP JUMP JUMPDEST PUSH1 0x0 DUP1 PUSH1 0x0 SWAP1 SLOAD SWAP1 PUSH2 0x100 EXP SWAP1 DIV PUSH1 0xFF AND SWAP1 POP SWAP1 JUMP JUMPDEST PUSH2 0xBD6 PUSH2 0x1292 JUMP JUMPDEST PUSH20 0xFFFFFFFFFFFFFFFFFFFFFFFFFFFFFFFFFFFFFFFF AND PUSH2 0xBF4 PUSH2 0xF09 JUMP JUMPDEST PUSH20 0xFFFFFFFFFFFFFFFFFFFFFFFFFFFFFFFFFFFFFFFF AND EQ PUSH2 0xC4A JUMPI PUSH1 0x40 MLOAD PUSH32 0x8C379A000000000000000000000000000000000000000000000000000000000 DUP2 MSTORE PUSH1 0x4 ADD PUSH2 0xC41 SWAP1 PUSH2 0x2031 JUMP JUMPDEST PUSH1 0x40 MLOAD DUP1 SWAP2 SUB SWAP1 REVERT JUMPDEST PUSH1 0x2 PUSH1 0x1 SLOAD EQ ISZERO PUSH2 0xC90 JUMPI PUSH1 0x40 MLOAD PUSH32 0x8C379A000000000000000000000000000000000000000000000000000000000 DUP2 MSTORE PUSH1 0x4 ADD PUSH2 0xC87 SWAP1 PUSH2 0x2091 JUMP JUMPDEST PUSH1 0x40 MLOAD DUP1 SWAP2 SUB SWAP1 REVERT JUMPDEST PUSH1 0x2 PUSH1 0x1 DUP2 SWAP1 SSTORE POP DUP1 PUSH1 0x5 DUP2 SWAP1 SSTORE POP PUSH1 0x1 DUP1 DUP2 SWAP1 SSTORE POP POP JUMP JUMPDEST PUSH2 0xCB1 PUSH2 0x1292 JUMP JUMPDEST PUSH20 0xFFFFFFFFFFFFFFFFFFFFFFFFFFFFFFFFFFFFFFFF AND PUSH2 0xCCF PUSH2 0xF09 JUMP JUMPDEST PUSH20 0xFFFFFFFFFFFFFFFFFFFFFFFFFFFFFFFFFFFFFFFF AND EQ PUSH2 0xD25 JUMPI PUSH1 0x40 MLOAD PUSH32 0x8C379A000000000000000000000000000000000000000000000000000000000 DUP2 MSTORE PUSH1 0x4 ADD PUSH2 0xD1C SWAP1 PUSH2 0x2031 JUMP JUMPDEST PUSH1 0x40 MLOAD DUP1 SWAP2 SUB SWAP1 REVERT JUMPDEST PUSH2 0xD2F PUSH1 0x0 PUSH2 0x17B3 JUMP JUMPDEST JUMP JUMPDEST PUSH1 0x4 SLOAD DUP2 JUMP JUMPDEST PUSH2 0xD3F PUSH2 0x1292 JUMP JUMPDEST PUSH20 0xFFFFFFFFFFFFFFFFFFFFFFFFFFFFFFFFFFFFFFFF AND PUSH2 0xD5D PUSH2 0xF09 JUMP JUMPDEST PUSH20 0xFFFFFFFFFFFFFFFFFFFFFFFFFFFFFFFFFFFFFFFF AND EQ PUSH2 0xDB3 JUMPI PUSH1 0x40 MLOAD PUSH32 0x8C379A000000000000000000000000000000000000000000000000000000000 DUP2 MSTORE PUSH1 0x4 ADD PUSH2 0xDAA SWAP1 PUSH2 0x2031 JUMP JUMPDEST PUSH1 0x40 MLOAD DUP1 SWAP2 SUB SWAP1 REVERT JUMPDEST PUSH1 0x0 DUP2 GT PUSH2 0xDF6 JUMPI PUSH1 0x40 MLOAD PUSH32 0x8C379A000000000000000000000000000000000000000000000000000000000 DUP2 MSTORE PUSH1 0x4 ADD PUSH2 0xDED SWAP1 PUSH2 0x1F71 JUMP JUMPDEST PUSH1 0x40 MLOAD DUP1 SWAP2 SUB SWAP1 REVERT JUMPDEST DUP1 SELFBALANCE LT ISZERO PUSH2 0xE39 JUMPI PUSH1 0x40 MLOAD PUSH32 0x8C379A000000000000000000000000000000000000000000000000000000000 DUP2 MSTORE PUSH1 0x4 ADD PUSH2 0xE30 SWAP1 PUSH2 0x2051 JUMP JUMPDEST PUSH1 0x40 MLOAD DUP1 SWAP2 SUB SWAP1 REVERT JUMPDEST CALLER PUSH20 0xFFFFFFFFFFFFFFFFFFFFFFFFFFFFFFFFFFFFFFFF AND PUSH2 0x8FC DUP3 SWAP1 DUP2 ISZERO MUL SWAP1 PUSH1 0x40 MLOAD PUSH1 0x0 PUSH1 0x40 MLOAD DUP1 DUP4 SUB DUP2 DUP6 DUP9 DUP9 CALL SWAP4 POP POP POP POP ISZERO DUP1 ISZERO PUSH2 0xE7F JUMPI RETURNDATASIZE PUSH1 0x0 DUP1 RETURNDATACOPY RETURNDATASIZE PUSH1 0x0 REVERT JUMPDEST POP POP JUMP JUMPDEST PUSH2 0xE8B PUSH2 0x1292 JUMP JUMPDEST PUSH20 0xFFFFFFFFFFFFFFFFFFFFFFFFFFFFFFFFFFFFFFFF AND PUSH2 0xEA9 PUSH2 0xF09 JUMP JUMPDEST PUSH20 0xFFFFFFFFFFFFFFFFFFFFFFFFFFFFFFFFFFFFFFFF AND EQ PUSH2 0xEFF JUMPI PUSH1 0x40 MLOAD PUSH32 0x8C379A000000000000000000000000000000000000000000000000000000000 DUP2 MSTORE PUSH1 0x4 ADD PUSH2 0xEF6 SWAP1 PUSH2 0x2031 JUMP JUMPDEST PUSH1 0x40 MLOAD DUP1 SWAP2 SUB SWAP1 REVERT JUMPDEST PUSH2 0xF07 PUSH2 0x1878 JUMP JUMPDEST JUMP JUMPDEST PUSH1 0x0 DUP1 PUSH1 0x1 SWAP1 SLOAD SWAP1 PUSH2 0x100 EXP SWAP1 DIV PUSH20 0xFFFFFFFFFFFFFFFFFFFFFFFFFFFFFFFFFFFFFFFF AND SWAP1 POP SWAP1 JUMP JUMPDEST PUSH2 0xF3A PUSH2 0x1292 JUMP JUMPDEST PUSH20 0xFFFFFFFFFFFFFFFFFFFFFFFFFFFFFFFFFFFFFFFF AND PUSH2 0xF58 PUSH2 0xF09 JUMP JUMPDEST PUSH20 0xFFFFFFFFFFFFFFFFFFFFFFFFFFFFFFFFFFFFFFFF AND EQ PUSH2 0xFAE JUMPI PUSH1 0x40 MLOAD PUSH32 0x8C379A000000000000000000000000000000000000000000000000000000000 DUP2 MSTORE PUSH1 0x4 ADD PUSH2 0xFA5 SWAP1 PUSH2 0x2031 JUMP JUMPDEST PUSH1 0x40 MLOAD DUP1 SWAP2 SUB SWAP1 REVERT JUMPDEST PUSH1 0x0 DUP2 GT PUSH2 0xFF1 JUMPI PUSH1 0x40 MLOAD PUSH32 0x8C379A000000000000000000000000000000000000000000000000000000000 DUP2 MSTORE PUSH1 0x4 ADD PUSH2 0xFE8 SWAP1 PUSH2 0x1F71 JUMP JUMPDEST PUSH1 0x40 MLOAD DUP1 SWAP2 SUB SWAP1 REVERT JUMPDEST DUP1 DUP3 PUSH20 0xFFFFFFFFFFFFFFFFFFFFFFFFFFFFFFFFFFFFFFFF AND PUSH4 0x70A08231 ADDRESS PUSH1 0x40 MLOAD DUP3 PUSH4 0xFFFFFFFF AND PUSH1 0xE0 SHL DUP2 MSTORE PUSH1 0x4 ADD PUSH2 0x102B SWAP2 SWAP1 PUSH2 0x1E22 JUMP JUMPDEST PUSH1 0x20 PUSH1 0x40 MLOAD DUP1 DUP4 SUB DUP2 DUP7 DUP1 EXTCODESIZE ISZERO DUP1 ISZERO PUSH2 0x1043 JUMPI PUSH1 0x0 DUP1 REVERT JUMPDEST POP GAS STATICCALL ISZERO DUP1 ISZERO PUSH2 0x1057 JUMPI RETURNDATASIZE PUSH1 0x0 DUP1 RETURNDATACOPY RETURNDATASIZE PUSH1 0x0 REVERT JUMPDEST POP POP POP POP PUSH1 0x40 MLOAD RETURNDATASIZE PUSH1 0x1F NOT PUSH1 0x1F DUP3 ADD AND DUP3 ADD DUP1 PUSH1 0x40 MSTORE POP DUP2 ADD SWAP1 PUSH2 0x107B SWAP2 SWAP1 PUSH2 0x1B5E JUMP JUMPDEST LT ISZERO PUSH2 0x10BC JUMPI PUSH1 0x40 MLOAD PUSH32 0x8C379A000000000000000000000000000000000000000000000000000000000 DUP2 MSTORE PUSH1 0x4 ADD PUSH2 0x10B3 SWAP1 PUSH2 0x2071 JUMP JUMPDEST PUSH1 0x40 MLOAD DUP1 SWAP2 SUB SWAP1 REVERT JUMPDEST DUP2 PUSH20 0xFFFFFFFFFFFFFFFFFFFFFFFFFFFFFFFFFFFFFFFF AND PUSH4 0xA9059CBB CALLER DUP4 PUSH1 0x40 MLOAD DUP4 PUSH4 0xFFFFFFFF AND PUSH1 0xE0 SHL DUP2 MSTORE PUSH1 0x4 ADD PUSH2 0x10F7 SWAP3 SWAP2 SWAP1 PUSH2 0x1E9D JUMP JUMPDEST PUSH1 0x20 PUSH1 0x40 MLOAD DUP1 DUP4 SUB DUP2 PUSH1 0x0 DUP8 DUP1 EXTCODESIZE ISZERO DUP1 ISZERO PUSH2 0x1111 JUMPI PUSH1 0x0 DUP1 REVERT JUMPDEST POP GAS CALL ISZERO DUP1 ISZERO PUSH2 0x1125 JUMPI RETURNDATASIZE PUSH1 0x0 DUP1 RETURNDATACOPY RETURNDATASIZE PUSH1 0x0 REVERT JUMPDEST POP POP POP POP PUSH1 0x40 MLOAD RETURNDATASIZE PUSH1 0x1F NOT PUSH1 0x1F DUP3 ADD AND DUP3 ADD DUP1 PUSH1 0x40 MSTORE POP DUP2 ADD SWAP1 PUSH2 0x1149 SWAP2 SWAP1 PUSH2 0x1A97 JUMP JUMPDEST POP POP POP JUMP JUMPDEST PUSH2 0x1156 PUSH2 0x1292 JUMP JUMPDEST PUSH20 0xFFFFFFFFFFFFFFFFFFFFFFFFFFFFFFFFFFFFFFFF AND PUSH2 0x1174 PUSH2 0xF09 JUMP JUMPDEST PUSH20 0xFFFFFFFFFFFFFFFFFFFFFFFFFFFFFFFFFFFFFFFF AND EQ PUSH2 0x11CA JUMPI PUSH1 0x40 MLOAD PUSH32 0x8C379A000000000000000000000000000000000000000000000000000000000 DUP2 MSTORE PUSH1 0x4 ADD PUSH2 0x11C1 SWAP1 PUSH2 0x2031 JUMP JUMPDEST PUSH1 0x40 MLOAD DUP1 SWAP2 SUB SWAP1 REVERT JUMPDEST PUSH1 0x0 PUSH20 0xFFFFFFFFFFFFFFFFFFFFFFFFFFFFFFFFFFFFFFFF AND DUP2 PUSH20 0xFFFFFFFFFFFFFFFFFFFFFFFFFFFFFFFFFFFFFFFF AND EQ ISZERO PUSH2 0x123A JUMPI PUSH1 0x40 MLOAD PUSH32 0x8C379A000000000000000000000000000000000000000000000000000000000 DUP2 MSTORE PUSH1 0x4 ADD PUSH2 0x1231 SWAP1 PUSH2 0x1F51 JUMP JUMPDEST PUSH1 0x40 MLOAD DUP1 SWAP2 SUB SWAP1 REVERT JUMPDEST PUSH2 0x1243 DUP2 PUSH2 0x17B3 JUMP JUMPDEST POP JUMP JUMPDEST PUSH1 0x2 PUSH1 0x0 SWAP1 SLOAD SWAP1 PUSH2 0x100 EXP SWAP1 DIV PUSH20 0xFFFFFFFFFFFFFFFFFFFFFFFFFFFFFFFFFFFFFFFF AND DUP2 JUMP JUMPDEST PUSH1 0x3 PUSH1 0x0 SWAP1 SLOAD SWAP1 PUSH2 0x100 EXP SWAP1 DIV PUSH20 0xFFFFFFFFFFFFFFFFFFFFFFFFFFFFFFFFFFFFFFFF AND DUP2 JUMP JUMPDEST PUSH1 0x0 CALLER SWAP1 POP SWAP1 JUMP JUMPDEST PUSH2 0x12A2 PUSH2 0xBB8 JUMP JUMPDEST PUSH2 0x12E1 JUMPI PUSH1 0x40 MLOAD PUSH32 0x8C379A000000000000000000000000000000000000000000000000000000000 DUP2 MSTORE PUSH1 0x4 ADD PUSH2 0x12D8 SWAP1 PUSH2 0x1F11 JUMP JUMPDEST PUSH1 0x40 MLOAD DUP1 SWAP2 SUB SWAP1 REVERT JUMPDEST PUSH1 0x0 DUP1 PUSH1 0x0 PUSH2 0x100 EXP DUP2 SLOAD DUP2 PUSH1 0xFF MUL NOT AND SWAP1 DUP4 ISZERO ISZERO MUL OR SWAP1 SSTORE POP PUSH32 0x5DB9EE0A495BF2E6FF9C91A7834C1BA4FDD244A5E8AA4E537BD38AEAE4B073AA PUSH2 0x1324 PUSH2 0x1292 JUMP JUMPDEST PUSH1 0x40 MLOAD PUSH2 0x1331 SWAP2 SWAP1 PUSH2 0x1E22 JUMP JUMPDEST PUSH1 0x40 MLOAD DUP1 SWAP2 SUB SWAP1 LOG1 JUMP JUMPDEST PUSH1 0x0 PUSH1 0x60 PUSH1 0x2 PUSH8 0xFFFFFFFFFFFFFFFF DUP2 GT ISZERO PUSH2 0x135A JUMPI PUSH2 0x1359 PUSH2 0x2377 JUMP JUMPDEST JUMPDEST PUSH1 0x40 MLOAD SWAP1 DUP1 DUP3 MSTORE DUP1 PUSH1 0x20 MUL PUSH1 0x20 ADD DUP3 ADD PUSH1 0x40 MSTORE DUP1 ISZERO PUSH2 0x1388 JUMPI DUP2 PUSH1 0x20 ADD PUSH1 0x20 DUP3 MUL DUP1 CALLDATASIZE DUP4 CALLDATACOPY DUP1 DUP3 ADD SWAP2 POP POP SWAP1 POP JUMPDEST POP SWAP1 POP PUSH1 0x2 PUSH1 0x0 SWAP1 SLOAD SWAP1 PUSH2 0x100 EXP SWAP1 DIV PUSH20 0xFFFFFFFFFFFFFFFFFFFFFFFFFFFFFFFFFFFFFFFF AND DUP2 PUSH1 0x0 DUP2 MLOAD DUP2 LT PUSH2 0x13C2 JUMPI PUSH2 0x13C1 PUSH2 0x2348 JUMP JUMPDEST JUMPDEST PUSH1 0x20 MUL PUSH1 0x20 ADD ADD SWAP1 PUSH20 0xFFFFFFFFFFFFFFFFFFFFFFFFFFFFFFFFFFFFFFFF AND SWAP1 DUP2 PUSH20 0xFFFFFFFFFFFFFFFFFFFFFFFFFFFFFFFFFFFFFFFF AND DUP2 MSTORE POP POP PUSH1 0x7 PUSH1 0x0 SWAP1 SLOAD SWAP1 PUSH2 0x100 EXP SWAP1 DIV PUSH20 0xFFFFFFFFFFFFFFFFFFFFFFFFFFFFFFFFFFFFFFFF AND DUP2 PUSH1 0x1 DUP2 MLOAD DUP2 LT PUSH2 0x1433 JUMPI PUSH2 0x1432 PUSH2 0x2348 JUMP JUMPDEST JUMPDEST PUSH1 0x20 MUL PUSH1 0x20 ADD ADD SWAP1 PUSH20 0xFFFFFFFFFFFFFFFFFFFFFFFFFFFFFFFFFFFFFFFF AND SWAP1 DUP2 PUSH20 0xFFFFFFFFFFFFFFFFFFFFFFFFFFFFFFFFFFFFFFFF AND DUP2 MSTORE POP POP PUSH1 0x0 PUSH1 0x6 PUSH1 0x0 SWAP1 SLOAD SWAP1 PUSH2 0x100 EXP SWAP1 DIV PUSH20 0xFFFFFFFFFFFFFFFFFFFFFFFFFFFFFFFFFFFFFFFF AND PUSH20 0xFFFFFFFFFFFFFFFFFFFFFFFFFFFFFFFFFFFFFFFF AND PUSH4 0xD06CA61F PUSH8 0xDE0B6B3A7640000 DUP5 PUSH1 0x40 MLOAD DUP4 PUSH4 0xFFFFFFFF AND PUSH1 0xE0 SHL DUP2 MSTORE PUSH1 0x4 ADD PUSH2 0x14D4 SWAP3 SWAP2 SWAP1 PUSH2 0x1EE1 JUMP JUMPDEST PUSH1 0x0 PUSH1 0x40 MLOAD DUP1 DUP4 SUB DUP2 DUP7 DUP1 EXTCODESIZE ISZERO DUP1 ISZERO PUSH2 0x14EC JUMPI PUSH1 0x0 DUP1 REVERT JUMPDEST POP GAS STATICCALL ISZERO DUP1 ISZERO PUSH2 0x1500 JUMPI RETURNDATASIZE PUSH1 0x0 DUP1 RETURNDATACOPY RETURNDATASIZE PUSH1 0x0 REVERT JUMPDEST POP POP POP POP PUSH1 0x40 MLOAD RETURNDATASIZE PUSH1 0x0 DUP3 RETURNDATACOPY RETURNDATASIZE PUSH1 0x1F NOT PUSH1 0x1F DUP3 ADD AND DUP3 ADD DUP1 PUSH1 0x40 MSTORE POP DUP2 ADD SWAP1 PUSH2 0x1529 SWAP2 SWAP1 PUSH2 0x1A4E JUMP JUMPDEST SWAP1 POP PUSH1 0x2 PUSH8 0xFFFFFFFFFFFFFFFF DUP2 GT ISZERO PUSH2 0x1546 JUMPI PUSH2 0x1545 PUSH2 0x2377 JUMP JUMPDEST JUMPDEST PUSH1 0x40 MLOAD SWAP1 DUP1 DUP3 MSTORE DUP1 PUSH1 0x20 MUL PUSH1 0x20 ADD DUP3 ADD PUSH1 0x40 MSTORE DUP1 ISZERO PUSH2 0x1574 JUMPI DUP2 PUSH1 0x20 ADD PUSH1 0x20 DUP3 MUL DUP1 CALLDATASIZE DUP4 CALLDATACOPY DUP1 DUP3 ADD SWAP2 POP POP SWAP1 POP JUMPDEST POP SWAP2 POP PUSH1 0x7 PUSH1 0x0 SWAP1 SLOAD SWAP1 PUSH2 0x100 EXP SWAP1 DIV PUSH20 0xFFFFFFFFFFFFFFFFFFFFFFFFFFFFFFFFFFFFFFFF AND DUP3 PUSH1 0x0 DUP2 MLOAD DUP2 LT PUSH2 0x15AE JUMPI PUSH2 0x15AD PUSH2 0x2348 JUMP JUMPDEST JUMPDEST PUSH1 0x20 MUL PUSH1 0x20 ADD ADD SWAP1 PUSH20 0xFFFFFFFFFFFFFFFFFFFFFFFFFFFFFFFFFFFFFFFF AND SWAP1 DUP2 PUSH20 0xFFFFFFFFFFFFFFFFFFFFFFFFFFFFFFFFFFFFFFFF AND DUP2 MSTORE POP POP PUSH1 0x8 PUSH1 0x0 SWAP1 SLOAD SWAP1 PUSH2 0x100 EXP SWAP1 DIV PUSH20 0xFFFFFFFFFFFFFFFFFFFFFFFFFFFFFFFFFFFFFFFF AND DUP3 PUSH1 0x1 DUP2 MLOAD DUP2 LT PUSH2 0x161F JUMPI PUSH2 0x161E PUSH2 0x2348 JUMP JUMPDEST JUMPDEST PUSH1 0x20 MUL PUSH1 0x20 ADD ADD SWAP1 PUSH20 0xFFFFFFFFFFFFFFFFFFFFFFFFFFFFFFFFFFFFFFFF AND SWAP1 DUP2 PUSH20 0xFFFFFFFFFFFFFFFFFFFFFFFFFFFFFFFFFFFFFFFF AND DUP2 MSTORE POP POP PUSH1 0x0 PUSH1 0x6 PUSH1 0x0 SWAP1 SLOAD SWAP1 PUSH2 0x100 EXP SWAP1 DIV PUSH20 0xFFFFFFFFFFFFFFFFFFFFFFFFFFFFFFFFFFFFFFFF AND PUSH20 0xFFFFFFFFFFFFFFFFFFFFFFFFFFFFFFFFFFFFFFFF AND PUSH4 0xD06CA61F PUSH8 0xDE0B6B3A7640000 DUP6 PUSH1 0x40 MLOAD DUP4 PUSH4 0xFFFFFFFF AND PUSH1 0xE0 SHL DUP2 MSTORE PUSH1 0x4 ADD PUSH2 0x16C0 SWAP3 SWAP2 SWAP1 PUSH2 0x1EE1 JUMP JUMPDEST PUSH1 0x0 PUSH1 0x40 MLOAD DUP1 DUP4 SUB DUP2 DUP7 DUP1 EXTCODESIZE ISZERO DUP1 ISZERO PUSH2 0x16D8 JUMPI PUSH1 0x0 DUP1 REVERT JUMPDEST POP GAS STATICCALL ISZERO DUP1 ISZERO PUSH2 0x16EC JUMPI RETURNDATASIZE PUSH1 0x0 DUP1 RETURNDATACOPY RETURNDATASIZE PUSH1 0x0 REVERT JUMPDEST POP POP POP POP PUSH1 0x40 MLOAD RETURNDATASIZE PUSH1 0x0 DUP3 RETURNDATACOPY RETURNDATASIZE PUSH1 0x1F NOT PUSH1 0x1F DUP3 ADD AND DUP3 ADD DUP1 PUSH1 0x40 MSTORE POP DUP2 ADD SWAP1 PUSH2 0x1715 SWAP2 SWAP1 PUSH2 0x1A4E JUMP JUMPDEST SWAP1 POP PUSH1 0x0 DUP3 PUSH1 0x1 DUP2 MLOAD DUP2 LT PUSH2 0x172D JUMPI PUSH2 0x172C PUSH2 0x2348 JUMP JUMPDEST JUMPDEST PUSH1 0x20 MUL PUSH1 0x20 ADD ADD MLOAD SWAP1 POP PUSH1 0x0 DUP3 PUSH1 0x1 DUP2 MLOAD DUP2 LT PUSH2 0x174D JUMPI PUSH2 0x174C PUSH2 0x2348 JUMP JUMPDEST JUMPDEST PUSH1 0x20 MUL PUSH1 0x20 ADD ADD MLOAD SWAP1 POP PUSH1 0x0 PUSH8 0xDE0B6B3A7640000 DUP3 DUP5 PUSH2 0x176E SWAP2 SWAP1 PUSH2 0x2198 JUMP JUMPDEST PUSH2 0x1778 SWAP2 SWAP1 PUSH2 0x2167 JUMP JUMPDEST SWAP1 POP PUSH1 0x0 DUP2 PUSH9 0x3635C9ADC5DEA00000 PUSH2 0x1791 SWAP2 SWAP1 PUSH2 0x2167 JUMP JUMPDEST SWAP1 POP PUSH8 0xDE0B6B3A7640000 DUP2 PUSH2 0x17A7 SWAP2 SWAP1 PUSH2 0x2198 JUMP JUMPDEST SWAP8 POP POP POP POP POP POP POP POP SWAP1 JUMP JUMPDEST PUSH1 0x0 DUP1 PUSH1 0x1 SWAP1 SLOAD SWAP1 PUSH2 0x100 EXP SWAP1 DIV PUSH20 0xFFFFFFFFFFFFFFFFFFFFFFFFFFFFFFFFFFFFFFFF AND SWAP1 POP DUP2 PUSH1 0x0 PUSH1 0x1 PUSH2 0x100 EXP DUP2 SLOAD DUP2 PUSH20 0xFFFFFFFFFFFFFFFFFFFFFFFFFFFFFFFFFFFFFFFF MUL NOT AND SWAP1 DUP4 PUSH20 0xFFFFFFFFFFFFFFFFFFFFFFFFFFFFFFFFFFFFFFFF AND MUL OR SWAP1 SSTORE POP DUP2 PUSH20 0xFFFFFFFFFFFFFFFFFFFFFFFFFFFFFFFFFFFFFFFF AND DUP2 PUSH20 0xFFFFFFFFFFFFFFFFFFFFFFFFFFFFFFFFFFFFFFFF AND PUSH32 0x8BE0079C531659141344CD1FD0A4F28419497F9722A3DAAFE3B4186F6B6457E0 PUSH1 0x40 MLOAD PUSH1 0x40 MLOAD DUP1 SWAP2 SUB SWAP1 LOG3 POP POP JUMP JUMPDEST PUSH2 0x1880 PUSH2 0xBB8 JUMP JUMPDEST ISZERO PUSH2 0x18C0 JUMPI PUSH1 0x40 MLOAD PUSH32 0x8C379A000000000000000000000000000000000000000000000000000000000 DUP2 MSTORE PUSH1 0x4 ADD PUSH2 0x18B7 SWAP1 PUSH2 0x2011 JUMP JUMPDEST PUSH1 0x40 MLOAD DUP1 SWAP2 SUB SWAP1 REVERT JUMPDEST PUSH1 0x1 PUSH1 0x0 DUP1 PUSH2 0x100 EXP DUP2 SLOAD DUP2 PUSH1 0xFF MUL NOT AND SWAP1 DUP4 ISZERO ISZERO MUL OR SWAP1 SSTORE POP PUSH32 0x62E78CEA01BEE320CD4E420270B5EA74000D11B0C9F74754EBDBFC544B05A258 PUSH2 0x1903 PUSH2 0x1292 JUMP JUMPDEST PUSH1 0x40 MLOAD PUSH2 0x1910 SWAP2 SWAP1 PUSH2 0x1E22 JUMP JUMPDEST PUSH1 0x40 MLOAD DUP1 SWAP2 SUB SWAP1 LOG1 JUMP JUMPDEST PUSH1 0x0 PUSH2 0x192D PUSH2 0x1928 DUP5 PUSH2 0x20F1 JUMP JUMPDEST PUSH2 0x20CC JUMP JUMPDEST SWAP1 POP DUP1 DUP4 DUP3 MSTORE PUSH1 0x20 DUP3 ADD SWAP1 POP DUP3 DUP6 PUSH1 0x20 DUP7 MUL DUP3 ADD GT ISZERO PUSH2 0x1950 JUMPI PUSH2 0x194F PUSH2 0x23AB JUMP JUMPDEST JUMPDEST PUSH1 0x0 JUMPDEST DUP6 DUP2 LT ISZERO PUSH2 0x1980 JUMPI DUP2 PUSH2 0x1966 DUP9 DUP3 PUSH2 0x1A0C JUMP JUMPDEST DUP5 MSTORE PUSH1 0x20 DUP5 ADD SWAP4 POP PUSH1 0x20 DUP4 ADD SWAP3 POP POP PUSH1 0x1 DUP2 ADD SWAP1 POP PUSH2 0x1953 JUMP JUMPDEST POP POP POP SWAP4 SWAP3 POP POP POP JUMP JUMPDEST PUSH1 0x0 DUP2 CALLDATALOAD SWAP1 POP PUSH2 0x1999 DUP2 PUSH2 0x2652 JUMP JUMPDEST SWAP3 SWAP2 POP POP JUMP JUMPDEST PUSH1 0x0 DUP3 PUSH1 0x1F DUP4 ADD SLT PUSH2 0x19B4 JUMPI PUSH2 0x19B3 PUSH2 0x23A6 JUMP JUMPDEST JUMPDEST DUP2 MLOAD PUSH2 0x19C4 DUP5 DUP3 PUSH1 0x20 DUP7 ADD PUSH2 0x191A JUMP JUMPDEST SWAP2 POP POP SWAP3 SWAP2 POP POP JUMP JUMPDEST PUSH1 0x0 DUP2 MLOAD SWAP1 POP PUSH2 0x19DC DUP2 PUSH2 0x2669 JUMP JUMPDEST SWAP3 SWAP2 POP POP JUMP JUMPDEST PUSH1 0x0 DUP2 CALLDATALOAD SWAP1 POP PUSH2 0x19F1 DUP2 PUSH2 0x2680 JUMP JUMPDEST SWAP3 SWAP2 POP POP JUMP JUMPDEST PUSH1 0x0 DUP2 CALLDATALOAD SWAP1 POP PUSH2 0x1A06 DUP2 PUSH2 0x2697 JUMP JUMPDEST SWAP3 SWAP2 POP POP JUMP JUMPDEST PUSH1 0x0 DUP2 MLOAD SWAP1 POP PUSH2 0x1A1B DUP2 PUSH2 0x2697 JUMP JUMPDEST SWAP3 SWAP2 POP POP JUMP JUMPDEST PUSH1 0x0 PUSH1 0x20 DUP3 DUP5 SUB SLT ISZERO PUSH2 0x1A37 JUMPI PUSH2 0x1A36 PUSH2 0x23B5 JUMP JUMPDEST JUMPDEST PUSH1 0x0 PUSH2 0x1A45 DUP5 DUP3 DUP6 ADD PUSH2 0x198A JUMP JUMPDEST SWAP2 POP POP SWAP3 SWAP2 POP POP JUMP JUMPDEST PUSH1 0x0 PUSH1 0x20 DUP3 DUP5 SUB SLT ISZERO PUSH2 0x1A64 JUMPI PUSH2 0x1A63 PUSH2 0x23B5 JUMP JUMPDEST JUMPDEST PUSH1 0x0 DUP3 ADD MLOAD PUSH8 0xFFFFFFFFFFFFFFFF DUP2 GT ISZERO PUSH2 0x1A82 JUMPI PUSH2 0x1A81 PUSH2 0x23B0 JUMP JUMPDEST JUMPDEST PUSH2 0x1A8E DUP5 DUP3 DUP6 ADD PUSH2 0x199F JUMP JUMPDEST SWAP2 POP POP SWAP3 SWAP2 POP POP JUMP JUMPDEST PUSH1 0x0 PUSH1 0x20 DUP3 DUP5 SUB SLT ISZERO PUSH2 0x1AAD JUMPI PUSH2 0x1AAC PUSH2 0x23B5 JUMP JUMPDEST JUMPDEST PUSH1 0x0 PUSH2 0x1ABB DUP5 DUP3 DUP6 ADD PUSH2 0x19CD JUMP JUMPDEST SWAP2 POP POP SWAP3 SWAP2 POP POP JUMP JUMPDEST PUSH1 0x0 PUSH1 0x20 DUP3 DUP5 SUB SLT ISZERO PUSH2 0x1ADA JUMPI PUSH2 0x1AD9 PUSH2 0x23B5 JUMP JUMPDEST JUMPDEST PUSH1 0x0 PUSH2 0x1AE8 DUP5 DUP3 DUP6 ADD PUSH2 0x19E2 JUMP JUMPDEST SWAP2 POP POP SWAP3 SWAP2 POP POP JUMP JUMPDEST PUSH1 0x0 DUP1 PUSH1 0x40 DUP4 DUP6 SUB SLT ISZERO PUSH2 0x1B08 JUMPI PUSH2 0x1B07 PUSH2 0x23B5 JUMP JUMPDEST JUMPDEST PUSH1 0x0 PUSH2 0x1B16 DUP6 DUP3 DUP7 ADD PUSH2 0x19E2 JUMP JUMPDEST SWAP3 POP POP PUSH1 0x20 PUSH2 0x1B27 DUP6 DUP3 DUP7 ADD PUSH2 0x19F7 JUMP JUMPDEST SWAP2 POP POP SWAP3 POP SWAP3 SWAP1 POP JUMP JUMPDEST PUSH1 0x0 PUSH1 0x20 DUP3 DUP5 SUB SLT ISZERO PUSH2 0x1B47 JUMPI PUSH2 0x1B46 PUSH2 0x23B5 JUMP JUMPDEST JUMPDEST PUSH1 0x0 PUSH2 0x1B55 DUP5 DUP3 DUP6 ADD PUSH2 0x19F7 JUMP JUMPDEST SWAP2 POP POP SWAP3 SWAP2 POP POP JUMP JUMPDEST PUSH1 0x0 PUSH1 0x20 DUP3 DUP5 SUB SLT ISZERO PUSH2 0x1B74 JUMPI PUSH2 0x1B73 PUSH2 0x23B5 JUMP JUMPDEST JUMPDEST PUSH1 0x0 PUSH2 0x1B82 DUP5 DUP3 DUP6 ADD PUSH2 0x1A0C JUMP JUMPDEST SWAP2 POP POP SWAP3 SWAP2 POP POP JUMP JUMPDEST PUSH1 0x0 PUSH2 0x1B97 DUP4 DUP4 PUSH2 0x1BA3 JUMP JUMPDEST PUSH1 0x20 DUP4 ADD SWAP1 POP SWAP3 SWAP2 POP POP JUMP JUMPDEST PUSH2 0x1BAC DUP2 PUSH2 0x21F2 JUMP JUMPDEST DUP3 MSTORE POP POP JUMP JUMPDEST PUSH2 0x1BBB DUP2 PUSH2 0x21F2 JUMP JUMPDEST DUP3 MSTORE POP POP JUMP JUMPDEST PUSH1 0x0 PUSH2 0x1BCC DUP3 PUSH2 0x212D JUMP JUMPDEST PUSH2 0x1BD6 DUP2 DUP6 PUSH2 0x2145 JUMP JUMPDEST SWAP4 POP PUSH2 0x1BE1 DUP4 PUSH2 0x211D JUMP JUMPDEST DUP1 PUSH1 0x0 JUMPDEST DUP4 DUP2 LT ISZERO PUSH2 0x1C12 JUMPI DUP2 MLOAD PUSH2 0x1BF9 DUP9 DUP3 PUSH2 0x1B8B JUMP JUMPDEST SWAP8 POP PUSH2 0x1C04 DUP4 PUSH2 0x2138 JUMP JUMPDEST SWAP3 POP POP PUSH1 0x1 DUP2 ADD SWAP1 POP PUSH2 0x1BE5 JUMP JUMPDEST POP DUP6 SWAP4 POP POP POP POP SWAP3 SWAP2 POP POP JUMP JUMPDEST PUSH2 0x1C28 DUP2 PUSH2 0x2204 JUMP JUMPDEST DUP3 MSTORE POP POP JUMP JUMPDEST PUSH2 0x1C37 DUP2 PUSH2 0x224C JUMP JUMPDEST DUP3 MSTORE POP POP JUMP JUMPDEST PUSH2 0x1C46 DUP2 PUSH2 0x225E JUMP JUMPDEST DUP3 MSTORE POP POP JUMP JUMPDEST PUSH1 0x0 PUSH2 0x1C59 PUSH1 0x14 DUP4 PUSH2 0x2156 JUMP JUMPDEST SWAP2 POP PUSH2 0x1C64 DUP3 PUSH2 0x23CB JUMP JUMPDEST PUSH1 0x20 DUP3 ADD SWAP1 POP SWAP2 SWAP1 POP JUMP JUMPDEST PUSH1 0x0 PUSH2 0x1C7C PUSH1 0x1D DUP4 PUSH2 0x2156 JUMP JUMPDEST SWAP2 POP PUSH2 0x1C87 DUP3 PUSH2 0x23F4 JUMP JUMPDEST PUSH1 0x20 DUP3 ADD SWAP1 POP SWAP2 SWAP1 POP JUMP JUMPDEST PUSH1 0x0 PUSH2 0x1C9F PUSH1 0x26 DUP4 PUSH2 0x2156 JUMP JUMPDEST SWAP2 POP PUSH2 0x1CAA DUP3 PUSH2 0x241D JUMP JUMPDEST PUSH1 0x40 DUP3 ADD SWAP1 POP SWAP2 SWAP1 POP JUMP JUMPDEST PUSH1 0x0 PUSH2 0x1CC2 PUSH1 0x1E DUP4 PUSH2 0x2156 JUMP JUMPDEST SWAP2 POP PUSH2 0x1CCD DUP3 PUSH2 0x246C JUMP JUMPDEST PUSH1 0x20 DUP3 ADD SWAP1 POP SWAP2 SWAP1 POP JUMP JUMPDEST PUSH1 0x0 PUSH2 0x1CE5 PUSH1 0x1B DUP4 PUSH2 0x2156 JUMP JUMPDEST SWAP2 POP PUSH2 0x1CF0 DUP3 PUSH2 0x2495 JUMP JUMPDEST PUSH1 0x20 DUP3 ADD SWAP1 POP SWAP2 SWAP1 POP JUMP JUMPDEST PUSH1 0x0 PUSH2 0x1D08 PUSH1 0x27 DUP4 PUSH2 0x2156 JUMP JUMPDEST SWAP2 POP PUSH2 0x1D13 DUP3 PUSH2 0x24BE JUMP JUMPDEST PUSH1 0x40 DUP3 ADD SWAP1 POP SWAP2 SWAP1 POP JUMP JUMPDEST PUSH1 0x0 PUSH2 0x1D2B PUSH1 0x1C DUP4 PUSH2 0x2156 JUMP JUMPDEST SWAP2 POP PUSH2 0x1D36 DUP3 PUSH2 0x250D JUMP JUMPDEST PUSH1 0x20 DUP3 ADD SWAP1 POP SWAP2 SWAP1 POP JUMP JUMPDEST PUSH1 0x0 PUSH2 0x1D4E PUSH1 0x29 DUP4 PUSH2 0x2156 JUMP JUMPDEST SWAP2 POP PUSH2 0x1D59 DUP3 PUSH2 0x2536 JUMP JUMPDEST PUSH1 0x40 DUP3 ADD SWAP1 POP SWAP2 SWAP1 POP JUMP JUMPDEST PUSH1 0x0 PUSH2 0x1D71 PUSH1 0x10 DUP4 PUSH2 0x2156 JUMP JUMPDEST SWAP2 POP PUSH2 0x1D7C DUP3 PUSH2 0x2585 JUMP JUMPDEST PUSH1 0x20 DUP3 ADD SWAP1 POP SWAP2 SWAP1 POP JUMP JUMPDEST PUSH1 0x0 PUSH2 0x1D94 PUSH1 0x20 DUP4 PUSH2 0x2156 JUMP JUMPDEST SWAP2 POP PUSH2 0x1D9F DUP3 PUSH2 0x25AE JUMP JUMPDEST PUSH1 0x20 DUP3 ADD SWAP1 POP SWAP2 SWAP1 POP JUMP JUMPDEST PUSH1 0x0 PUSH2 0x1DB7 PUSH1 0x1F DUP4 PUSH2 0x2156 JUMP JUMPDEST SWAP2 POP PUSH2 0x1DC2 DUP3 PUSH2 0x25D7 JUMP JUMPDEST PUSH1 0x20 DUP3 ADD SWAP1 POP SWAP2 SWAP1 POP JUMP JUMPDEST PUSH1 0x0 PUSH2 0x1DDA PUSH1 0x1E DUP4 PUSH2 0x2156 JUMP JUMPDEST SWAP2 POP PUSH2 0x1DE5 DUP3 PUSH2 0x2600 JUMP JUMPDEST PUSH1 0x20 DUP3 ADD SWAP1 POP SWAP2 SWAP1 POP JUMP JUMPDEST PUSH1 0x0 PUSH2 0x1DFD PUSH1 0x1F DUP4 PUSH2 0x2156 JUMP JUMPDEST SWAP2 POP PUSH2 0x1E08 DUP3 PUSH2 0x2629 JUMP JUMPDEST PUSH1 0x20 DUP3 ADD SWAP1 POP SWAP2 SWAP1 POP JUMP JUMPDEST PUSH2 0x1E1C DUP2 PUSH2 0x2242 JUMP JUMPDEST DUP3 MSTORE POP POP JUMP JUMPDEST PUSH1 0x0 PUSH1 0x20 DUP3 ADD SWAP1 POP PUSH2 0x1E37 PUSH1 0x0 DUP4 ADD DUP5 PUSH2 0x1BB2 JUMP JUMPDEST SWAP3 SWAP2 POP POP JUMP JUMPDEST PUSH1 0x0 PUSH1 0x60 DUP3 ADD SWAP1 POP PUSH2 0x1E52 PUSH1 0x0 DUP4 ADD DUP7 PUSH2 0x1BB2 JUMP JUMPDEST PUSH2 0x1E5F PUSH1 0x20 DUP4 ADD DUP6 PUSH2 0x1BB2 JUMP JUMPDEST PUSH2 0x1E6C PUSH1 0x40 DUP4 ADD DUP5 PUSH2 0x1E13 JUMP JUMPDEST SWAP5 SWAP4 POP POP POP POP JUMP JUMPDEST PUSH1 0x0 PUSH1 0x40 DUP3 ADD SWAP1 POP PUSH2 0x1E89 PUSH1 0x0 DUP4 ADD DUP6 PUSH2 0x1BB2 JUMP JUMPDEST PUSH2 0x1E96 PUSH1 0x20 DUP4 ADD DUP5 PUSH2 0x1C2E JUMP JUMPDEST SWAP4 SWAP3 POP POP POP JUMP JUMPDEST PUSH1 0x0 PUSH1 0x40 DUP3 ADD SWAP1 POP PUSH2 0x1EB2 PUSH1 0x0 DUP4 ADD DUP6 PUSH2 0x1BB2 JUMP JUMPDEST PUSH2 0x1EBF PUSH1 0x20 DUP4 ADD DUP5 PUSH2 0x1E13 JUMP JUMPDEST SWAP4 SWAP3 POP POP POP JUMP JUMPDEST PUSH1 0x0 PUSH1 0x20 DUP3 ADD SWAP1 POP PUSH2 0x1EDB PUSH1 0x0 DUP4 ADD DUP5 PUSH2 0x1C1F JUMP JUMPDEST SWAP3 SWAP2 POP POP JUMP JUMPDEST PUSH1 0x0 PUSH1 0x40 DUP3 ADD SWAP1 POP PUSH2 0x1EF6 PUSH1 0x0 DUP4 ADD DUP6 PUSH2 0x1C3D JUMP JUMPDEST DUP2 DUP2 SUB PUSH1 0x20 DUP4 ADD MSTORE PUSH2 0x1F08 DUP2 DUP5 PUSH2 0x1BC1 JUMP JUMPDEST SWAP1 POP SWAP4 SWAP3 POP POP POP JUMP JUMPDEST PUSH1 0x0 PUSH1 0x20 DUP3 ADD SWAP1 POP DUP2 DUP2 SUB PUSH1 0x0 DUP4 ADD MSTORE PUSH2 0x1F2A DUP2 PUSH2 0x1C4C JUMP JUMPDEST SWAP1 POP SWAP2 SWAP1 POP JUMP JUMPDEST PUSH1 0x0 PUSH1 0x20 DUP3 ADD SWAP1 POP DUP2 DUP2 SUB PUSH1 0x0 DUP4 ADD MSTORE PUSH2 0x1F4A DUP2 PUSH2 0x1C6F JUMP JUMPDEST SWAP1 POP SWAP2 SWAP1 POP JUMP JUMPDEST PUSH1 0x0 PUSH1 0x20 DUP3 ADD SWAP1 POP DUP2 DUP2 SUB PUSH1 0x0 DUP4 ADD MSTORE PUSH2 0x1F6A DUP2 PUSH2 0x1C92 JUMP JUMPDEST SWAP1 POP SWAP2 SWAP1 POP JUMP JUMPDEST PUSH1 0x0 PUSH1 0x20 DUP3 ADD SWAP1 POP DUP2 DUP2 SUB PUSH1 0x0 DUP4 ADD MSTORE PUSH2 0x1F8A DUP2 PUSH2 0x1CB5 JUMP JUMPDEST SWAP1 POP SWAP2 SWAP1 POP JUMP JUMPDEST PUSH1 0x0 PUSH1 0x20 DUP3 ADD SWAP1 POP DUP2 DUP2 SUB PUSH1 0x0 DUP4 ADD MSTORE PUSH2 0x1FAA DUP2 PUSH2 0x1CD8 JUMP JUMPDEST SWAP1 POP SWAP2 SWAP1 POP JUMP JUMPDEST PUSH1 0x0 PUSH1 0x20 DUP3 ADD SWAP1 POP DUP2 DUP2 SUB PUSH1 0x0 DUP4 ADD MSTORE PUSH2 0x1FCA DUP2 PUSH2 0x1CFB JUMP JUMPDEST SWAP1 POP SWAP2 SWAP1 POP JUMP JUMPDEST PUSH1 0x0 PUSH1 0x20 DUP3 ADD SWAP1 POP DUP2 DUP2 SUB PUSH1 0x0 DUP4 ADD MSTORE PUSH2 0x1FEA DUP2 PUSH2 0x1D1E JUMP JUMPDEST SWAP1 POP SWAP2 SWAP1 POP JUMP JUMPDEST PUSH1 0x0 PUSH1 0x20 DUP3 ADD SWAP1 POP DUP2 DUP2 SUB PUSH1 0x0 DUP4 ADD MSTORE PUSH2 0x200A DUP2 PUSH2 0x1D41 JUMP JUMPDEST SWAP1 POP SWAP2 SWAP1 POP JUMP JUMPDEST PUSH1 0x0 PUSH1 0x20 DUP3 ADD SWAP1 POP DUP2 DUP2 SUB PUSH1 0x0 DUP4 ADD MSTORE PUSH2 0x202A DUP2 PUSH2 0x1D64 JUMP JUMPDEST SWAP1 POP SWAP2 SWAP1 POP JUMP JUMPDEST PUSH1 0x0 PUSH1 0x20 DUP3 ADD SWAP1 POP DUP2 DUP2 SUB PUSH1 0x0 DUP4 ADD MSTORE PUSH2 0x204A DUP2 PUSH2 0x1D87 JUMP JUMPDEST SWAP1 POP SWAP2 SWAP1 POP JUMP JUMPDEST PUSH1 0x0 PUSH1 0x20 DUP3 ADD SWAP1 POP DUP2 DUP2 SUB PUSH1 0x0 DUP4 ADD MSTORE PUSH2 0x206A DUP2 PUSH2 0x1DAA JUMP JUMPDEST SWAP1 POP SWAP2 SWAP1 POP JUMP JUMPDEST PUSH1 0x0 PUSH1 0x20 DUP3 ADD SWAP1 POP DUP2 DUP2 SUB PUSH1 0x0 DUP4 ADD MSTORE PUSH2 0x208A DUP2 PUSH2 0x1DCD JUMP JUMPDEST SWAP1 POP SWAP2 SWAP1 POP JUMP JUMPDEST PUSH1 0x0 PUSH1 0x20 DUP3 ADD SWAP1 POP DUP2 DUP2 SUB PUSH1 0x0 DUP4 ADD MSTORE PUSH2 0x20AA DUP2 PUSH2 0x1DF0 JUMP JUMPDEST SWAP1 POP SWAP2 SWAP1 POP JUMP JUMPDEST PUSH1 0x0 PUSH1 0x20 DUP3 ADD SWAP1 POP PUSH2 0x20C6 PUSH1 0x0 DUP4 ADD DUP5 PUSH2 0x1E13 JUMP JUMPDEST SWAP3 SWAP2 POP POP JUMP JUMPDEST PUSH1 0x0 PUSH2 0x20D6 PUSH2 0x20E7 JUMP JUMPDEST SWAP1 POP PUSH2 0x20E2 DUP3 DUP3 PUSH2 0x2270 JUMP JUMPDEST SWAP2 SWAP1 POP JUMP JUMPDEST PUSH1 0x0 PUSH1 0x40 MLOAD SWAP1 POP SWAP1 JUMP JUMPDEST PUSH1 0x0 PUSH8 0xFFFFFFFFFFFFFFFF DUP3 GT ISZERO PUSH2 0x210C JUMPI PUSH2 0x210B PUSH2 0x2377 JUMP JUMPDEST JUMPDEST PUSH1 0x20 DUP3 MUL SWAP1 POP PUSH1 0x20 DUP2 ADD SWAP1 POP SWAP2 SWAP1 POP JUMP JUMPDEST PUSH1 0x0 DUP2 SWAP1 POP PUSH1 0x20 DUP3 ADD SWAP1 POP SWAP2 SWAP1 POP JUMP JUMPDEST PUSH1 0x0 DUP2 MLOAD SWAP1 POP SWAP2 SWAP1 POP JUMP JUMPDEST PUSH1 0x0 PUSH1 0x20 DUP3 ADD SWAP1 POP SWAP2 SWAP1 POP JUMP JUMPDEST PUSH1 0x0 DUP3 DUP3 MSTORE PUSH1 0x20 DUP3 ADD SWAP1 POP SWAP3 SWAP2 POP POP JUMP JUMPDEST PUSH1 0x0 DUP3 DUP3 MSTORE PUSH1 0x20 DUP3 ADD SWAP1 POP SWAP3 SWAP2 POP POP JUMP JUMPDEST PUSH1 0x0 PUSH2 0x2172 DUP3 PUSH2 0x2242 JUMP JUMPDEST SWAP2 POP PUSH2 0x217D DUP4 PUSH2 0x2242 JUMP JUMPDEST SWAP3 POP DUP3 PUSH2 0x218D JUMPI PUSH2 0x218C PUSH2 0x2319 JUMP JUMPDEST JUMPDEST DUP3 DUP3 DIV SWAP1 POP SWAP3 SWAP2 POP POP JUMP JUMPDEST PUSH1 0x0 PUSH2 0x21A3 DUP3 PUSH2 0x2242 JUMP JUMPDEST SWAP2 POP PUSH2 0x21AE DUP4 PUSH2 0x2242 JUMP JUMPDEST SWAP3 POP DUP2 PUSH32 0xFFFFFFFFFFFFFFFFFFFFFFFFFFFFFFFFFFFFFFFFFFFFFFFFFFFFFFFFFFFFFFFF DIV DUP4 GT DUP3 ISZERO ISZERO AND ISZERO PUSH2 0x21E7 JUMPI PUSH2 0x21E6 PUSH2 0x22EA JUMP JUMPDEST JUMPDEST DUP3 DUP3 MUL SWAP1 POP SWAP3 SWAP2 POP POP JUMP JUMPDEST PUSH1 0x0 PUSH2 0x21FD DUP3 PUSH2 0x2222 JUMP JUMPDEST SWAP1 POP SWAP2 SWAP1 POP JUMP JUMPDEST PUSH1 0x0 DUP2 ISZERO ISZERO SWAP1 POP SWAP2 SWAP1 POP JUMP JUMPDEST PUSH1 0x0 PUSH2 0x221B DUP3 PUSH2 0x21F2 JUMP JUMPDEST SWAP1 POP SWAP2 SWAP1 POP JUMP JUMPDEST PUSH1 0x0 PUSH20 0xFFFFFFFFFFFFFFFFFFFFFFFFFFFFFFFFFFFFFFFF DUP3 AND SWAP1 POP SWAP2 SWAP1 POP JUMP JUMPDEST PUSH1 0x0 DUP2 SWAP1 POP SWAP2 SWAP1 POP JUMP JUMPDEST PUSH1 0x0 PUSH2 0x2257 DUP3 PUSH2 0x2242 JUMP JUMPDEST SWAP1 POP SWAP2 SWAP1 POP JUMP JUMPDEST PUSH1 0x0 PUSH2 0x2269 DUP3 PUSH2 0x2242 JUMP JUMPDEST SWAP1 POP SWAP2 SWAP1 POP JUMP JUMPDEST PUSH2 0x2279 DUP3 PUSH2 0x23BA JUMP JUMPDEST DUP2 ADD DUP2 DUP2 LT PUSH8 0xFFFFFFFFFFFFFFFF DUP3 GT OR ISZERO PUSH2 0x2298 JUMPI PUSH2 0x2297 PUSH2 0x2377 JUMP JUMPDEST JUMPDEST DUP1 PUSH1 0x40 MSTORE POP POP POP JUMP JUMPDEST PUSH1 0x0 PUSH2 0x22AC DUP3 PUSH2 0x2242 JUMP JUMPDEST SWAP2 POP PUSH32 0xFFFFFFFFFFFFFFFFFFFFFFFFFFFFFFFFFFFFFFFFFFFFFFFFFFFFFFFFFFFFFFFF DUP3 EQ ISZERO PUSH2 0x22DF JUMPI PUSH2 0x22DE PUSH2 0x22EA JUMP JUMPDEST JUMPDEST PUSH1 0x1 DUP3 ADD SWAP1 POP SWAP2 SWAP1 POP JUMP JUMPDEST PUSH32 0x4E487B7100000000000000000000000000000000000000000000000000000000 PUSH1 0x0 MSTORE PUSH1 0x11 PUSH1 0x4 MSTORE PUSH1 0x24 PUSH1 0x0 REVERT JUMPDEST PUSH32 0x4E487B7100000000000000000000000000000000000000000000000000000000 PUSH1 0x0 MSTORE PUSH1 0x12 PUSH1 0x4 MSTORE PUSH1 0x24 PUSH1 0x0 REVERT JUMPDEST PUSH32 0x4E487B7100000000000000000000000000000000000000000000000000000000 PUSH1 0x0 MSTORE PUSH1 0x32 PUSH1 0x4 MSTORE PUSH1 0x24 PUSH1 0x0 REVERT JUMPDEST PUSH32 0x4E487B7100000000000000000000000000000000000000000000000000000000 PUSH1 0x0 MSTORE PUSH1 0x41 PUSH1 0x4 MSTORE PUSH1 0x24 PUSH1 0x0 REVERT JUMPDEST PUSH1 0x0 DUP1 REVERT JUMPDEST PUSH1 0x0 DUP1 REVERT JUMPDEST PUSH1 0x0 DUP1 REVERT JUMPDEST PUSH1 0x0 DUP1 REVERT JUMPDEST PUSH1 0x0 PUSH1 0x1F NOT PUSH1 0x1F DUP4 ADD AND SWAP1 POP SWAP2 SWAP1 POP JUMP JUMPDEST PUSH32 0x5061757361626C653A206E6F7420706175736564000000000000000000000000 PUSH1 0x0 DUP3 ADD MSTORE POP JUMP JUMPDEST PUSH32 0x54686973204576656E74204E6F74205965742053746172742054696D65000000 PUSH1 0x0 DUP3 ADD MSTORE POP JUMP JUMPDEST PUSH32 0x4F776E61626C653A206E6577206F776E657220697320746865207A65726F2061 PUSH1 0x0 DUP3 ADD MSTORE PUSH32 0x6464726573730000000000000000000000000000000000000000000000000000 PUSH1 0x20 DUP3 ADD MSTORE POP JUMP JUMPDEST PUSH32 0x5F616D6F756E74206D7573742062652067726561746572207468616E20300000 PUSH1 0x0 DUP3 ADD MSTORE POP JUMP JUMPDEST PUSH32 0x62616C616E63654F66546F6B656E3A2020697320657175616C20300000000000 PUSH1 0x0 DUP3 ADD MSTORE POP JUMP JUMPDEST PUSH32 0x4E756D626572206F6620626F78206861766520746F2062652067726561746572 PUSH1 0x0 DUP3 ADD MSTORE PUSH32 0x207468616E203000000000000000000000000000000000000000000000000000 PUSH1 0x20 DUP3 ADD MSTORE POP JUMP JUMPDEST PUSH32 0x62616C616E63654F664E61746976653A2020697320657175616C203000000000 PUSH1 0x0 DUP3 ADD MSTORE POP JUMP JUMPDEST PUSH32 0x457863656564656420746865206C696D6974206F6E20746865206E756D626572 PUSH1 0x0 DUP3 ADD MSTORE PUSH32 0x206F6620626F7865730000000000000000000000000000000000000000000000 PUSH1 0x20 DUP3 ADD MSTORE POP JUMP JUMPDEST PUSH32 0x5061757361626C653A2070617573656400000000000000000000000000000000 PUSH1 0x0 DUP3 ADD MSTORE POP JUMP JUMPDEST PUSH32 0x4F776E61626C653A2063616C6C6572206973206E6F7420746865206F776E6572 PUSH1 0x0 DUP3 ADD MSTORE POP JUMP JUMPDEST PUSH32 0x62616C616E63654F664E61746976653A20206973206E6F7420656E6F75676800 PUSH1 0x0 DUP3 ADD MSTORE POP JUMP JUMPDEST PUSH32 0x62616C616E63654F66546F6B656E3A20206973206E6F7420656E6F7567680000 PUSH1 0x0 DUP3 ADD MSTORE POP JUMP JUMPDEST PUSH32 0x5265656E7472616E637947756172643A207265656E7472616E742063616C6C00 PUSH1 0x0 DUP3 ADD MSTORE POP JUMP JUMPDEST PUSH2 0x265B DUP2 PUSH2 0x21F2 JUMP JUMPDEST DUP2 EQ PUSH2 0x2666 JUMPI PUSH1 0x0 DUP1 REVERT JUMPDEST POP JUMP JUMPDEST PUSH2 0x2672 DUP2 PUSH2 0x2204 JUMP JUMPDEST DUP2 EQ PUSH2 0x267D JUMPI PUSH1 0x0 DUP1 REVERT JUMPDEST POP JUMP JUMPDEST PUSH2 0x2689 DUP2 PUSH2 0x2210 JUMP JUMPDEST DUP2 EQ PUSH2 0x2694 JUMPI PUSH1 0x0 DUP1 REVERT JUMPDEST POP JUMP JUMPDEST PUSH2 0x26A0 DUP2 PUSH2 0x2242 JUMP JUMPDEST DUP2 EQ PUSH2 0x26AB JUMPI PUSH1 0x0 DUP1 REVERT JUMPDEST POP JUMP INVALID LOG2 PUSH5 0x6970667358 0x22 SLT KECCAK256 BYTE 0xA6 SWAP7 PUSH4 0xD7256956 0xB2 DELEGATECALL 0xFB 0x2E DUP2 PUSH11 0xE7A62345033B4B80F20192 POP OR 0xAA DUP1 CALL 0x1F 0xBF PUSH5 0x736F6C6343 STOP ADDMOD SMOD STOP CALLER "
				},
				"gasEstimates": {
					"creation": {
						"codeDepositCost": "1991200",
						"executionCost": "infinite",
						"totalCost": "infinite"
					},
					"external": {
						"BoxNFT()": "2624",
						"BuyBox(uint256)": "infinite",
						"amountBoxSold()": "2475",
						"editAmountBoxSold(uint256)": "54153",
						"owner()": "2594",
						"pause()": "infinite",
						"paused()": "2546",
						"renounceOwnership()": "30547",
						"startTime()": "2474",
						"token()": "2602",
						"totalSellBox()": "2497",
						"transferOwnership(address)": "30939",
						"unpause()": "infinite",
						"withdrawNative(uint256)": "infinite",
						"withdrawNativeAll()": "infinite",
						"withdrawToken(address,uint256)": "infinite",
						"withdrawTokenAll(address)": "infinite"
					},
					"internal": {
						"_calcCurPriceToken()": "infinite"
					}
				},
				"methodIdentifiers": {
					"BoxNFT()": "fc9443d9",
					"BuyBox(uint256)": "51a30b30",
					"amountBoxSold()": "06a3fbc2",
					"editAmountBoxSold(uint256)": "5d3a7c5d",
					"owner()": "8da5cb5b",
					"pause()": "8456cb59",
					"paused()": "5c975abb",
					"renounceOwnership()": "715018a6",
					"startTime()": "78e97925",
					"token()": "fc0c546a",
					"totalSellBox()": "0d551b63",
					"transferOwnership(address)": "f2fde38b",
					"unpause()": "3f4ba83a",
					"withdrawNative(uint256)": "84276d81",
					"withdrawNativeAll()": "015ed3c3",
					"withdrawToken(address,uint256)": "9e281a98",
					"withdrawTokenAll(address)": "5629d258"
				}
			},
			"storageLayout": {
				"storage": [
					{
						"astId": 122,
						"contract": "contracts/BuyingBoxNFT.sol:EventBuyBox",
						"label": "_paused",
						"offset": 0,
						"slot": "0",
						"type": "t_bool"
					},
					{
						"astId": 7,
						"contract": "contracts/BuyingBoxNFT.sol:EventBuyBox",
						"label": "_owner",
						"offset": 1,
						"slot": "0",
						"type": "t_address"
					},
					{
						"astId": 207,
						"contract": "contracts/BuyingBoxNFT.sol:EventBuyBox",
						"label": "_status",
						"offset": 0,
						"slot": "1",
						"type": "t_uint256"
					},
					{
						"astId": 515,
						"contract": "contracts/BuyingBoxNFT.sol:EventBuyBox",
						"label": "token",
						"offset": 0,
						"slot": "2",
						"type": "t_address"
					},
					{
						"astId": 517,
						"contract": "contracts/BuyingBoxNFT.sol:EventBuyBox",
						"label": "BoxNFT",
						"offset": 0,
						"slot": "3",
						"type": "t_address"
					},
					{
						"astId": 519,
						"contract": "contracts/BuyingBoxNFT.sol:EventBuyBox",
						"label": "startTime",
						"offset": 0,
						"slot": "4",
						"type": "t_uint256"
					},
					{
						"astId": 521,
						"contract": "contracts/BuyingBoxNFT.sol:EventBuyBox",
						"label": "amountBoxSold",
						"offset": 0,
						"slot": "5",
						"type": "t_uint256"
					},
					{
						"astId": 524,
						"contract": "contracts/BuyingBoxNFT.sol:EventBuyBox",
						"label": "pancakeRouterV2Contract",
						"offset": 0,
						"slot": "6",
						"type": "t_address"
					},
					{
						"astId": 527,
						"contract": "contracts/BuyingBoxNFT.sol:EventBuyBox",
						"label": "bnbContract",
						"offset": 0,
						"slot": "7",
						"type": "t_address"
					},
					{
						"astId": 530,
						"contract": "contracts/BuyingBoxNFT.sol:EventBuyBox",
						"label": "busdContract",
						"offset": 0,
						"slot": "8",
						"type": "t_address"
					},
					{
						"astId": 537,
						"contract": "contracts/BuyingBoxNFT.sol:EventBuyBox",
						"label": "totalSellBox",
						"offset": 0,
						"slot": "9",
						"type": "t_uint256"
					}
				],
				"types": {
					"t_address": {
						"encoding": "inplace",
						"label": "address",
						"numberOfBytes": "20"
					},
					"t_bool": {
						"encoding": "inplace",
						"label": "bool",
						"numberOfBytes": "1"
					},
					"t_uint256": {
						"encoding": "inplace",
						"label": "uint256",
						"numberOfBytes": "32"
					}
				}
			},
			"userdoc": {
				"kind": "user",
				"methods": {},
				"version": 1
			}
		}
	}
}